{
  "abi": [
    {
      "inputs": [
        {
          "internalType": "contract IERC20",
          "name": "stakedToken",
          "type": "address"
        },
        {
          "internalType": "contract IERC20",
          "name": "rewardToken",
          "type": "address"
        },
        {
          "internalType": "uint256",
          "name": "unstakeWindow",
          "type": "uint256"
        },
        {
          "internalType": "address",
          "name": "rewardsVault",
          "type": "address"
        },
        {
          "internalType": "address",
          "name": "emissionManager",
          "type": "address"
        },
        {
          "internalType": "uint128",
          "name": "distributionDuration",
          "type": "uint128"
        }
      ],
      "stateMutability": "nonpayable",
      "type": "constructor"
    },
    {
      "inputs": [],
      "name": "ECDSAInvalidSignature",
      "type": "error"
    },
    {
      "inputs": [
        {
          "internalType": "uint256",
          "name": "length",
          "type": "uint256"
        }
      ],
      "name": "ECDSAInvalidSignatureLength",
      "type": "error"
    },
    {
      "inputs": [
        {
          "internalType": "bytes32",
          "name": "s",
          "type": "bytes32"
        }
      ],
      "name": "ECDSAInvalidSignatureS",
      "type": "error"
    },
    {
      "inputs": [],
      "name": "InvalidShortString",
      "type": "error"
    },
    {
      "inputs": [
        {
          "internalType": "string",
          "name": "str",
          "type": "string"
        }
      ],
      "name": "StringTooLong",
      "type": "error"
    },
    {
      "anonymous": false,
      "inputs": [
        {
          "indexed": true,
          "internalType": "address",
          "name": "owner",
          "type": "address"
        },
        {
          "indexed": true,
          "internalType": "address",
          "name": "spender",
          "type": "address"
        },
        {
          "indexed": false,
          "internalType": "uint256",
          "name": "value",
          "type": "uint256"
        }
      ],
      "name": "Approval",
      "type": "event"
    },
    {
      "anonymous": false,
      "inputs": [
        {
          "indexed": true,
          "internalType": "address",
          "name": "asset",
          "type": "address"
        },
        {
          "indexed": false,
          "internalType": "uint256",
          "name": "emission",
          "type": "uint256"
        }
      ],
      "name": "AssetConfigUpdated",
      "type": "event"
    },
    {
      "anonymous": false,
      "inputs": [
        {
          "indexed": true,
          "internalType": "address",
          "name": "asset",
          "type": "address"
        },
        {
          "indexed": false,
          "internalType": "uint256",
          "name": "index",
          "type": "uint256"
        }
      ],
      "name": "AssetIndexUpdated",
      "type": "event"
    },
    {
      "anonymous": false,
      "inputs": [
        {
          "indexed": true,
          "internalType": "address",
          "name": "user",
          "type": "address"
        },
        {
          "indexed": false,
          "internalType": "uint256",
          "name": "amount",
          "type": "uint256"
        }
      ],
      "name": "Cooldown",
      "type": "event"
    },
    {
      "anonymous": false,
      "inputs": [
        {
          "indexed": false,
          "internalType": "uint256",
          "name": "cooldownSeconds",
          "type": "uint256"
        }
      ],
      "name": "CooldownSecondsChanged",
      "type": "event"
    },
    {
      "anonymous": false,
      "inputs": [
        {
          "indexed": true,
          "internalType": "address",
          "name": "delegator",
          "type": "address"
        },
        {
          "indexed": true,
          "internalType": "address",
          "name": "delegatee",
          "type": "address"
        },
        {
          "indexed": false,
          "internalType": "enum IGovernancePowerDelegationToken.GovernancePowerType",
          "name": "delegationType",
          "type": "uint8"
        }
      ],
      "name": "DelegateChanged",
      "type": "event"
    },
    {
      "anonymous": false,
      "inputs": [],
      "name": "EIP712DomainChanged",
      "type": "event"
    },
    {
      "anonymous": false,
      "inputs": [
        {
          "indexed": false,
          "internalType": "uint216",
          "name": "exchangeRate",
          "type": "uint216"
        }
      ],
      "name": "ExchangeRateChanged",
      "type": "event"
    },
    {
      "anonymous": false,
      "inputs": [
        {
          "indexed": false,
          "internalType": "uint256",
          "name": "amount",
          "type": "uint256"
        }
      ],
      "name": "FundsReturned",
      "type": "event"
    },
    {
      "anonymous": false,
      "inputs": [
        {
          "indexed": true,
          "internalType": "address",
          "name": "newDebtToken",
          "type": "address"
        }
      ],
      "name": "GHODebtTokenChanged",
      "type": "event"
    },
    {
      "anonymous": false,
      "inputs": [
        {
          "indexed": false,
          "internalType": "uint256",
          "name": "newPercentage",
          "type": "uint256"
        }
      ],
      "name": "MaxSlashablePercentageChanged",
      "type": "event"
    },
    {
      "anonymous": false,
      "inputs": [
        {
          "indexed": true,
          "internalType": "address",
          "name": "newPendingAdmin",
          "type": "address"
        },
        {
          "indexed": false,
          "internalType": "uint256",
          "name": "role",
          "type": "uint256"
        }
      ],
      "name": "PendingAdminChanged",
      "type": "event"
    },
    {
      "anonymous": false,
      "inputs": [
        {
          "indexed": true,
          "internalType": "address",
          "name": "from",
          "type": "address"
        },
        {
          "indexed": true,
          "internalType": "address",
          "name": "to",
          "type": "address"
        },
        {
          "indexed": false,
          "internalType": "uint256",
          "name": "assets",
          "type": "uint256"
        },
        {
          "indexed": false,
          "internalType": "uint256",
          "name": "shares",
          "type": "uint256"
        }
      ],
      "name": "Redeem",
      "type": "event"
    },
    {
      "anonymous": false,
      "inputs": [
        {
          "indexed": false,
          "internalType": "address",
          "name": "user",
          "type": "address"
        },
        {
          "indexed": false,
          "internalType": "uint256",
          "name": "amount",
          "type": "uint256"
        }
      ],
      "name": "RewardsAccrued",
      "type": "event"
    },
    {
      "anonymous": false,
      "inputs": [
        {
          "indexed": true,
          "internalType": "address",
          "name": "from",
          "type": "address"
        },
        {
          "indexed": true,
          "internalType": "address",
          "name": "to",
          "type": "address"
        },
        {
          "indexed": false,
          "internalType": "uint256",
          "name": "amount",
          "type": "uint256"
        }
      ],
      "name": "RewardsClaimed",
      "type": "event"
    },
    {
      "anonymous": false,
      "inputs": [
        {
          "indexed": true,
          "internalType": "address",
          "name": "newAdmin",
          "type": "address"
        },
        {
          "indexed": false,
          "internalType": "uint256",
          "name": "role",
          "type": "uint256"
        }
      ],
      "name": "RoleClaimed",
      "type": "event"
    },
    {
      "anonymous": false,
      "inputs": [
        {
          "indexed": true,
          "internalType": "address",
          "name": "destination",
          "type": "address"
        },
        {
          "indexed": false,
          "internalType": "uint256",
          "name": "amount",
          "type": "uint256"
        }
      ],
      "name": "Slashed",
      "type": "event"
    },
    {
      "anonymous": false,
      "inputs": [
        {
          "indexed": false,
          "internalType": "uint256",
          "name": "windowSeconds",
          "type": "uint256"
        }
      ],
      "name": "SlashingExitWindowDurationChanged",
      "type": "event"
    },
    {
      "anonymous": false,
      "inputs": [],
      "name": "SlashingSettled",
      "type": "event"
    },
    {
      "anonymous": false,
      "inputs": [
        {
          "indexed": true,
          "internalType": "address",
          "name": "from",
          "type": "address"
        },
        {
          "indexed": true,
          "internalType": "address",
          "name": "to",
          "type": "address"
        },
        {
          "indexed": false,
          "internalType": "uint256",
          "name": "assets",
          "type": "uint256"
        },
        {
          "indexed": false,
          "internalType": "uint256",
          "name": "shares",
          "type": "uint256"
        }
      ],
      "name": "Staked",
      "type": "event"
    },
    {
      "anonymous": false,
      "inputs": [
        {
          "indexed": true,
          "internalType": "address",
          "name": "from",
          "type": "address"
        },
        {
          "indexed": true,
          "internalType": "address",
          "name": "to",
          "type": "address"
        },
        {
          "indexed": false,
          "internalType": "uint256",
          "name": "value",
          "type": "uint256"
        }
      ],
      "name": "Transfer",
      "type": "event"
    },
    {
      "anonymous": false,
      "inputs": [
        {
          "indexed": true,
          "internalType": "address",
          "name": "user",
          "type": "address"
        },
        {
          "indexed": true,
          "internalType": "address",
          "name": "asset",
          "type": "address"
        },
        {
          "indexed": false,
          "internalType": "uint256",
          "name": "index",
          "type": "uint256"
        }
      ],
      "name": "UserIndexUpdated",
      "type": "event"
    },
    {
      "inputs": [],
      "name": "CLAIM_HELPER_ROLE",
      "outputs": [
        {
          "internalType": "uint256",
          "name": "",
          "type": "uint256"
        }
      ],
      "stateMutability": "view",
      "type": "function"
    },
    {
      "inputs": [],
      "name": "COOLDOWN_ADMIN_ROLE",
      "outputs": [
        {
          "internalType": "uint256",
          "name": "",
          "type": "uint256"
        }
      ],
      "stateMutability": "view",
      "type": "function"
    },
    {
      "inputs": [],
      "name": "COOLDOWN_SECONDS",
      "outputs": [
        {
          "internalType": "uint256",
          "name": "",
          "type": "uint256"
        }
      ],
      "stateMutability": "view",
      "type": "function"
    },
    {
      "inputs": [],
      "name": "DELEGATE_BY_TYPE_TYPEHASH",
      "outputs": [
        {
          "internalType": "bytes32",
          "name": "",
          "type": "bytes32"
        }
      ],
      "stateMutability": "view",
      "type": "function"
    },
    {
      "inputs": [],
      "name": "DELEGATE_TYPEHASH",
      "outputs": [
        {
          "internalType": "bytes32",
          "name": "",
          "type": "bytes32"
        }
      ],
      "stateMutability": "view",
      "type": "function"
    },
    {
      "inputs": [],
      "name": "DISTRIBUTION_END",
      "outputs": [
        {
          "internalType": "uint256",
          "name": "",
          "type": "uint256"
        }
      ],
      "stateMutability": "view",
      "type": "function"
    },
    {
      "inputs": [],
      "name": "DOMAIN_SEPARATOR",
      "outputs": [
        {
          "internalType": "bytes32",
          "name": "",
          "type": "bytes32"
        }
      ],
      "stateMutability": "view",
      "type": "function"
    },
    {
      "inputs": [],
      "name": "EIP712_REVISION",
      "outputs": [
        {
          "internalType": "bytes",
          "name": "",
          "type": "bytes"
        }
      ],
      "stateMutability": "view",
      "type": "function"
    },
    {
      "inputs": [],
      "name": "EMISSION_MANAGER",
      "outputs": [
        {
          "internalType": "address",
          "name": "",
          "type": "address"
        }
      ],
      "stateMutability": "view",
      "type": "function"
    },
    {
      "inputs": [],
      "name": "EXCHANGE_RATE_UNIT",
      "outputs": [
        {
          "internalType": "uint256",
          "name": "",
          "type": "uint256"
        }
      ],
      "stateMutability": "view",
      "type": "function"
    },
    {
      "inputs": [],
      "name": "INITIAL_EXCHANGE_RATE",
      "outputs": [
        {
          "internalType": "uint216",
          "name": "",
          "type": "uint216"
        }
      ],
      "stateMutability": "view",
      "type": "function"
    },
    {
      "inputs": [],
      "name": "LOWER_BOUND",
      "outputs": [
        {
          "internalType": "uint256",
          "name": "",
          "type": "uint256"
        }
      ],
      "stateMutability": "view",
      "type": "function"
    },
    {
      "inputs": [],
      "name": "PERMIT_TYPEHASH",
      "outputs": [
        {
          "internalType": "bytes32",
          "name": "",
          "type": "bytes32"
        }
      ],
      "stateMutability": "view",
      "type": "function"
    },
    {
      "inputs": [],
      "name": "POWER_SCALE_FACTOR",
      "outputs": [
        {
          "internalType": "uint256",
          "name": "",
          "type": "uint256"
        }
      ],
      "stateMutability": "view",
      "type": "function"
    },
    {
      "inputs": [],
      "name": "PRECISION",
      "outputs": [
        {
          "internalType": "uint8",
          "name": "",
          "type": "uint8"
        }
      ],
      "stateMutability": "view",
      "type": "function"
    },
    {
      "inputs": [],
      "name": "REVISION",
      "outputs": [
        {
          "internalType": "uint256",
          "name": "",
          "type": "uint256"
        }
      ],
      "stateMutability": "pure",
      "type": "function"
    },
    {
      "inputs": [],
      "name": "REWARDS_VAULT",
      "outputs": [
        {
          "internalType": "address",
          "name": "",
          "type": "address"
        }
      ],
      "stateMutability": "view",
      "type": "function"
    },
    {
      "inputs": [],
      "name": "REWARD_TOKEN",
      "outputs": [
        {
          "internalType": "contract IERC20",
          "name": "",
          "type": "address"
        }
      ],
      "stateMutability": "view",
      "type": "function"
    },
    {
      "inputs": [],
      "name": "SLASH_ADMIN_ROLE",
      "outputs": [
        {
          "internalType": "uint256",
          "name": "",
          "type": "uint256"
        }
      ],
      "stateMutability": "view",
      "type": "function"
    },
    {
      "inputs": [],
      "name": "STAKED_TOKEN",
      "outputs": [
        {
          "internalType": "contract IERC20",
          "name": "",
          "type": "address"
        }
      ],
      "stateMutability": "view",
      "type": "function"
    },
    {
      "inputs": [],
      "name": "UNSTAKE_WINDOW",
      "outputs": [
        {
          "internalType": "uint256",
          "name": "",
          "type": "uint256"
        }
      ],
      "stateMutability": "view",
      "type": "function"
    },
    {
      "inputs": [
        {
          "internalType": "address",
          "name": "",
          "type": "address"
        }
      ],
      "name": "_nonces",
      "outputs": [
        {
          "internalType": "uint256",
          "name": "",
          "type": "uint256"
        }
      ],
      "stateMutability": "view",
      "type": "function"
    },
    {
      "inputs": [
        {
          "internalType": "address",
          "name": "owner",
          "type": "address"
        },
        {
          "internalType": "address",
          "name": "spender",
          "type": "address"
        }
      ],
      "name": "allowance",
      "outputs": [
        {
          "internalType": "uint256",
          "name": "",
          "type": "uint256"
        }
      ],
      "stateMutability": "view",
      "type": "function"
    },
    {
      "inputs": [
        {
          "internalType": "address",
          "name": "spender",
          "type": "address"
        },
        {
          "internalType": "uint256",
          "name": "amount",
          "type": "uint256"
        }
      ],
      "name": "approve",
      "outputs": [
        {
          "internalType": "bool",
          "name": "",
          "type": "bool"
        }
      ],
      "stateMutability": "nonpayable",
      "type": "function"
    },
    {
      "inputs": [
        {
          "internalType": "address",
          "name": "",
          "type": "address"
        }
      ],
      "name": "assets",
      "outputs": [
        {
          "internalType": "uint128",
          "name": "emissionPerSecond",
          "type": "uint128"
        },
        {
          "internalType": "uint128",
          "name": "lastUpdateTimestamp",
          "type": "uint128"
        },
        {
          "internalType": "uint256",
          "name": "index",
          "type": "uint256"
        }
      ],
      "stateMutability": "view",
      "type": "function"
    },
    {
      "inputs": [
        {
          "internalType": "address",
          "name": "account",
          "type": "address"
        }
      ],
      "name": "balanceOf",
      "outputs": [
        {
          "internalType": "uint256",
          "name": "",
          "type": "uint256"
        }
      ],
      "stateMutability": "view",
      "type": "function"
    },
    {
      "inputs": [
        {
          "internalType": "address",
          "name": "to",
          "type": "address"
        },
        {
          "internalType": "uint256",
          "name": "amount",
          "type": "uint256"
        }
      ],
      "name": "claimRewards",
      "outputs": [],
      "stateMutability": "nonpayable",
      "type": "function"
    },
    {
      "inputs": [
        {
          "internalType": "address",
          "name": "to",
          "type": "address"
        },
        {
          "internalType": "uint256",
          "name": "claimAmount",
          "type": "uint256"
        },
        {
          "internalType": "uint256",
          "name": "redeemAmount",
          "type": "uint256"
        }
      ],
      "name": "claimRewardsAndRedeem",
      "outputs": [],
      "stateMutability": "nonpayable",
      "type": "function"
    },
    {
      "inputs": [
        {
          "internalType": "address",
          "name": "from",
          "type": "address"
        },
        {
          "internalType": "address",
          "name": "to",
          "type": "address"
        },
        {
          "internalType": "uint256",
          "name": "claimAmount",
          "type": "uint256"
        },
        {
          "internalType": "uint256",
          "name": "redeemAmount",
          "type": "uint256"
        }
      ],
      "name": "claimRewardsAndRedeemOnBehalf",
      "outputs": [],
      "stateMutability": "nonpayable",
      "type": "function"
    },
    {
      "inputs": [
        {
          "internalType": "address",
          "name": "to",
          "type": "address"
        },
        {
          "internalType": "uint256",
          "name": "amount",
          "type": "uint256"
        }
      ],
      "name": "claimRewardsAndStake",
      "outputs": [
        {
          "internalType": "uint256",
          "name": "",
          "type": "uint256"
        }
      ],
      "stateMutability": "nonpayable",
      "type": "function"
    },
    {
      "inputs": [
        {
          "internalType": "address",
          "name": "from",
          "type": "address"
        },
        {
          "internalType": "address",
          "name": "to",
          "type": "address"
        },
        {
          "internalType": "uint256",
          "name": "amount",
          "type": "uint256"
        }
      ],
      "name": "claimRewardsAndStakeOnBehalf",
      "outputs": [
        {
          "internalType": "uint256",
          "name": "",
          "type": "uint256"
        }
      ],
      "stateMutability": "nonpayable",
      "type": "function"
    },
    {
      "inputs": [
        {
          "internalType": "address",
          "name": "from",
          "type": "address"
        },
        {
          "internalType": "address",
          "name": "to",
          "type": "address"
        },
        {
          "internalType": "uint256",
          "name": "amount",
          "type": "uint256"
        }
      ],
      "name": "claimRewardsOnBehalf",
      "outputs": [
        {
          "internalType": "uint256",
          "name": "",
          "type": "uint256"
        }
      ],
      "stateMutability": "nonpayable",
      "type": "function"
    },
    {
      "inputs": [
        {
          "internalType": "uint256",
          "name": "role",
          "type": "uint256"
        }
      ],
      "name": "claimRoleAdmin",
      "outputs": [],
      "stateMutability": "nonpayable",
      "type": "function"
    },
    {
      "inputs": [
        {
          "components": [
            {
              "internalType": "uint128",
              "name": "emissionPerSecond",
              "type": "uint128"
            },
            {
              "internalType": "uint256",
              "name": "totalStaked",
              "type": "uint256"
            },
            {
              "internalType": "address",
              "name": "underlyingAsset",
              "type": "address"
            }
          ],
          "internalType": "struct DistributionTypes.AssetConfigInput[]",
          "name": "assetsConfigInput",
          "type": "tuple[]"
        }
      ],
      "name": "configureAssets",
      "outputs": [],
      "stateMutability": "nonpayable",
      "type": "function"
    },
    {
      "inputs": [],
      "name": "cooldown",
      "outputs": [],
      "stateMutability": "nonpayable",
      "type": "function"
    },
    {
      "inputs": [
        {
          "internalType": "address",
          "name": "from",
          "type": "address"
        }
      ],
      "name": "cooldownOnBehalfOf",
      "outputs": [],
      "stateMutability": "nonpayable",
      "type": "function"
    },
    {
      "inputs": [],
      "name": "decimals",
      "outputs": [
        {
          "internalType": "uint8",
          "name": "",
          "type": "uint8"
        }
      ],
      "stateMutability": "view",
      "type": "function"
    },
    {
      "inputs": [
        {
          "internalType": "address",
          "name": "spender",
          "type": "address"
        },
        {
          "internalType": "uint256",
          "name": "subtractedValue",
          "type": "uint256"
        }
      ],
      "name": "decreaseAllowance",
      "outputs": [
        {
          "internalType": "bool",
          "name": "",
          "type": "bool"
        }
      ],
      "stateMutability": "nonpayable",
      "type": "function"
    },
    {
      "inputs": [
        {
          "internalType": "address",
          "name": "delegatee",
          "type": "address"
        }
      ],
      "name": "delegate",
      "outputs": [],
      "stateMutability": "nonpayable",
      "type": "function"
    },
    {
      "inputs": [
        {
          "internalType": "address",
          "name": "delegatee",
          "type": "address"
        },
        {
          "internalType": "enum IGovernancePowerDelegationToken.GovernancePowerType",
          "name": "delegationType",
          "type": "uint8"
        }
      ],
      "name": "delegateByType",
      "outputs": [],
      "stateMutability": "nonpayable",
      "type": "function"
    },
    {
      "inputs": [],
      "name": "eip712Domain",
      "outputs": [
        {
          "internalType": "bytes1",
          "name": "fields",
          "type": "bytes1"
        },
        {
          "internalType": "string",
          "name": "name",
          "type": "string"
        },
        {
          "internalType": "string",
          "name": "version",
          "type": "string"
        },
        {
          "internalType": "uint256",
          "name": "chainId",
          "type": "uint256"
        },
        {
          "internalType": "address",
          "name": "verifyingContract",
          "type": "address"
        },
        {
          "internalType": "bytes32",
          "name": "salt",
          "type": "bytes32"
        },
        {
          "internalType": "uint256[]",
          "name": "extensions",
          "type": "uint256[]"
        }
      ],
      "stateMutability": "view",
      "type": "function"
    },
    {
      "inputs": [
        {
          "internalType": "uint256",
          "name": "role",
          "type": "uint256"
        }
      ],
      "name": "getAdmin",
      "outputs": [
        {
          "internalType": "address",
          "name": "",
          "type": "address"
        }
      ],
      "stateMutability": "view",
      "type": "function"
    },
    {
      "inputs": [],
      "name": "getCooldownSeconds",
      "outputs": [
        {
          "internalType": "uint256",
          "name": "",
          "type": "uint256"
        }
      ],
      "stateMutability": "view",
      "type": "function"
    },
    {
      "inputs": [
        {
          "internalType": "address",
          "name": "delegator",
          "type": "address"
        },
        {
          "internalType": "enum IGovernancePowerDelegationToken.GovernancePowerType",
          "name": "delegationType",
          "type": "uint8"
        }
      ],
      "name": "getDelegateeByType",
      "outputs": [
        {
          "internalType": "address",
          "name": "",
          "type": "address"
        }
      ],
      "stateMutability": "view",
      "type": "function"
    },
    {
      "inputs": [
        {
          "internalType": "address",
          "name": "delegator",
          "type": "address"
        }
      ],
      "name": "getDelegates",
      "outputs": [
        {
          "internalType": "address",
          "name": "",
          "type": "address"
        },
        {
          "internalType": "address",
          "name": "",
          "type": "address"
        }
      ],
      "stateMutability": "view",
      "type": "function"
    },
    {
      "inputs": [],
      "name": "getExchangeRate",
      "outputs": [
        {
          "internalType": "uint216",
          "name": "",
          "type": "uint216"
        }
      ],
      "stateMutability": "view",
      "type": "function"
    },
    {
      "inputs": [],
      "name": "getMaxSlashablePercentage",
      "outputs": [
        {
          "internalType": "uint256",
          "name": "",
          "type": "uint256"
        }
      ],
      "stateMutability": "view",
      "type": "function"
    },
    {
      "inputs": [
        {
          "internalType": "uint256",
          "name": "role",
          "type": "uint256"
        }
      ],
      "name": "getPendingAdmin",
      "outputs": [
        {
          "internalType": "address",
          "name": "",
          "type": "address"
        }
      ],
      "stateMutability": "view",
      "type": "function"
    },
    {
      "inputs": [
        {
          "internalType": "address",
          "name": "user",
          "type": "address"
        },
        {
          "internalType": "enum IGovernancePowerDelegationToken.GovernancePowerType",
          "name": "delegationType",
          "type": "uint8"
        }
      ],
      "name": "getPowerCurrent",
      "outputs": [
        {
          "internalType": "uint256",
          "name": "",
          "type": "uint256"
        }
      ],
      "stateMutability": "view",
      "type": "function"
    },
    {
      "inputs": [
        {
          "internalType": "address",
          "name": "user",
          "type": "address"
        }
      ],
      "name": "getPowersCurrent",
      "outputs": [
        {
          "internalType": "uint256",
          "name": "",
          "type": "uint256"
        },
        {
          "internalType": "uint256",
          "name": "",
          "type": "uint256"
        }
      ],
      "stateMutability": "view",
      "type": "function"
    },
    {
      "inputs": [
        {
          "internalType": "address",
          "name": "staker",
          "type": "address"
        }
      ],
      "name": "getTotalRewardsBalance",
      "outputs": [
        {
          "internalType": "uint256",
          "name": "",
          "type": "uint256"
        }
      ],
      "stateMutability": "view",
      "type": "function"
    },
    {
      "inputs": [
        {
          "internalType": "address",
          "name": "user",
          "type": "address"
        },
        {
          "internalType": "address",
          "name": "asset",
          "type": "address"
        }
      ],
      "name": "getUserAssetData",
      "outputs": [
        {
          "internalType": "uint256",
          "name": "",
          "type": "uint256"
        }
      ],
      "stateMutability": "view",
      "type": "function"
    },
    {
      "inputs": [],
      "name": "ghoDebtToken",
      "outputs": [
        {
          "internalType": "contract IGhoVariableDebtTokenTransferHook",
          "name": "",
          "type": "address"
        }
      ],
      "stateMutability": "view",
      "type": "function"
    },
    {
      "inputs": [],
      "name": "inPostSlashingPeriod",
      "outputs": [
        {
          "internalType": "bool",
          "name": "",
          "type": "bool"
        }
      ],
      "stateMutability": "view",
      "type": "function"
    },
    {
      "inputs": [
        {
          "internalType": "address",
          "name": "spender",
          "type": "address"
        },
        {
          "internalType": "uint256",
          "name": "addedValue",
          "type": "uint256"
        }
      ],
      "name": "increaseAllowance",
      "outputs": [
        {
          "internalType": "bool",
          "name": "",
          "type": "bool"
        }
      ],
      "stateMutability": "nonpayable",
      "type": "function"
    },
    {
      "inputs": [],
      "name": "initialize",
      "outputs": [],
      "stateMutability": "nonpayable",
      "type": "function"
    },
    {
      "inputs": [
        {
          "internalType": "address",
          "name": "delegator",
          "type": "address"
        },
        {
          "internalType": "address",
          "name": "delegatee",
          "type": "address"
        },
        {
          "internalType": "uint256",
          "name": "deadline",
          "type": "uint256"
        },
        {
          "internalType": "uint8",
          "name": "v",
          "type": "uint8"
        },
        {
          "internalType": "bytes32",
          "name": "r",
          "type": "bytes32"
        },
        {
          "internalType": "bytes32",
          "name": "s",
          "type": "bytes32"
        }
      ],
      "name": "metaDelegate",
      "outputs": [],
      "stateMutability": "nonpayable",
      "type": "function"
    },
    {
      "inputs": [
        {
          "internalType": "address",
          "name": "delegator",
          "type": "address"
        },
        {
          "internalType": "address",
          "name": "delegatee",
          "type": "address"
        },
        {
          "internalType": "enum IGovernancePowerDelegationToken.GovernancePowerType",
          "name": "delegationType",
          "type": "uint8"
        },
        {
          "internalType": "uint256",
          "name": "deadline",
          "type": "uint256"
        },
        {
          "internalType": "uint8",
          "name": "v",
          "type": "uint8"
        },
        {
          "internalType": "bytes32",
          "name": "r",
          "type": "bytes32"
        },
        {
          "internalType": "bytes32",
          "name": "s",
          "type": "bytes32"
        }
      ],
      "name": "metaDelegateByType",
      "outputs": [],
      "stateMutability": "nonpayable",
      "type": "function"
    },
    {
      "inputs": [],
      "name": "name",
      "outputs": [
        {
          "internalType": "string",
          "name": "",
          "type": "string"
        }
      ],
      "stateMutability": "view",
      "type": "function"
    },
    {
      "inputs": [
        {
          "internalType": "address",
          "name": "owner",
          "type": "address"
        },
        {
          "internalType": "address",
          "name": "spender",
          "type": "address"
        },
        {
          "internalType": "uint256",
          "name": "value",
          "type": "uint256"
        },
        {
          "internalType": "uint256",
          "name": "deadline",
          "type": "uint256"
        },
        {
          "internalType": "uint8",
          "name": "v",
          "type": "uint8"
        },
        {
          "internalType": "bytes32",
          "name": "r",
          "type": "bytes32"
        },
        {
          "internalType": "bytes32",
          "name": "s",
          "type": "bytes32"
        }
      ],
      "name": "permit",
      "outputs": [],
      "stateMutability": "nonpayable",
      "type": "function"
    },
    {
      "inputs": [
        {
          "internalType": "uint256",
          "name": "shares",
          "type": "uint256"
        }
      ],
      "name": "previewRedeem",
      "outputs": [
        {
          "internalType": "uint256",
          "name": "",
          "type": "uint256"
        }
      ],
      "stateMutability": "view",
      "type": "function"
    },
    {
      "inputs": [
        {
          "internalType": "uint256",
          "name": "assets",
          "type": "uint256"
        }
      ],
      "name": "previewStake",
      "outputs": [
        {
          "internalType": "uint256",
          "name": "",
          "type": "uint256"
        }
      ],
      "stateMutability": "view",
      "type": "function"
    },
    {
      "inputs": [
        {
          "internalType": "address",
          "name": "to",
          "type": "address"
        },
        {
          "internalType": "uint256",
          "name": "amount",
          "type": "uint256"
        }
      ],
      "name": "redeem",
      "outputs": [],
      "stateMutability": "nonpayable",
      "type": "function"
    },
    {
      "inputs": [
        {
          "internalType": "address",
          "name": "from",
          "type": "address"
        },
        {
          "internalType": "address",
          "name": "to",
          "type": "address"
        },
        {
          "internalType": "uint256",
          "name": "amount",
          "type": "uint256"
        }
      ],
      "name": "redeemOnBehalf",
      "outputs": [],
      "stateMutability": "nonpayable",
      "type": "function"
    },
    {
      "inputs": [
        {
          "internalType": "uint256",
          "name": "amount",
          "type": "uint256"
        }
      ],
      "name": "returnFunds",
      "outputs": [],
      "stateMutability": "nonpayable",
      "type": "function"
    },
    {
      "inputs": [
        {
          "internalType": "uint256",
          "name": "cooldownSeconds",
          "type": "uint256"
        }
      ],
      "name": "setCooldownSeconds",
      "outputs": [],
      "stateMutability": "nonpayable",
      "type": "function"
    },
    {
      "inputs": [
        {
          "internalType": "contract IGhoVariableDebtTokenTransferHook",
          "name": "newGHODebtToken",
          "type": "address"
        }
      ],
      "name": "setGHODebtToken",
      "outputs": [],
      "stateMutability": "nonpayable",
      "type": "function"
    },
    {
      "inputs": [
        {
          "internalType": "uint256",
          "name": "percentage",
          "type": "uint256"
        }
      ],
      "name": "setMaxSlashablePercentage",
      "outputs": [],
      "stateMutability": "nonpayable",
      "type": "function"
    },
    {
      "inputs": [
        {
          "internalType": "uint256",
          "name": "role",
          "type": "uint256"
        },
        {
          "internalType": "address",
          "name": "newPendingAdmin",
          "type": "address"
        }
      ],
      "name": "setPendingAdmin",
      "outputs": [],
      "stateMutability": "nonpayable",
      "type": "function"
    },
    {
      "inputs": [],
      "name": "settleSlashing",
      "outputs": [],
      "stateMutability": "nonpayable",
      "type": "function"
    },
    {
      "inputs": [
        {
          "internalType": "address",
          "name": "destination",
          "type": "address"
        },
        {
          "internalType": "uint256",
          "name": "amount",
          "type": "uint256"
        }
      ],
      "name": "slash",
      "outputs": [
        {
          "internalType": "uint256",
          "name": "",
          "type": "uint256"
        }
      ],
      "stateMutability": "nonpayable",
      "type": "function"
    },
    {
      "inputs": [
        {
          "internalType": "address",
          "name": "to",
          "type": "address"
        },
        {
          "internalType": "uint256",
          "name": "amount",
          "type": "uint256"
        }
      ],
      "name": "stake",
      "outputs": [],
      "stateMutability": "nonpayable",
      "type": "function"
    },
    {
      "inputs": [
        {
          "internalType": "address",
          "name": "from",
          "type": "address"
        },
        {
          "internalType": "uint256",
          "name": "amount",
          "type": "uint256"
        },
        {
          "internalType": "uint256",
          "name": "deadline",
          "type": "uint256"
        },
        {
          "internalType": "uint8",
          "name": "v",
          "type": "uint8"
        },
        {
          "internalType": "bytes32",
          "name": "r",
          "type": "bytes32"
        },
        {
          "internalType": "bytes32",
          "name": "s",
          "type": "bytes32"
        }
      ],
      "name": "stakeWithPermit",
      "outputs": [],
      "stateMutability": "nonpayable",
      "type": "function"
    },
    {
      "inputs": [
        {
          "internalType": "address",
          "name": "",
          "type": "address"
        }
      ],
      "name": "stakerRewardsToClaim",
      "outputs": [
        {
          "internalType": "uint256",
          "name": "",
          "type": "uint256"
        }
      ],
      "stateMutability": "view",
      "type": "function"
    },
    {
      "inputs": [
        {
          "internalType": "address",
          "name": "",
          "type": "address"
        }
      ],
      "name": "stakersCooldowns",
      "outputs": [
        {
          "internalType": "uint40",
          "name": "timestamp",
          "type": "uint40"
        },
        {
          "internalType": "uint216",
          "name": "amount",
          "type": "uint216"
        }
      ],
      "stateMutability": "view",
      "type": "function"
    },
    {
      "inputs": [],
      "name": "symbol",
      "outputs": [
        {
          "internalType": "string",
          "name": "",
          "type": "string"
        }
      ],
      "stateMutability": "view",
      "type": "function"
    },
    {
      "inputs": [],
      "name": "totalSupply",
      "outputs": [
        {
          "internalType": "uint256",
          "name": "",
          "type": "uint256"
        }
      ],
      "stateMutability": "view",
      "type": "function"
    },
    {
      "inputs": [
        {
          "internalType": "address",
          "name": "to",
          "type": "address"
        },
        {
          "internalType": "uint256",
          "name": "amount",
          "type": "uint256"
        }
      ],
      "name": "transfer",
      "outputs": [
        {
          "internalType": "bool",
          "name": "",
          "type": "bool"
        }
      ],
      "stateMutability": "nonpayable",
      "type": "function"
    },
    {
      "inputs": [
        {
          "internalType": "address",
          "name": "from",
          "type": "address"
        },
        {
          "internalType": "address",
          "name": "to",
          "type": "address"
        },
        {
          "internalType": "uint256",
          "name": "amount",
          "type": "uint256"
        }
      ],
      "name": "transferFrom",
      "outputs": [
        {
          "internalType": "bool",
          "name": "",
          "type": "bool"
        }
      ],
      "stateMutability": "nonpayable",
      "type": "function"
    }
  ],
  "bytecode": {
    "object": "0x61024060405260006009553480156200001757600080fd5b5060405162005857380380620058578339810160408190526200003a9162000294565b8585858585858585858585856040518060400160405280600b81526020016a5374616b6564204161766560a81b815250604051806040016040528060018152602001601960f91b81525083836001600160801b031680426200009d91906200033d565b608052506001600160a01b031660a052620000b8826200022a565b61016052620000c7816200022a565b61018052815160208084019190912061012052815190820120610140524660e052620001576101205161014051604080517f8b73c3c69bb8fe3d512ecc4cf759cc79239f7b179b0ffacaa9a75d522b39400f60208201529081019290925260608201524660808201523060a082015260009060c00160405160208183030381529060405280519060200120905090565b60c0525050306101005250506001600160a01b039384166101a0529183166101c0526101e052166102005260066009819055506000866001600160a01b031663313ce5676040518163ffffffff1660e01b8152600401602060405180830381865afa158015620001cb573d6000803e3d6000fd5b505050506040513d601f19601f82011682018060405250810190620001f1919062000359565b60ff1690506200020381600a62000482565b61022052506200021a955050620002769350505050565b6009555062000508945050505050565b600080829050601f8151111562000261578260405163305a27a960e01b815260040162000258919062000490565b60405180910390fd5b80516200026e82620004e0565b179392505050565b600690565b6001600160a01b03811681146200029157600080fd5b50565b60008060008060008060c08789031215620002ae57600080fd5b8651620002bb816200027b565b6020880151909650620002ce816200027b565b604088015160608901519196509450620002e8816200027b565b6080880151909350620002fb816200027b565b60a08801519092506001600160801b03811681146200031957600080fd5b809150509295509295509295565b634e487b7160e01b600052601160045260246000fd5b8082018082111562000353576200035362000327565b92915050565b6000602082840312156200036c57600080fd5b815160ff811681146200037e57600080fd5b9392505050565b600181815b80851115620003c6578160001904821115620003aa57620003aa62000327565b80851615620003b857918102915b93841c93908002906200038a565b509250929050565b600082620003df5750600162000353565b81620003ee5750600062000353565b8160018114620004075760028114620004125762000432565b600191505062000353565b60ff84111562000426576200042662000327565b50506001821b62000353565b5060208310610133831016604e8410600b841016171562000457575081810a62000353565b62000463838362000385565b80600019048211156200047a576200047a62000327565b029392505050565b60006200037e8383620003ce565b600060208083528351808285015260005b81811015620004bf57858101830151858201604001528201620004a1565b506000604082860101526040601f19601f8301168501019250505092915050565b8051602080830151919081101562000502576000198160200360031b1b821691505b50919050565b60805160a05160c05160e05161010051610120516101405161016051610180516101a0516101c0516101e051610200516102205161523062000627600039600081816107f701528181610d30015281816110d8015261114901526000818161094701526128130152600081816106de01526122e4015260008181610989015281816127f1015261322301526000818161066401528181610dd9015281816111db015281816114ca0152818161252001528181612f3e01526131f901526000613063015260006130c301526000612c2601526000612bfe01526000612b5901526000612b8301526000612bad015260008181610acd0152611b33015260008181610920015281816143220152818161435e015261438b01526152306000f3fe608060405234801561001057600080fd5b50600436106104755760003560e01c8063787a08a611610257578063aaf5eb6811610146578063dbc0ed8a116100c3578063eab5231811610087578063eab5231814610b6e578063f036bc6814610b81578063f11b818814610b95578063f34d96da14610bf7578063fde9eb6914610bff57600080fd5b8063dbc0ed8a14610b02578063dc937e1c14610b0a578063dd62ed3e14610b1d578063dde43cba14610b56578063e6aa216c14610b5d57600080fd5b8063b2f4201d1161010a578063b2f4201d14610a82578063b9844d8d14610a95578063c18f539a14610ab5578063cbcbb50714610ac8578063d505accf14610aef57600080fd5b8063aaf5eb6814610a39578063ab406fe614610a41578063adc9772e14610a54578063aff05aa914610a67578063b2a5dbfa14610a6f57600080fd5b8063955e18af116101d45780639e3ffce0116101985780639e3ffce0146109d1578063a095ac19146109d9578063a457c2d7146109ec578063a9059cbb146109ff578063aa9fbe0214610a1257600080fd5b8063955e18af1461096957806395d89b411461097c57806399248ea7146109845780639a99b4f0146109ab5780639c9b5154146109be57600080fd5b80638c9a281d1161021b5780638c9a281d146108f15780638dbefee2146108f95780638e9b2ca41461090c578063919cd40f1461091b578063946776cd1461094257600080fd5b8063787a08a6146108935780637b5b11571461089b5780637e90d7ef146108ae5780638129fc1c146108ce57806384b0196e146108d657600080fd5b80633644e51511610373578063616e0bf9116102f0578063727a5d57116102b4578063727a5d571461085257806372b49d63146107ea57806373d6a8891461086557806374011f5614610878578063781603761461088b57600080fd5b8063616e0bf9146107ea5780636198e135146107f2578063657f0cde146108195780636f50458d1461082c57806370a082311461083f57600080fd5b80634998fffd116103375780634998fffd1461077e5780634cdad50614610791578063570a9714146107a457806358146d17146107b05780635c19a95c146107d757600080fd5b80633644e51514610700578063395093511461070857806341cbf54a1461071b57806345755dd6146107425780634575e69b1461075557600080fd5b80631e9a69501161040157806330adf81f116103c557806330adf81f14610638578063312f6b831461065f578063313ce567146106865780633373ee4c1461069b578063359c4a96146106d957600080fd5b80631e9a6950146105c457806320fb80b5146105d757806323b872dd146105ea578063250201db146105fd5780632a8b36681461061057600080fd5b8063111fd88b11610448578063111fd88b14610536578063112d037c14610561578063169db77d14610576578063174ed542146105a957806318160ddd146105bc57600080fd5b806302fb4d851461047a57806306fdde03146104a0578063091030c3146104b5578063095ea7b314610513575b600080fd5b61048d610488366004614820565b610c12565b6040519081526020015b60405180910390f35b6104a8610e50565b604051610497919061489c565b6104ee6104c33660046148af565b603e6020526000908152604090205464ffffffffff811690600160281b90046001600160d81b031682565b6040805164ffffffffff90931683526001600160d81b03909116602083015201610497565b610526610521366004614820565b610ee2565b6040519015158152602001610497565b6105496105443660046148cc565b610efa565b6040516001600160a01b039091168152602001610497565b61057461056f3660046148e5565b610f15565b005b6105896105843660046148af565b610f67565b604080516001600160a01b03938416815292909116602083015201610497565b605354610549906001600160a01b031681565b60025461048d565b6105746105d2366004614820565b610f99565b61048d6105e53660046148e5565b610fab565b6105266105f83660046148e5565b610ffc565b61057461060b3660046148af565b611020565b61062361061e3660046148af565b611066565b60408051928352602083019190915201610497565b61048d7f6e71edae12b1b97f4d1f60370fef10105fa2faae0126114a169c64845d6126c981565b6105497f000000000000000000000000000000000000000000000000000000000000000081565b60125b60405160ff9091168152602001610497565b61048d6106a9366004614926565b6001600160a01b038082166000908152603c60209081526040808320938616835260029093019052205492915050565b61048d7f000000000000000000000000000000000000000000000000000000000000000081565b61048d611088565b610526610716366004614820565b611097565b61048d7fd46e8b93b5190df6403875402a5c13897b72d2a576da5d1bfea20a63638d216e81565b6105746107503660046148cc565b6110d6565b6105496107633660046148cc565b6000908152604660205260409020546001600160a01b031690565b61057461078c3660046148af565b61123b565b61048d61079f3660046148cc565b6112a5565b61048d6402540be40081565b6107bf670de0b6b3a764000081565b6040516001600160d81b039091168152602001610497565b6105746107e53660046148af565b6112d0565b604f5461048d565b61048d7f000000000000000000000000000000000000000000000000000000000000000081565b610574610827366004614984565b6112e8565b61054961083a3660046149f9565b611424565b61048d61084d3660046148af565b611439565b61048d6108603660046148cc565b61145d565b610574610873366004614a2e565b611480565b6105746108863660046148cc565b611539565b6104a861157c565b610574611586565b6105746108a93660046148cc565b611591565b61048d6108bc3660046148af565b603d6020526000908152604090205481565b610574611604565b6108de611674565b6040516104979796959493929190614a88565b61048d600081565b61048d6109073660046148af565b6116ba565b61048d670de0b6b3a764000081565b61048d7f000000000000000000000000000000000000000000000000000000000000000081565b6105497f000000000000000000000000000000000000000000000000000000000000000081565b61048d610977366004614820565b611795565b6104a86117a2565b6105497f000000000000000000000000000000000000000000000000000000000000000081565b6105746109b9366004614820565b6117b1565b6105746109cc366004614b1e565b6117bc565b61048d600181565b6105746109e7366004614b64565b611816565b6105266109fa366004614820565b611948565b610526610a0d366004614820565b6119da565b61048d7f6e77642f8f60cdece0498bfeeb2f06ccfef0e8f86d28a1b6255c5e48f1d72a0381565b610689601281565b610574610a4f366004614bad565b6119e8565b610574610a62366004614820565b611aab565b610574611ab6565b610574610a7d366004614c42565b611b28565b61048d610a903660046149f9565b611be3565b61048d610aa33660046148af565b60446020526000908152604090205481565b61048d610ac33660046148e5565b611c27565b6105497f000000000000000000000000000000000000000000000000000000000000000081565b610574610afd366004614d29565b611c6e565b61048d600281565b610574610b183660046149f9565b611db5565b61048d610b2b366004614926565b6001600160a01b03918216600090815260016020908152604080832093909416825291909152205490565b600661048d565b6051546001600160d81b03166107bf565b610574610b7c366004614d7b565b611dc0565b60515461052690600160d81b900460ff1681565b610bd1610ba33660046148af565b603c60205260009081526040902080546001909101546001600160801b0380831692600160801b9004169083565b604080516001600160801b03948516815293909216602084015290820152606001610497565b60505461048d565b610574610c0d3660046148cc565b611dda565b6000610c1e6000610efa565b6001600160a01b0316336001600160a01b031614610c575760405162461bcd60e51b8152600401610c4e90614db0565b60405180910390fd5b605154600160d81b900460ff1615610cb15760405162461bcd60e51b815260206004820152601d60248201527f50524556494f55535f534c415348494e475f4e4f545f534554544c45440000006044820152606401610c4e565b60008211610cef5760405162461bcd60e51b815260206004820152600b60248201526a16915493d7d05353d5539560aa1b6044820152606401610c4e565b6000610cfa60025490565b90506000610d07826112a5565b90506000610d2060505483611eab90919063ffffffff16565b905080851115610d2e578094505b7f0000000000000000000000000000000000000000000000000000000000000000610d598684614dfd565b1015610d9e5760405162461bcd60e51b815260206004820152601460248201527352454d41494e494e475f4c545f4d494e494d554d60601b6044820152606401610c4e565b6051805460ff60d81b1916600160d81b179055610dcc610dc7610dc18785614dfd565b85611f2d565b611f6b565b610e006001600160a01b037f000000000000000000000000000000000000000000000000000000000000000016878761200e565b856001600160a01b03167f4ed05e9673c26d2ed44f7ef6a7f2942df0ee3b5e1e17db4b99f9dcd261a339cd86604051610e3b91815260200190565b60405180910390a28493505050505b92915050565b606060038054610e5f90614e10565b80601f0160208091040260200160405190810160405280929190818152602001828054610e8b90614e10565b8015610ed85780601f10610ead57610100808354040283529160200191610ed8565b820191906000526020600020905b815481529060010190602001808311610ebb57829003601f168201915b5050505050905090565b600033610ef0818585612071565b5060019392505050565b6000908152604560205260409020546001600160a01b031690565b610f1f6002610efa565b6001600160a01b0316336001600160a01b031614610f4f5760405162461bcd60e51b8152600401610c4e90614e4a565b610f628383610f5d84612196565b612203565b505050565b6000806000610f75846125a7565b9050610f83848260006126aa565b610f8f858360016126aa565b9250925050915091565b610fa73383610f5d84612196565b5050565b6000610fb76002610efa565b6001600160a01b0316336001600160a01b031614610fe75760405162461bcd60e51b8152600401610c4e90614e4a565b610ff2848484612757565b90505b9392505050565b60003361100a85828561288f565b61101585858561291b565b506001949350505050565b61102a6002610efa565b6001600160a01b0316336001600160a01b03161461105a5760405162461bcd60e51b8152600401610c4e90614e4a565b61106381612a69565b50565b600080611074836000611be3565b61107f846001611be3565b91509150915091565b6000611092612b4c565b905090565b3360008181526001602090815260408083206001600160a01b0387168452909152812054909190610ef090829086906110d1908790614e81565b612071565b7f000000000000000000000000000000000000000000000000000000000000000081101561113a5760405162461bcd60e51b8152602060048201526011602482015270414d4f554e545f4c545f4d494e494d554d60781b6044820152606401610c4e565b600061114560025490565b90507f00000000000000000000000000000000000000000000000000000000000000008110156111ab5760405162461bcd60e51b81526020600482015260116024820152705348415245535f4c545f4d494e494d554d60781b6044820152606401610c4e565b60006111b6826112a5565b90506111ce610dc76111c88584614e81565b84611f2d565b6112036001600160a01b037f000000000000000000000000000000000000000000000000000000000000000016333086612c77565b6040518381527f278e51d3323fbf18b9fb8df3f8b97e31b145bc1146c52e764cf4aa1bfc4ba17d9060200160405180910390a1505050565b73ee56e2b3d491590b5b31738cc34d5232f378a8d5331461125b57600080fd5b605380546001600160a01b0319166001600160a01b0383169081179091556040517f62bbced765bccc9ed93d0bae1b2a8c86e13b4663f8bf27d5936d9d619194c8a990600090a250565b6051546000906001600160d81b03166112c683670de0b6b3a7640000614e94565b610e4a9190614eab565b6112dc33826000612caf565b61106333826001612caf565b6001600160a01b03871661130e5760405162461bcd60e51b8152600401610c4e90614ecd565b8342111561132e5760405162461bcd60e51b8152600401610c4e90614ef4565b60006113d161133b612dd7565b7f6e77642f8f60cdece0498bfeeb2f06ccfef0e8f86d28a1b6255c5e48f1d72a038a8a8a6113868e6001600160a01b0316600090815260446020526040902080546001810190915590565b8b60405160200161139c96959493929190614f58565b6040516020818303038152906040528051906020012060405161190160f01b8152600281019290925260228201526042902090565b90506113df81858585612de1565b6001600160a01b0316886001600160a01b03161461140f5760405162461bcd60e51b8152600401610c4e90614f97565b61141a888888612caf565b5050505050505050565b6000610ff583611433856125a7565b846126aa565b6001600160a01b03166000908152602081905260409020546001600160681b031690565b605154600090670de0b6b3a7640000906112c6906001600160d81b031684614e94565b60405163d505accf60e01b81526001600160a01b038781166004830152306024830152604482018790526064820186905260ff8516608483015260a4820184905260c482018390527f0000000000000000000000000000000000000000000000000000000000000000169063d505accf9060e401600060405180830381600087803b15801561150e57600080fd5b505af1158015611522573d6000803e3d6000fd5b50505050611531868787612e11565b505050505050565b6115436000610efa565b6001600160a01b0316336001600160a01b0316146115735760405162461bcd60e51b8152600401610c4e90614db0565b61106381612fd6565b606061109261305c565b61158f33612a69565b565b61159b6001610efa565b6001600160a01b0316336001600160a01b0316146115fb5760405162461bcd60e51b815260206004820152601960248201527f43414c4c45525f4e4f545f434f4f4c444f574e5f41444d494e000000000000006044820152606401610c4e565b61106381613087565b600954600690811161166f5760405162461bcd60e51b815260206004820152602e60248201527f436f6e747261637420696e7374616e63652068617320616c726561647920626560448201526d195b881a5b9a5d1a585b1a5e995960921b6064820152608401610c4e565b600955565b6000606080600080600060606116886130bc565b61169061305c565b60408051600080825260208201909252600f60f81b9b939a50919850469750309650945092509050565b604080516001808252818301909252600091829190816020015b611701604051806060016040528060006001600160a01b0316815260200160008152602001600081525090565b8152602001906001900390816116d45790505090506040518060600160405280306001600160a01b0316815260200161173985611439565b815260200161174760025490565b8152508160008151811061175d5761175d614fc2565b602002602001018190525061177283826130e7565b6001600160a01b0384166000908152603d6020526040902054610ff59190614e81565b6000610ff53384846131f5565b606060048054610e5f90614e10565b610f62338383612757565b6117c66002610efa565b6001600160a01b0316336001600160a01b0316146117f65760405162461bcd60e51b8152600401610c4e90614e4a565b611801848484612757565b506118108484610f5d84612196565b50505050565b6001600160a01b03861661183c5760405162461bcd60e51b8152600401610c4e90614ecd565b8342111561185c5760405162461bcd60e51b8152600401610c4e90614ef4565b60006118e9611869612dd7565b7fd46e8b93b5190df6403875402a5c13897b72d2a576da5d1bfea20a63638d216e89896118b38c6001600160a01b0316600090815260446020526040902080546001810190915590565b6040805160208101959095526001600160a01b039384169085015291166060830152608082015260a0810188905260c00161139c565b90506118f781858585612de1565b6001600160a01b0316876001600160a01b0316146119275760405162461bcd60e51b8152600401610c4e90614f97565b61193387876000612caf565b61193f87876001612caf565b50505050505050565b3360008181526001602090815260408083206001600160a01b0387168452909152812054909190838110156119cd5760405162461bcd60e51b815260206004820152602560248201527f45524332303a2064656372656173656420616c6c6f77616e63652062656c6f77604482015264207a65726f60d81b6064820152608401610c4e565b6110158286868403612071565b600033610ef081858561291b565b60008281526045602052604090205482906001600160a01b03163314611a485760405162461bcd60e51b815260206004820152601560248201527421a0a62622a92fa727aa2fa927a622afa0a226a4a760591b6044820152606401610c4e565b60008381526046602090815260409182902080546001600160a01b0319166001600160a01b03861690811790915591518581527fc3d1bf52795a20771ee6de3e59948fd83e10db956122d4709a3b86c512963855910160405180910390a2505050565b610fa7338383612e11565b611ac06000610efa565b6001600160a01b0316336001600160a01b031614611af05760405162461bcd60e51b8152600401610c4e90614db0565b6051805460ff60d81b191690556040517fcdee157e87ba915be681d4fa3f3d511afe7348eca06448a3accd6ac227fa40af90600090a1565b336001600160a01b037f00000000000000000000000000000000000000000000000000000000000000001614611b985760405162461bcd60e51b815260206004820152601560248201527427a7262cafa2a6a4a9a9a4a7a72fa6a0a720a3a2a960591b6044820152606401610c4e565b60005b8151811015611bd957600254828281518110611bb957611bb9614fc2565b602090810291909101810151015280611bd181614fd8565b915050611b9b565b50611063816132e9565b6000611bf76051546001600160d81b031690565b6001600160d81b0316670de0b6b3a7640000611c138585613457565b611c1d9190614e94565b610ff59190614eab565b6000611c336002610efa565b6001600160a01b0316336001600160a01b031614611c635760405162461bcd60e51b8152600401610c4e90614e4a565b610ff28484846131f5565b6001600160a01b038716611c945760405162461bcd60e51b8152600401610c4e90614ecd565b83421115611cb45760405162461bcd60e51b8152600401610c4e90614ef4565b6001600160a01b0387811660008181526044602090815260408083205481517f6e71edae12b1b97f4d1f60370fef10105fa2faae0126114a169c64845d6126c9938101939093529082019390935292891660608401526080830188905260a0830182905260c083018790529091611d439060e001604051602081830303815290604052805190602001206134d9565b9050611d5181868686612de1565b6001600160a01b0316896001600160a01b031614611d815760405162461bcd60e51b8152600401610c4e90614f97565b6001600160a01b0389166000908152604460205260409020600183019055611daa898989612071565b505050505050505050565b610fa7338383612caf565b611dcb338484612757565b50610f623384610f5d84612196565b60008181526046602052604090205481906001600160a01b03163314611e425760405162461bcd60e51b815260206004820152601d60248201527f43414c4c45525f4e4f545f50454e44494e475f524f4c455f41444d494e0000006044820152606401610c4e565b60008281526045602090815260408083208054336001600160a01b0319918216811790925560468452938290208054909416909355518481527f83a9ddad961dcb7c6894c9585a16ff7792c2ec8281256a3cc7303ae830152dcf91015b60405180910390a25050565b6000821580611eb8575081155b15611ec557506000610e4a565b611ed182600019614eab565b831115611f205760405162461bcd60e51b815260206004820152601c60248201527f4d4154485f4d554c5449504c49434154494f4e5f4f564552464c4f57000000006044820152606401610c4e565b612710611c1d8385614e94565b6000610ff583600181611f48670de0b6b3a764000087614e94565b611f529190614e81565b611f5c9190614dfd565b611f669190614eab565b613506565b806001600160d81b0316600003611fb95760405162461bcd60e51b81526020600482015260126024820152715a45524f5f45584348414e47455f5241544560701b6044820152606401610c4e565b605180546001600160d81b0319166001600160d81b0383169081179091556040519081527fa9c433f9734baa3cf48b209454bb0ace054e191f677ba50e74b696c0d35ef262906020015b60405180910390a150565b6040516001600160a01b038316602482015260448101829052610f6290849063a9059cbb60e01b906064015b60408051601f198184030181529190526020810180516001600160e01b03166001600160e01b03199093169290921790915261356f565b6001600160a01b0383166120d35760405162461bcd60e51b8152602060048201526024808201527f45524332303a20617070726f76652066726f6d20746865207a65726f206164646044820152637265737360e01b6064820152608401610c4e565b6001600160a01b0382166121345760405162461bcd60e51b815260206004820152602260248201527f45524332303a20617070726f766520746f20746865207a65726f206164647265604482015261737360f01b6064820152608401610c4e565b6001600160a01b0383811660008181526001602090815260408083209487168084529482529182902085905590518481527f8c5be1e5ebec7d5bd14f71427d1e84f3dd0314c0f7b2291e5b200ac8c7c3b92591015b60405180910390a3505050565b60006001600160681b038211156121ff5760405162461bcd60e51b815260206004820152602760248201527f53616665436173743a2076616c756520646f65736e27742066697420696e20316044820152663034206269747360c81b6064820152608401610c4e565b5090565b806001600160681b031660000361222c5760405162461bcd60e51b8152600401610c4e90614ff1565b6001600160a01b0383166000908152603e602090815260409182902082518084019093525464ffffffffff81168352600160281b90046001600160d81b031690820152605154600160d81b900460ff1661236c57604f548151612296919064ffffffffff16614e81565b4210156122dd5760405162461bcd60e51b815260206004820152601560248201527424a729aaa32324a1a4a2a72a2fa1a7a7a62227aba760591b6044820152606401610c4e565b604f5481517f0000000000000000000000000000000000000000000000000000000000000000916123149164ffffffffff16614e81565b61231e9042614dfd565b111561236c5760405162461bcd60e51b815260206004820152601760248201527f554e5354414b455f57494e444f575f46494e49534845440000000000000000006044820152606401610c4e565b600061237785611439565b605154909150600090600160d81b900460ff166123a15782602001516001600160d81b03166123a3565b815b9050806000036123f55760405162461bcd60e51b815260206004820152601b60248201527f494e56414c49445f5a45524f5f4d41585f52454445454d41424c4500000000006044820152606401610c4e565b600081856001600160681b03161161241657846001600160681b0316612418565b815b905061242687846001613641565b506000612432826112a5565b90506124468861244184612196565b6136f0565b845164ffffffffff1615612513578185602001516001600160d81b031661246d9190614dfd565b600003612492576001600160a01b0388166000908152603e6020526040812055612513565b61249b82613865565b6001600160a01b0389166000908152603e60205260409020546124d7916001600160b81b031690600160281b90046001600160d81b031661501e565b6001600160a01b0389166000908152603e6020526040902080546001600160d81b0392909216600160281b0264ffffffffff9092169190911790555b6125476001600160a01b037f000000000000000000000000000000000000000000000000000000000000000016888361200e565b866001600160a01b0316886001600160a01b03167f3f693fff038bb8a046aa76d9516190ac7444f7d69cf952c4cbdc086fdef2d6fc8385604051612595929190918252602082015260400190565b60405180910390a35050505050505050565b6125c860408051606081018252600080825260208201819052909182015290565b6001600160a01b038216600090815260208181526040808320815160808101835281546001600160681b03811682526001600160481b03600160681b8204811695830195909552600160b01b8104909416928101929092529091606083019060ff600160f81b90910416600381111561264357612643614f20565b600381111561265457612654614f20565b815250509050604051806060016040528082602001516001600160481b0316815260200182604001516001600160481b03168152602001826060015160038111156126a1576126a1614f20565b90529392505050565b6000808260018111156126bf576126bf614f20565b03612711576001836040015160038111156126dc576126dc614f20565b1660ff166000036126ee57600061270a565b6001600160a01b03808516600090815260476020526040902054165b9050610ff5565b60028360400151600381111561272957612729614f20565b1015612736576000610ff2565b5050506001600160a01b039081166000908152604860205260409020541690565b6000816000036127795760405162461bcd60e51b8152600401610c4e90614ff1565b600061278f8561278887611439565b6000613641565b905060008184116127a057836127a2565b815b9050806000036127c45760405162461bcd60e51b8152600401610c4e90614ff1565b6127ce8183614dfd565b6001600160a01b038088166000908152603d6020526040902091909155612839907f0000000000000000000000000000000000000000000000000000000000000000167f00000000000000000000000000000000000000000000000000000000000000008784612c77565b846001600160a01b0316866001600160a01b03167f9310ccfcb8de723f578a9e4282ea9f521f05ae40dc08f3068dfad528a65ee3c78360405161287e91815260200190565b60405180910390a395945050505050565b6001600160a01b038381166000908152600160209081526040808320938616835292905220546000198114611810578181101561290e5760405162461bcd60e51b815260206004820152601d60248201527f45524332303a20696e73756666696369656e7420616c6c6f77616e63650000006044820152606401610c4e565b6118108484848403612071565b600061292684611439565b905061293484826001613641565b50826001600160a01b0316846001600160a01b031614612a4157600061295984611439565b905061296784826001613641565b506001600160a01b0385166000908152603e602090815260409182902082518084019093525464ffffffffff8116808452600160281b9091046001600160d81b03169183019190915215612a3e578383036129da576001600160a01b0386166000908152603e6020526040812055612a3e565b60208101516001600160d81b03166129f28585614dfd565b1015612a3e57612a028484614dfd565b6001600160a01b0387166000908152603e6020526040902080546001600160d81b0392909216600160281b0264ffffffffff9092169190911790555b50505b612a5e8484612a4f876138ce565b612a58876138ce565b866138d9565b6118108484846139dd565b6000612a7482611439565b905080600003612ac65760405162461bcd60e51b815260206004820152601b60248201527f494e56414c49445f42414c414e43455f4f4e5f434f4f4c444f574e00000000006044820152606401610c4e565b60408051808201825264ffffffffff42811682526001600160d81b0380851660208085019182526001600160a01b0388166000818152603e9092529086902094519151909216600160281b0292169190911790915590517f8a05f911d8ab7fc50fec37ef4ba7f9bfcb1a3c191c81dcd824ad0946c4e20d6590611e9f9084815260200190565b6000306001600160a01b037f000000000000000000000000000000000000000000000000000000000000000016148015612ba557507f000000000000000000000000000000000000000000000000000000000000000046145b15612bcf57507f000000000000000000000000000000000000000000000000000000000000000090565b611092604080517f8b73c3c69bb8fe3d512ecc4cf759cc79239f7b179b0ffacaa9a75d522b39400f60208201527f0000000000000000000000000000000000000000000000000000000000000000918101919091527f000000000000000000000000000000000000000000000000000000000000000060608201524660808201523060a082015260009060c00160405160208183030381529060405280519060200120905090565b6040516001600160a01b03808516602483015283166044820152606481018290526118109085906323b872dd60e01b9060840161203a565b6000836001600160a01b0316836001600160a01b031614612cd05782612cd3565b60005b90506000612ce0856125a7565b90506000612cef8683866126aa565b9050806001600160a01b0316836001600160a01b031603612d1257505050505050565b6001600160a01b03818116151590841615156000612d2f896138ce565b90508215612d4457612d44816000868a613c06565b8115612d5757612d57600082888a613c06565b612d62898888613cd0565b82151582151514612d8157612d8189612d7c878a86613d73565b613e93565b856001600160a01b0316896001600160a01b03167fe8d51c8e11bd570db1734c8ec775785330e77007feed45c43b608ef33ff914bd89604051612dc49190615045565b60405180910390a3505050505050505050565b6000611092611088565b600080600080612df388888888613f33565b925092509250612e038282614002565b50909150505b949350505050565b605154600160d81b900460ff1615612e5e5760405162461bcd60e51b815260206004820152601060248201526f534c415348494e475f4f4e474f494e4760801b6044820152606401610c4e565b80600003612e7e5760405162461bcd60e51b8152600401610c4e90614ff1565b6000612e8983611439565b90506000612ea1843084612e9c60025490565b6140bb565b90508015612f24576001600160a01b0384166000908152603d6020526040902054612ecd908290614e81565b6001600160a01b0385166000818152603d60209081526040918290209390935580519182529181018390527f2468f9268c60ad90e2d49edb0032c8a001e733ae888b3ab8e982edf535be1a76910160405180910390a15b6000612f2f8461145d565b9050612f666001600160a01b037f000000000000000000000000000000000000000000000000000000000000000016873087612c77565b612f7885612f7383612196565b61417c565b846001600160a01b0316866001600160a01b03167f6c86f3fd5118b3aa8bb4f389a617046de0a3d3d477de1a1673d227f802f616dc8684604051612fc6929190918252602082015260400190565b60405180910390a3505050505050565b61271081106130275760405162461bcd60e51b815260206004820152601b60248201527f494e56414c49445f534c415348494e475f50455243454e5441474500000000006044820152606401610c4e565b60508190556040518181527fb79c2d6c7f5c95eec9dc05affc0ed002620a4ec6d72b7b0744cc8638168c600a90602001612003565b60606110927f00000000000000000000000000000000000000000000000000000000000000006142bb565b604f8190556040518181527fbbf67247b5c97564e30ffc0a355e71c006836de7b9149e09e3d5d6054cb0335590602001612003565b60606110927f00000000000000000000000000000000000000000000000000000000000000006142bb565b600080805b83518110156131ed576000603c600086848151811061310d5761310d614fc2565b602090810291909101810151516001600160a01b03168252810191909152604001600090812060018101548154885192945061317b926001600160801b0380831692600160801b900416908a908890811061316a5761316a614fc2565b6020026020010151604001516142fa565b90506131cc86848151811061319257613192614fc2565b602002602001015160200151828460020160008b6001600160a01b03166001600160a01b0316815260200190815260200160002054614405565b6131d69085614e81565b9350505080806131e590614fd8565b9150506130ec565b509392505050565b60007f00000000000000000000000000000000000000000000000000000000000000006001600160a01b03167f00000000000000000000000000000000000000000000000000000000000000006001600160a01b0316146132985760405162461bcd60e51b815260206004820181905260248201527f5245574152445f544f4b454e5f49535f4e4f545f5354414b45445f544f4b454e6044820152606401610c4e565b60006132ae856132a787611439565b6001613641565b905060008184116132bf57836132c1565b815b905080156132e0576132d4863083612757565b506132e0308683612e11565b95945050505050565b60005b8151811015610fa7576000603c600084848151811061330d5761330d614fc2565b6020026020010151604001516001600160a01b03166001600160a01b03168152602001908152602001600020905061338083838151811061335057613350614fc2565b6020026020010151604001518285858151811061336f5761336f614fc2565b602002602001015160200151614431565b5082828151811061339357613393614fc2565b60209081029190910101515181546fffffffffffffffffffffffffffffffff19166001600160801b0390911617815582518390839081106133d6576133d6614fc2565b6020026020010151604001516001600160a01b03167f87fa03892a0556cb6b8f97e6d533a150d4d55fcbf275fff5fa003fa636bcc7fa84848151811061341e5761341e614fc2565b602090810291909101810151516040516001600160801b0390911681520160405180910390a2508061344f81614fd8565b9150506132ec565b600080613463846125a7565b9050600083600181111561347957613479614f20565b613484906001615053565b8260400151600381111561349a5761349a614f20565b1660ff166000146134ac5760006134b5565b6134b5856138ce565b905060006134c383866144e9565b90506134cf8183614e81565b9695505050505050565b6000610e4a6134e6612b4c565b8360405161190160f01b8152600281019290925260228201526042902090565b60006001600160d81b038211156121ff5760405162461bcd60e51b815260206004820152602760248201527f53616665436173743a2076616c756520646f65736e27742066697420696e20326044820152663136206269747360c81b6064820152608401610c4e565b60006135c4826040518060400160405280602081526020017f5361666545524332303a206c6f772d6c6576656c2063616c6c206661696c6564815250856001600160a01b03166145289092919063ffffffff16565b805190915015610f6257808060200190518101906135e2919061506c565b610f625760405162461bcd60e51b815260206004820152602a60248201527f5361666545524332303a204552433230206f7065726174696f6e20646964206e6044820152691bdd081cdd58d8d9595960b21b6064820152608401610c4e565b600080613653853086612e9c60025490565b6001600160a01b0386166000908152603d60205260408120549192509061367b908390614e81565b905081156132e05783156136a5576001600160a01b0386166000908152603d602052604090208190555b604080516001600160a01b0388168152602081018490527f2468f9268c60ad90e2d49edb0032c8a001e733ae888b3ab8e982edf535be1a76910160405180910390a195945050505050565b6001600160a01b0382166137505760405162461bcd60e51b815260206004820152602160248201527f45524332303a206275726e2066726f6d20746865207a65726f206164647265736044820152607360f81b6064820152608401610c4e565b613765826000836001600160681b0316614537565b6001600160a01b0382166000908152602081905260409020546001600160681b039081169082168110156137e65760405162461bcd60e51b815260206004820152602260248201527f45524332303a206275726e20616d6f756e7420657863656564732062616c616e604482015261636560f01b6064820152608401610c4e565b6001600160a01b03831660008181526020818152604080832080546001600160681b0319168787036001600160681b03908116919091179091556002805491881691829003905590519081529192917fddf252ad1be2c89b69c2b068fc378daa952ba7f163c4a11628f55a4df523b3ef910160405180910390a3505050565b60006001600160b81b038211156121ff5760405162461bcd60e51b815260206004820152602760248201527f53616665436173743a2076616c756520646f65736e27742066697420696e20316044820152663834206269747360c81b6064820152608401610c4e565b6000610e4a82611439565b836001600160a01b0316856001600160a01b031603156139d6576001600160a01b0385161561396d57600061390d866125a7565b9050600061391b8386614dfd565b905060008260400151600381111561393557613935614f20565b1461396a57613952858261394b8a8660006126aa565b6000613c06565b61396a85826139638a8660016126aa565b6001613c06565b50505b6001600160a01b038416156139d6576000613987856125a7565b905060006139958385614e81565b90506000826040015160038111156139af576139af614f20565b1461193f576139c5848261394b898660006126aa565b61193f8482613963898660016126aa565b5050505050565b6001600160a01b038316613a415760405162461bcd60e51b815260206004820152602560248201527f45524332303a207472616e736665722066726f6d20746865207a65726f206164604482015264647265737360d81b6064820152608401610c4e565b6001600160a01b038216613aa35760405162461bcd60e51b815260206004820152602360248201527f45524332303a207472616e7366657220746f20746865207a65726f206164647260448201526265737360e81b6064820152608401610c4e565b816001600160a01b0316836001600160a01b031614613bc1576001600160a01b038084166000908152602081905260408082205492851682529020546001600160681b03918216911682821015613b4b5760405162461bcd60e51b815260206004820152602660248201527f45524332303a207472616e7366657220616d6f756e7420657863656564732062604482015265616c616e636560d01b6064820152608401610c4e565b6001600160a01b038516600090815260208190526040902080546001600160681b0319168484036001600160681b0316179055613b88838261508e565b6001600160a01b038516600090815260208190526040902080546001600160681b0319166001600160681b039290921691909117905550505b816001600160a01b0316836001600160a01b03167fddf252ad1be2c89b69c2b068fc378daa952ba7f163c4a11628f55a4df523b3ef8360405161218991815260200190565b6001600160a01b0382161561181057838314611810576000613c35613c306402540be40087614eab565b614612565b90506000613c4b613c306402540be40087614eab565b90506000613c58856125a7565b90506000846001811115613c6e57613c6e614f20565b03613ca15781838260200151613c8491906150ae565b613c8e91906150ce565b6001600160481b03166020820152613cc6565b80518290613cb09085906150ae565b613cba91906150ce565b6001600160481b031681525b61193f8582613e93565b6000836001600160a01b0316826001600160a01b031614613cf15781613cf4565b60005b90506000836001811115613d0a57613d0a614f20565b03613d42576001600160a01b03848116600090815260476020526040902080546001600160a01b031916918316919091179055611810565b6001600160a01b03938416600090815260486020526040902080546001600160a01b03191691909416179092555050565b613d9460408051606081018252600080825260208201819052909182015290565b8115613e1357826001811115613dac57613dac614f20565b613db7906001615053565b84604001516003811115613dcd57613dcd614f20565b1760ff166003811115613de257613de2614f20565b84604001906003811115613df857613df8614f20565b90816003811115613e0b57613e0b614f20565b905250613e8b565b6003836001811115613e2757613e27614f20565b613e32906001615053565b1884604001516003811115613e4957613e49614f20565b1660ff166003811115613e5e57613e5e614f20565b84604001906003811115613e7457613e74614f20565b90816003811115613e8757613e87614f20565b9052505b509192915050565b6001600160a01b03821660009081526020818152604091829020835181549285015171ffffffffffffffffffffffffffffffffffff60681b19909316600160681b6001600160481b039283160268ffffffffffffffffff60b01b191617600160b01b91909316029190911780825591830151909182906001600160f81b0316600160f81b836003811115613f2957613f29614f20565b0217905550505050565b600080807f7fffffffffffffffffffffffffffffff5d576e7357a4501ddfe92f46681b20a0841115613f6e5750600091506003905082613ff8565b604080516000808252602082018084528a905260ff891692820192909252606081018790526080810186905260019060a0016020604051602081039080840390855afa158015613fc2573d6000803e3d6000fd5b5050604051601f1901519150506001600160a01b038116613fee57506000925060019150829050613ff8565b9250600091508190505b9450945094915050565b600082600381111561401657614016614f20565b0361401f575050565b600182600381111561403357614033614f20565b036140515760405163f645eedf60e01b815260040160405180910390fd5b600282600381111561406557614065614f20565b036140865760405163fce698f760e01b815260048101829052602401610c4e565b600382600381111561409a5761409a614f20565b03610fa7576040516335e2f38360e21b815260048101829052602401610c4e565b6001600160a01b038084166000908152603c6020908152604080832093881683526002840190915281205490919082806140f6888588614431565b905080831461417057861561411357614110878285614405565b91505b6001600160a01b03808a1660008181526002870160205260409081902084905551918a16917fbb123b5c06d5408bbea3c4fef481578175cfb432e3b482c6186f02ed9086585b906141679085815260200190565b60405180910390a35b50979650505050505050565b6001600160a01b0382166141d25760405162461bcd60e51b815260206004820152601f60248201527f45524332303a206d696e7420746f20746865207a65726f2061646472657373006044820152606401610c4e565b6141e7600083836001600160681b0316614537565b806001600160681b0316600260008282546142029190614e81565b90915550506001600160a01b038216600090815260208190526040812080548392906142389084906001600160681b031661508e565b92506101000a8154816001600160681b0302191690836001600160681b03160217905550816001600160a01b031660006001600160a01b03167fddf252ad1be2c89b69c2b068fc378daa952ba7f163c4a11628f55a4df523b3ef836040516142af91906001600160681b0391909116815260200190565b60405180910390a35050565b606060006142c88361467a565b604080516020808252818301909252919250600091906020820181803683375050509182525060208101929092525090565b6000831580614307575081155b8061431a575042836001600160801b0316145b8061434e57507f0000000000000000000000000000000000000000000000000000000000000000836001600160801b031610155b1561435a575083612e09565b60007f0000000000000000000000000000000000000000000000000000000000000000421161438957426143ab565b7f00000000000000000000000000000000000000000000000000000000000000005b905060006143c26001600160801b03861683614dfd565b905086846143d26012600a6151d2565b6143dc848a614e94565b6143e69190614e94565b6143f09190614eab565b6143fa9190614e81565b979650505050505050565b60006144136012600a6151d2565b61441d8385614dfd565b6144279086614e94565b610ff29190614eab565b6001820154825460009190600160801b90046001600160801b03164281900361445c57509050610ff5565b84546000906144779084906001600160801b031684886142fa565b90508281146144c657600186018190556040518181526001600160a01b038816907f5777ca300dfe5bead41006fbce4389794dbc0ed8d6cccebfaf94630aa04184bc9060200160405180910390a25b85546001600160801b03428116600160801b029116178655925050509392505050565b6000808260018111156144fe576144fe614f20565b1461450a578251614510565b82602001515b610ff5906001600160481b03166402540be400614e94565b6060610ff284846000856146a2565b6053546001600160a01b0316801561181057806001600160a01b0316635b9c4cf1858561456388611439565b61456c88611439565b6040516001600160e01b031960e087901b1681526001600160a01b039485166004820152939092166024840152604483015260648201526084810185905260a401600060405180830381600087803b1580156145c757600080fd5b505af19250505080156145d8575060015b611810573d808015614606576040519150601f19603f3d011682016040523d82523d6000602084013e61460b565b606091505b5050611810565b60006001600160481b038211156121ff5760405162461bcd60e51b815260206004820152602660248201527f53616665436173743a2076616c756520646f65736e27742066697420696e203760448201526532206269747360d01b6064820152608401610c4e565b600060ff8216601f811115610e4a57604051632cd44ac360e21b815260040160405180910390fd5b6060824710156147035760405162461bcd60e51b815260206004820152602660248201527f416464726573733a20696e73756666696369656e742062616c616e636520666f6044820152651c8818d85b1b60d21b6064820152608401610c4e565b600080866001600160a01b0316858760405161471f91906151de565b60006040518083038185875af1925050503d806000811461475c576040519150601f19603f3d011682016040523d82523d6000602084013e614761565b606091505b50915091506143fa87838387606083156147dc5782516000036147d5576001600160a01b0385163b6147d55760405162461bcd60e51b815260206004820152601d60248201527f416464726573733a2063616c6c20746f206e6f6e2d636f6e74726163740000006044820152606401610c4e565b5081612e09565b612e0983838151156147f15781518083602001fd5b8060405162461bcd60e51b8152600401610c4e919061489c565b6001600160a01b038116811461106357600080fd5b6000806040838503121561483357600080fd5b823561483e8161480b565b946020939093013593505050565b60005b8381101561486757818101518382015260200161484f565b50506000910152565b6000815180845261488881602086016020860161484c565b601f01601f19169290920160200192915050565b602081526000610ff56020830184614870565b6000602082840312156148c157600080fd5b8135610ff58161480b565b6000602082840312156148de57600080fd5b5035919050565b6000806000606084860312156148fa57600080fd5b83356149058161480b565b925060208401356149158161480b565b929592945050506040919091013590565b6000806040838503121561493957600080fd5b82356149448161480b565b915060208301356149548161480b565b809150509250929050565b80356002811061496e57600080fd5b919050565b803560ff8116811461496e57600080fd5b600080600080600080600060e0888a03121561499f57600080fd5b87356149aa8161480b565b965060208801356149ba8161480b565b95506149c86040890161495f565b9450606088013593506149dd60808901614973565b925060a0880135915060c0880135905092959891949750929550565b60008060408385031215614a0c57600080fd5b8235614a178161480b565b9150614a256020840161495f565b90509250929050565b60008060008060008060c08789031215614a4757600080fd5b8635614a528161480b565b95506020870135945060408701359350614a6e60608801614973565b92506080870135915060a087013590509295509295509295565b60ff60f81b881681526000602060e081840152614aa860e084018a614870565b8381036040850152614aba818a614870565b606085018990526001600160a01b038816608086015260a0850187905284810360c0860152855180825283870192509083019060005b81811015614b0c57835183529284019291840191600101614af0565b50909c9b505050505050505050505050565b60008060008060808587031215614b3457600080fd5b8435614b3f8161480b565b93506020850135614b4f8161480b565b93969395505050506040820135916060013590565b60008060008060008060c08789031215614b7d57600080fd5b8635614b888161480b565b95506020870135614b988161480b565b945060408701359350614a6e60608801614973565b60008060408385031215614bc057600080fd5b8235915060208301356149548161480b565b634e487b7160e01b600052604160045260246000fd5b6040516060810167ffffffffffffffff81118282101715614c0b57614c0b614bd2565b60405290565b604051601f8201601f1916810167ffffffffffffffff81118282101715614c3a57614c3a614bd2565b604052919050565b60006020808385031215614c5557600080fd5b823567ffffffffffffffff80821115614c6d57600080fd5b818501915085601f830112614c8157600080fd5b813581811115614c9357614c93614bd2565b614ca1848260051b01614c11565b81815284810192506060918202840185019188831115614cc057600080fd5b938501935b828510156141705780858a031215614cdd5760008081fd5b614ce5614be8565b85356001600160801b0381168114614cfd5760008081fd5b81528587013587820152604080870135614d168161480b565b9082015284529384019392850192614cc5565b600080600080600080600060e0888a031215614d4457600080fd5b8735614d4f8161480b565b96506020880135614d5f8161480b565b955060408801359450606088013593506149dd60808901614973565b600080600060608486031215614d9057600080fd5b8335614d9b8161480b565b95602085013595506040909401359392505050565b60208082526019908201527f43414c4c45525f4e4f545f534c415348494e475f41444d494e00000000000000604082015260600190565b634e487b7160e01b600052601160045260246000fd5b81810381811115610e4a57610e4a614de7565b600181811c90821680614e2457607f821691505b602082108103614e4457634e487b7160e01b600052602260045260246000fd5b50919050565b60208082526017908201527f43414c4c45525f4e4f545f434c41494d5f48454c504552000000000000000000604082015260600190565b80820180821115610e4a57610e4a614de7565b8082028115828204841417610e4a57610e4a614de7565b600082614ec857634e487b7160e01b600052601260045260246000fd5b500490565b6020808252600d908201526c24a72b20a624a22fa7aba722a960991b604082015260600190565b60208082526012908201527124a72b20a624a22fa2ac2824a920aa24a7a760711b604082015260600190565b634e487b7160e01b600052602160045260246000fd5b60028110614f5457634e487b7160e01b600052602160045260246000fd5b9052565b8681526001600160a01b0386811660208301528516604082015260c08101614f836060830186614f36565b608082019390935260a00152949350505050565b602080825260119082015270494e56414c49445f5349474e415455524560781b604082015260600190565b634e487b7160e01b600052603260045260246000fd5b600060018201614fea57614fea614de7565b5060010190565b6020808252601390820152721253959053125117d6915493d7d05353d55395606a1b604082015260600190565b6001600160d81b0382811682821603908082111561503e5761503e614de7565b5092915050565b60208101610e4a8284614f36565b60ff8181168382160190811115610e4a57610e4a614de7565b60006020828403121561507e57600080fd5b81518015158114610ff557600080fd5b6001600160681b0381811683821601908082111561503e5761503e614de7565b6001600160481b0382811682821603908082111561503e5761503e614de7565b6001600160481b0381811683821601908082111561503e5761503e614de7565b600181815b8085111561512957816000190482111561510f5761510f614de7565b8085161561511c57918102915b93841c93908002906150f3565b509250929050565b60008261514057506001610e4a565b8161514d57506000610e4a565b8160018114615163576002811461516d57615189565b6001915050610e4a565b60ff84111561517e5761517e614de7565b50506001821b610e4a565b5060208310610133831016604e8410600b84101617156151ac575081810a610e4a565b6151b683836150ee565b80600019048211156151ca576151ca614de7565b029392505050565b6000610ff58383615131565b600082516151f081846020870161484c565b919091019291505056fea2646970667358221220d74d96729e8ac54941d07775bcb8baafae00ba22ae3f99227abf3e95f8a5dd2764736f6c63430008150033",
    "linkReferences": {}
  },
  "methodIdentifiers": {
    "CLAIM_HELPER_ROLE()": "dbc0ed8a",
    "COOLDOWN_ADMIN_ROLE()": "9e3ffce0",
    "COOLDOWN_SECONDS()": "72b49d63",
    "DELEGATE_BY_TYPE_TYPEHASH()": "aa9fbe02",
    "DELEGATE_TYPEHASH()": "41cbf54a",
    "DISTRIBUTION_END()": "919cd40f",
    "DOMAIN_SEPARATOR()": "3644e515",
    "EIP712_REVISION()": "78160376",
    "EMISSION_MANAGER()": "cbcbb507",
    "EXCHANGE_RATE_UNIT()": "8e9b2ca4",
    "INITIAL_EXCHANGE_RATE()": "58146d17",
    "LOWER_BOUND()": "6198e135",
    "PERMIT_TYPEHASH()": "30adf81f",
    "POWER_SCALE_FACTOR()": "570a9714",
    "PRECISION()": "aaf5eb68",
    "REVISION()": "dde43cba",
    "REWARDS_VAULT()": "946776cd",
    "REWARD_TOKEN()": "99248ea7",
    "SLASH_ADMIN_ROLE()": "8c9a281d",
    "STAKED_TOKEN()": "312f6b83",
    "UNSTAKE_WINDOW()": "359c4a96",
    "_nonces(address)": "b9844d8d",
    "allowance(address,address)": "dd62ed3e",
    "approve(address,uint256)": "095ea7b3",
    "assets(address)": "f11b8188",
    "balanceOf(address)": "70a08231",
    "claimRewards(address,uint256)": "9a99b4f0",
    "claimRewardsAndRedeem(address,uint256,uint256)": "eab52318",
    "claimRewardsAndRedeemOnBehalf(address,address,uint256,uint256)": "9c9b5154",
    "claimRewardsAndStake(address,uint256)": "955e18af",
    "claimRewardsAndStakeOnBehalf(address,address,uint256)": "c18f539a",
    "claimRewardsOnBehalf(address,address,uint256)": "20fb80b5",
    "claimRoleAdmin(uint256)": "fde9eb69",
    "configureAssets((uint128,uint256,address)[])": "b2a5dbfa",
    "cooldown()": "787a08a6",
    "cooldownOnBehalfOf(address)": "250201db",
    "decimals()": "313ce567",
    "decreaseAllowance(address,uint256)": "a457c2d7",
    "delegate(address)": "5c19a95c",
    "delegateByType(address,uint8)": "dc937e1c",
    "eip712Domain()": "84b0196e",
    "getAdmin(uint256)": "111fd88b",
    "getCooldownSeconds()": "616e0bf9",
    "getDelegateeByType(address,uint8)": "6f50458d",
    "getDelegates(address)": "169db77d",
    "getExchangeRate()": "e6aa216c",
    "getMaxSlashablePercentage()": "f34d96da",
    "getPendingAdmin(uint256)": "4575e69b",
    "getPowerCurrent(address,uint8)": "b2f4201d",
    "getPowersCurrent(address)": "2a8b3668",
    "getTotalRewardsBalance(address)": "8dbefee2",
    "getUserAssetData(address,address)": "3373ee4c",
    "ghoDebtToken()": "174ed542",
    "inPostSlashingPeriod()": "f036bc68",
    "increaseAllowance(address,uint256)": "39509351",
    "initialize()": "8129fc1c",
    "metaDelegate(address,address,uint256,uint8,bytes32,bytes32)": "a095ac19",
    "metaDelegateByType(address,address,uint8,uint256,uint8,bytes32,bytes32)": "657f0cde",
    "name()": "06fdde03",
    "permit(address,address,uint256,uint256,uint8,bytes32,bytes32)": "d505accf",
    "previewRedeem(uint256)": "4cdad506",
    "previewStake(uint256)": "727a5d57",
    "redeem(address,uint256)": "1e9a6950",
    "redeemOnBehalf(address,address,uint256)": "112d037c",
    "returnFunds(uint256)": "45755dd6",
    "setCooldownSeconds(uint256)": "7b5b1157",
    "setGHODebtToken(address)": "4998fffd",
    "setMaxSlashablePercentage(uint256)": "74011f56",
    "setPendingAdmin(uint256,address)": "ab406fe6",
    "settleSlashing()": "aff05aa9",
    "slash(address,uint256)": "02fb4d85",
    "stake(address,uint256)": "adc9772e",
    "stakeWithPermit(address,uint256,uint256,uint8,bytes32,bytes32)": "73d6a889",
    "stakerRewardsToClaim(address)": "7e90d7ef",
    "stakersCooldowns(address)": "091030c3",
    "symbol()": "95d89b41",
    "totalSupply()": "18160ddd",
    "transfer(address,uint256)": "a9059cbb",
    "transferFrom(address,address,uint256)": "23b872dd"
  },
  "id": 92
}