{
  "abi": [
    {
      "inputs": [
        {
          "internalType": "address",
          "name": "newExecutor",
          "type": "address"
        }
      ],
      "stateMutability": "nonpayable",
      "type": "constructor"
    },
    {
      "inputs": [],
      "name": "AAVE_MERKLE_DISTRIBUTOR",
      "outputs": [
        {
          "internalType": "address",
          "name": "",
          "type": "address"
        }
      ],
      "stateMutability": "view",
      "type": "function"
    },
    {
      "inputs": [],
      "name": "AAVE_V1_ADDRESS_PROVIDER",
      "outputs": [
        {
          "internalType": "address",
          "name": "",
          "type": "address"
        }
      ],
      "stateMutability": "view",
      "type": "function"
    },
    {
      "inputs": [],
      "name": "AAVE_V1_PRICE_PROVIDER",
      "outputs": [
        {
          "internalType": "address",
          "name": "",
          "type": "address"
        }
      ],
      "stateMutability": "view",
      "type": "function"
    },
    {
      "inputs": [],
      "name": "ABPT",
      "outputs": [
        {
          "internalType": "address payable",
          "name": "",
          "type": "address"
        }
      ],
      "stateMutability": "view",
      "type": "function"
    },
    {
      "inputs": [],
      "name": "CROSSCHAIN_CONTROLLER",
      "outputs": [
        {
          "internalType": "address",
          "name": "",
          "type": "address"
        }
      ],
      "stateMutability": "view",
      "type": "function"
    },
    {
      "inputs": [],
      "name": "ETH_AMOUNT",
      "outputs": [
        {
          "internalType": "uint256",
          "name": "",
          "type": "uint256"
        }
      ],
      "stateMutability": "view",
      "type": "function"
    },
    {
      "inputs": [],
      "name": "LEND_TO_AAVE_MIGRATOR",
      "outputs": [
        {
          "internalType": "address payable",
          "name": "",
          "type": "address"
        }
      ],
      "stateMutability": "view",
      "type": "function"
    },
    {
      "inputs": [],
      "name": "LEVEL_1_EXECUTOR_V3",
      "outputs": [
        {
          "internalType": "address",
          "name": "",
          "type": "address"
        }
      ],
      "stateMutability": "view",
      "type": "function"
    },
    {
      "inputs": [],
      "name": "LINK_AMOUNT",
      "outputs": [
        {
          "internalType": "uint256",
          "name": "",
          "type": "uint256"
        }
      ],
      "stateMutability": "view",
      "type": "function"
    },
    {
      "inputs": [],
      "name": "PAYLOAD_CONTROLLER",
      "outputs": [
        {
          "internalType": "address",
          "name": "",
          "type": "address"
        }
      ],
      "stateMutability": "view",
      "type": "function"
    },
    {
      "inputs": [],
      "name": "STK_AAVE_ADDRESS",
      "outputs": [
        {
          "internalType": "address",
          "name": "",
          "type": "address"
        }
      ],
      "stateMutability": "view",
      "type": "function"
    },
    {
      "inputs": [],
      "name": "execute",
      "outputs": [],
      "stateMutability": "nonpayable",
      "type": "function"
    }
  ],
  "bytecode": {
    "object": "0x60a060405234801561001057600080fd5b50604051620021493803806200214983398101604081905261003191610042565b6001600160a01b0316608052610072565b60006020828403121561005457600080fd5b81516001600160a01b038116811461006b57600080fd5b9392505050565b608051612036620001136000396000818161015b0152818161032001528181610413015281816105060152818161056201528181610682015281816107a2015281816108d701528181610962015281816109ef01528181610a6c01528181610afe01528181610b9001528181610c8801528181610d1301528181610da001528181610e2d01528181610eba01528181610f410152610fda01526120366000f3fe608060405234801561001057600080fd5b50600436106100b45760003560e01c8063a0faf0b511610071578063a0faf0b514610156578063a2c801421461017d578063af262b2414610198578063c14033ba146101a0578063e81176ac146101af578063f674ba63146101ca57600080fd5b806307e6a3fe146100b95780634484c213146100f15780634586988d1461010c5780636146195414610127578063949a0235146101315780639bf6d8d01461014e575b600080fd5b6100d47324a42fd28c976a61df5d00d0599c34c4f90748c881565b6040516001600160a01b0390911681526020015b60405180910390f35b6100d473317625234562b1526ea2fac4030ea499c5291de481565b6100d4734da27a545c0c5b758a6ba100e3a049001de870f581565b61012f6101e5565b005b610140677ce66c50e284000081565b6040519081526020016100e8565b6100d4602c81565b6100d47f000000000000000000000000000000000000000000000000000000000000000081565b6100d47341a08648c3766f9f9d85598ff102a08f4ef84f8481565b6100d4600181565b610140671bc16d674ec8000081565b6100d473a88c6d90eae942291325f9ae3c66f3563b93fe1081565b6100d47376b47460d7f7c5222cfb6b6a75615ab10895dde481565b61026e73464c71f6c2f760dda6093dcb91c24c39e5d6e18c7387870bca3f3fd6335c3f4ce8392d69350b4fa4e2602c734d5f47fa6a74757f35c14fd3a6ef8e3c9bc514e8671bc16d674ec8000073d322a49006fc828f9b5b37ab215f99b4e5cab19c73514910771af9ca656af840dff83e8264ecf986ca6000677ce66c50e28400006000611041565b6000734da27a545c0c5b758a6ba100e3a049001de870f59050806001600160a01b031663ab406fe6826001600160a01b0316638c9a281d6040518163ffffffff1660e01b81526004016020604051808303816000875af11580156102d6573d6000803e3d6000fd5b505050506040513d601f19601f820116820180604052508101906102fa9190611dc9565b6040516001600160e01b031960e084901b16815260048101919091526001600160a01b037f0000000000000000000000000000000000000000000000000000000000000000166024820152604401600060405180830381600087803b15801561036257600080fd5b505af1158015610376573d6000803e3d6000fd5b50505050806001600160a01b031663ab406fe6826001600160a01b0316639e3ffce06040518163ffffffff1660e01b81526004016020604051808303816000875af11580156103c9573d6000803e3d6000fd5b505050506040513d601f19601f820116820180604052508101906103ed9190611dc9565b6040516001600160e01b031960e084901b16815260048101919091526001600160a01b037f0000000000000000000000000000000000000000000000000000000000000000166024820152604401600060405180830381600087803b15801561045557600080fd5b505af1158015610469573d6000803e3d6000fd5b50505050806001600160a01b031663ab406fe6826001600160a01b031663dbc0ed8a6040518163ffffffff1660e01b81526004016020604051808303816000875af11580156104bc573d6000803e3d6000fd5b505050506040513d601f19601f820116820180604052508101906104e09190611dc9565b6040516001600160e01b031960e084901b16815260048101919091526001600160a01b037f0000000000000000000000000000000000000000000000000000000000000000166024820152604401600060405180830381600087803b15801561054857600080fd5b505af115801561055c573d6000803e3d6000fd5b505050507f00000000000000000000000000000000000000000000000000000000000000006001600160a01b031663025d36a9826000846001600160a01b0316638c9a281d6040518163ffffffff1660e01b81526004016020604051808303816000875af11580156105d2573d6000803e3d6000fd5b505050506040513d601f19601f820116820180604052508101906105f69190611dc9565b60405160200161060891815260200190565b60405160208183030381529060405260006040518563ffffffff1660e01b81526004016106389493929190611e32565b6000604051808303816000875af1158015610657573d6000803e3d6000fd5b505050506040513d6000823e601f3d908101601f1916820160405261067f9190810190611eb6565b507f00000000000000000000000000000000000000000000000000000000000000006001600160a01b031663025d36a9826000846001600160a01b0316639e3ffce06040518163ffffffff1660e01b81526004016020604051808303816000875af11580156106f2573d6000803e3d6000fd5b505050506040513d601f19601f820116820180604052508101906107169190611dc9565b60405160200161072891815260200190565b60405160208183030381529060405260006040518563ffffffff1660e01b81526004016107589493929190611e32565b6000604051808303816000875af1158015610777573d6000803e3d6000fd5b505050506040513d6000823e601f3d908101601f1916820160405261079f9190810190611eb6565b507f00000000000000000000000000000000000000000000000000000000000000006001600160a01b031663025d36a9826000846001600160a01b031663dbc0ed8a6040518163ffffffff1660e01b81526004016020604051808303816000875af1158015610812573d6000803e3d6000fd5b505050506040513d601f19601f820116820180604052508101906108369190611dc9565b60405160200161084891815260200190565b60405160208183030381529060405260006040518563ffffffff1660e01b81526004016108789493929190611e32565b6000604051808303816000875af1158015610897573d6000803e3d6000fd5b505050506040513d6000823e601f3d908101601f191682016040526108bf9190810190611eb6565b5060405163103f72b760e21b81526001600160a01b037f00000000000000000000000000000000000000000000000000000000000000001660048201527324a42fd28c976a61df5d00d0599c34c4f90748c8906340fdcadc90602401600060405180830381600087803b15801561093557600080fd5b505af1158015610949573d6000803e3d6000fd5b505060405163f2fde38b60e01b81526001600160a01b037f00000000000000000000000000000000000000000000000000000000000000001660048201527324a42fd28c976a61df5d00d0599c34c4f90748c8925063f2fde38b9150602401600060405180830381600087803b1580156109c257600080fd5b505af11580156109d6573d6000803e3d6000fd5b505060405163f2fde38b60e01b81526001600160a01b037f00000000000000000000000000000000000000000000000000000000000000001660048201527376b47460d7f7c5222cfb6b6a75615ab10895dde4925063f2fde38b9150602401600060405180830381600087803b158015610a4f57600080fd5b505af1158015610a63573d6000803e3d6000fd5b50505050610af97f000000000000000000000000000000000000000000000000000000000000000073b53c1a33016b2dc2ff3653530bff1848a515c8c573a50ba011c48153de246e5192c8f9258a2ba79ca9738a32f49ffba88aba6eff96f45d8bd1d4b3f35c7d73effc18fc3b7eb8e676dac549e0c693ad50d1ce317352d306e36e3b6b02c153d0266ff0f85d18bcd4136113cc565b610b8b7f000000000000000000000000000000000000000000000000000000000000000073acc030ef66f9dfeae9cbb0cd1b25654b82cfa8d573a50ba011c48153de246e5192c8f9258a2ba79ca9738a32f49ffba88aba6eff96f45d8bd1d4b3f35c7d731c4a4e31231f71fc34867d034a9e68f6fc7982497352d306e36e3b6b02c153d0266ff0f85d18bcd4136113cc565b610c717f000000000000000000000000000000000000000000000000000000000000000073c2aacf6553d20d1e9d78e365aaba8032af9c85b0732f39d218133afab8f2b819b1066c7e434ad94e9e73223d844fc4b006d67c0cdbd39371a9f73f69d97473baa999ac55eace41ccae355c77809e68bb34517073464c71f6c2f760dda6093dcb91c24c39e5d6e18c73d3cf979e676265e4f6379749dece4708b9a2247673d322a49006fc828f9b5b37ab215f99b4e5cab19c73adc0a53095a0af87f3aa29fe0715b5c28016364e7302e7b8511831b1b02d9018215a0f8f500ea5c6b3611762565b60405163f2fde38b60e01b81526001600160a01b037f000000000000000000000000000000000000000000000000000000000000000016600482015273a88c6d90eae942291325f9ae3c66f3563b93fe109063f2fde38b90602401600060405180830381600087803b158015610ce657600080fd5b505af1158015610cfa573d6000803e3d6000fd5b50506040516308f2839760e41b81526001600160a01b037f000000000000000000000000000000000000000000000000000000000000000016600482015273317625234562b1526ea2fac4030ea499c5291de49250638f2839709150602401600060405180830381600087803b158015610d7357600080fd5b505af1158015610d87573d6000803e3d6000fd5b50506040516308f2839760e41b81526001600160a01b037f00000000000000000000000000000000000000000000000000000000000000001660048201527341a08648c3766f9f9d85598ff102a08f4ef84f849250638f2839709150602401600060405180830381600087803b158015610e0057600080fd5b505af1158015610e14573d6000803e3d6000fd5b50506040516392eefe9b60e01b81526001600160a01b037f00000000000000000000000000000000000000000000000000000000000000001660048201527341a08648c3766f9f9d85598ff102a08f4ef84f8492506392eefe9b9150602401600060405180830381600087803b158015610e8d57600080fd5b505af1158015610ea1573d6000803e3d6000fd5b5050604051634dd18bf560e01b81526001600160a01b037f0000000000000000000000000000000000000000000000000000000000000000166004820152309250634dd18bf59150602401600060405180830381600087803b158015610f0657600080fd5b505af1158015610f1a573d6000803e3d6000fd5b5050604080516020810182526000808252915163025d36a960e01b81526001600160a01b037f000000000000000000000000000000000000000000000000000000000000000016945063025d36a99350610f7c92309290918290600401611f63565b6000604051808303816000875af1158015610f9b573d6000803e3d6000fd5b505050506040513d6000823e601f3d908101601f19168201604052610fc39190810190611eb6565b5060405163f2fde38b60e01b8152600160048201527f00000000000000000000000000000000000000000000000000000000000000006001600160a01b03169063f2fde38b90602401600060405180830381600087803b15801561102657600080fd5b505af115801561103a573d6000803e3d6000fd5b5050505050565b6040516317d5759960e31b81526001600160a01b038881166004830152306024830152604482018890528b169063beabacc890606401600060405180830381600087803b15801561109157600080fd5b505af11580156110a5573d6000803e3d6000fd5b505060405163095ea7b360e01b81526001600160a01b038881166004830152602482018a90528a16925063095ea7b391506044016020604051808303816000875af11580156110f8573d6000803e3d6000fd5b505050506040513d601f19601f8201168201806040525081019061111c9190611fae565b50604051630402806960e51b8152306004820152602481018790526001600160a01b0389811660448301528616906380500d2090606401600060405180830381600087803b15801561116d57600080fd5b505af1158015611181573d6000803e3d6000fd5b505050508015611354576040516317d5759960e31b81526001600160a01b038481166004830152306024830152604482018490528b169063beabacc890606401600060405180830381600087803b1580156111db57600080fd5b505af11580156111ef573d6000803e3d6000fd5b5050604051631a4ca37b60e21b81526001600160a01b038781166004830152602482018690523060448301528c1692506369328dec91506064016020604051808303816000875af1158015611248573d6000803e3d6000fd5b505050506040513d601f19601f8201168201806040525081019061126c9190611dc9565b506040516370a0823160e01b81523060048201526001600160a01b0385169063a9059cbb908a9083906370a0823190602401602060405180830381865afa1580156112bb573d6000803e3d6000fd5b505050506040513d601f19601f820116820180604052508101906112df9190611dc9565b6040516001600160e01b031960e085901b1681526001600160a01b03909216600483015260248201526044016020604051808303816000875af115801561132a573d6000803e3d6000fd5b505050506040513d601f19601f8201168201806040525081019061134e9190611fae565b506113c0565b6040516317d5759960e31b81526001600160a01b0385811660048301528981166024830152604482018490528b169063beabacc8906064015b600060405180830381600087803b1580156113a757600080fd5b505af11580156113bb573d6000803e3d6000fd5b505050505b50505050505050505050565b60405163283d62ad60e01b81526001600160a01b03878116600483015286169063283d62ad90602401600060405180830381600087803b15801561140f57600080fd5b505af1158015611423573d6000803e3d6000fd5b505060405163f2fde38b60e01b81526001600160a01b0389811660048301528816925063f2fde38b9150602401600060405180830381600087803b15801561146a57600080fd5b505af115801561147e573d6000803e3d6000fd5b505060405163f2fde38b60e01b81526001600160a01b0389811660048301528516925063f2fde38b9150602401600060405180830381600087803b1580156114c557600080fd5b505af11580156114d9573d6000803e3d6000fd5b50505050306001600160a01b0316846001600160a01b0316638da5cb5b6040518163ffffffff1660e01b8152600401602060405180830381865afa158015611525573d6000803e3d6000fd5b505050506040513d601f19601f820116820180604052508101906115499190611fd7565b6001600160a01b0316036115b35760405163f2fde38b60e01b81526001600160a01b03878116600483015285169063f2fde38b90602401600060405180830381600087803b15801561159a57600080fd5b505af11580156115ae573d6000803e3d6000fd5b505050505b306001600160a01b0316836001600160a01b0316638da5cb5b6040518163ffffffff1660e01b8152600401602060405180830381865afa1580156115fb573d6000803e3d6000fd5b505050506040513d601f19601f8201168201806040525081019061161f9190611fd7565b6001600160a01b0316036116895760405163f2fde38b60e01b81526001600160a01b03878116600483015284169063f2fde38b90602401600060405180830381600087803b15801561167057600080fd5b505af1158015611684573d6000803e3d6000fd5b505050505b306001600160a01b0316816001600160a01b0316638da5cb5b6040518163ffffffff1660e01b8152600401602060405180830381865afa1580156116d1573d6000803e3d6000fd5b505050506040513d601f19601f820116820180604052508101906116f59190611fd7565b6001600160a01b03160361175a5760405163f2fde38b60e01b81526001600160a01b03878116600483015282169063f2fde38b90602401600060405180830381600087803b15801561174657600080fd5b505af11580156113c0573d6000803e3d6000fd5b505050505050565b886001600160a01b0316632f2ff15d8a6001600160a01b031663b8f6dba76040518163ffffffff1660e01b8152600401602060405180830381865afa1580156117af573d6000803e3d6000fd5b505050506040513d601f19601f820116820180604052508101906117d39190611dc9565b6040516001600160e01b031960e084901b16815260048101919091526001600160a01b038d166024820152604401600060405180830381600087803b15801561181b57600080fd5b505af115801561182f573d6000803e3d6000fd5b50505050886001600160a01b03166336568abe8a6001600160a01b031663b8f6dba76040518163ffffffff1660e01b8152600401602060405180830381865afa158015611880573d6000803e3d6000fd5b505050506040513d601f19601f820116820180604052508101906118a49190611dc9565b6040516001600160e01b031960e084901b1681526004810191909152306024820152604401600060405180830381600087803b1580156118e357600080fd5b505af11580156118f7573d6000803e3d6000fd5b50505050886001600160a01b0316632f2ff15d8a6001600160a01b031663a217fddf6040518163ffffffff1660e01b8152600401602060405180830381865afa158015611948573d6000803e3d6000fd5b505050506040513d601f19601f8201168201806040525081019061196c9190611dc9565b6040516001600160e01b031960e084901b16815260048101919091526001600160a01b038d166024820152604401600060405180830381600087803b1580156119b457600080fd5b505af11580156119c8573d6000803e3d6000fd5b50505050886001600160a01b03166336568abe8a6001600160a01b031663a217fddf6040518163ffffffff1660e01b8152600401602060405180830381865afa158015611a19573d6000803e3d6000fd5b505050506040513d601f19601f82011682018060405250810190611a3d9190611dc9565b6040516001600160e01b031960e084901b1681526004810191909152306024820152604401600060405180830381600087803b158015611a7c57600080fd5b505af1158015611a90573d6000803e3d6000fd5b5050604051631db613ff60e21b81526001600160a01b038d811660048301528b1692506376d84ffc9150602401600060405180830381600087803b158015611ad757600080fd5b505af1158015611aeb573d6000803e3d6000fd5b505060405163f2fde38b60e01b81526001600160a01b038d811660048301528b16925063f2fde38b9150602401600060405180830381600087803b158015611b3257600080fd5b505af1158015611b46573d6000803e3d6000fd5b505060405163f2fde38b60e01b81526001600160a01b038d811660048301528a16925063f2fde38b9150602401600060405180830381600087803b158015611b8d57600080fd5b505af1158015611ba1573d6000803e3d6000fd5b505060405163f2fde38b60e01b81526001600160a01b038d811660048301528916925063f2fde38b9150602401600060405180830381600087803b158015611be857600080fd5b505af1158015611bfc573d6000803e3d6000fd5b505060405163ed0d237160e01b81526001600160a01b038d811660048301528816925063ed0d23719150602401600060405180830381600087803b158015611c4357600080fd5b505af1158015611c57573d6000803e3d6000fd5b505060405163f2fde38b60e01b81526001600160a01b038d811660048301528716925063f2fde38b9150602401600060405180830381600087803b158015611c9e57600080fd5b505af1158015611cb2573d6000803e3d6000fd5b505050506001600160a01b03831615611d215760405163f2fde38b60e01b81526001600160a01b038b8116600483015284169063f2fde38b90602401600060405180830381600087803b158015611d0857600080fd5b505af1158015611d1c573d6000803e3d6000fd5b505050505b6001600160a01b03821615611d8c5760405163f2fde38b60e01b81526001600160a01b038b8116600483015283169063f2fde38b90602401600060405180830381600087803b158015611d7357600080fd5b505af1158015611d87573d6000803e3d6000fd5b505050505b6001600160a01b038116156113c05760405163f2fde38b60e01b81526001600160a01b038b8116600483015282169063f2fde38b9060240161138d565b600060208284031215611ddb57600080fd5b5051919050565b60005b83811015611dfd578181015183820152602001611de5565b50506000910152565b60008151808452611e1e816020860160208601611de2565b601f01601f19169290920160200192915050565b60018060a01b038516815283602082015260a06040820152601760a08201527f636c61696d526f6c6541646d696e2875696e743235362900000000000000000060c082015260e060608201526000611e8d60e0830185611e06565b9050821515608083015295945050505050565b634e487b7160e01b600052604160045260246000fd5b600060208284031215611ec857600080fd5b815167ffffffffffffffff80821115611ee057600080fd5b818401915084601f830112611ef457600080fd5b815181811115611f0657611f06611ea0565b604051601f8201601f19908116603f01168101908382118183101715611f2e57611f2e611ea0565b81604052828152876020848701011115611f4757600080fd5b611f58836020830160208801611de2565b979650505050505050565b60018060a01b038516815283602082015260a06040820152600d60a08201526c61636365707441646d696e282960981b60c082015260e060608201526000611e8d60e0830185611e06565b600060208284031215611fc057600080fd5b81518015158114611fd057600080fd5b9392505050565b600060208284031215611fe957600080fd5b81516001600160a01b0381168114611fd057600080fdfea2646970667358221220b06a677223a27892fc88dc63c25dfa24d63db881011803465da7e348c019c66464736f6c63430008130033",
    "linkReferences": {}
  },
  "methodIdentifiers": {
    "AAVE_MERKLE_DISTRIBUTOR()": "e81176ac",
    "AAVE_V1_ADDRESS_PROVIDER()": "07e6a3fe",
    "AAVE_V1_PRICE_PROVIDER()": "f674ba63",
    "ABPT()": "a2c80142",
    "CROSSCHAIN_CONTROLLER()": "9bf6d8d0",
    "ETH_AMOUNT()": "c14033ba",
    "LEND_TO_AAVE_MIGRATOR()": "4484c213",
    "LEVEL_1_EXECUTOR_V3()": "a0faf0b5",
    "LINK_AMOUNT()": "949a0235",
    "PAYLOAD_CONTROLLER()": "af262b24",
    "STK_AAVE_ADDRESS()": "4586988d",
    "execute()": "61461954"
  },
  "id": 75
}