{
  "abi": [
    {
      "inputs": [],
      "name": "AAVE_MERKLE_DISTRIBUTOR",
      "outputs": [
        {
          "internalType": "address",
          "name": "",
          "type": "address"
        }
      ],
      "stateMutability": "view",
      "type": "function"
    },
    {
      "inputs": [],
      "name": "AAVE_V1_ADDRESS_PROVIDER",
      "outputs": [
        {
          "internalType": "address",
          "name": "",
          "type": "address"
        }
      ],
      "stateMutability": "view",
      "type": "function"
    },
    {
      "inputs": [],
      "name": "AAVE_V1_PRICE_PROVIDER",
      "outputs": [
        {
          "internalType": "address",
          "name": "",
          "type": "address"
        }
      ],
      "stateMutability": "view",
      "type": "function"
    },
    {
      "inputs": [],
      "name": "ABPT",
      "outputs": [
        {
          "internalType": "address payable",
          "name": "",
          "type": "address"
        }
      ],
      "stateMutability": "view",
      "type": "function"
    },
    {
      "inputs": [],
      "name": "ETH_AMOUNT",
      "outputs": [
        {
          "internalType": "uint256",
          "name": "",
          "type": "uint256"
        }
      ],
      "stateMutability": "view",
      "type": "function"
    },
    {
      "inputs": [],
      "name": "LEND_TO_AAVE_MIGRATOR",
      "outputs": [
        {
          "internalType": "address payable",
          "name": "",
          "type": "address"
        }
      ],
      "stateMutability": "view",
      "type": "function"
    },
    {
      "inputs": [],
      "name": "LINK_AMOUNT",
      "outputs": [
        {
          "internalType": "uint256",
          "name": "",
          "type": "uint256"
        }
      ],
      "stateMutability": "view",
      "type": "function"
    },
    {
      "inputs": [],
      "name": "STK_AAVE_ADDRESS",
      "outputs": [
        {
          "internalType": "address",
          "name": "",
          "type": "address"
        }
      ],
      "stateMutability": "view",
      "type": "function"
    },
    {
      "inputs": [],
      "name": "execute",
      "outputs": [],
      "stateMutability": "nonpayable",
      "type": "function"
    }
  ],
  "bytecode": {
    "object": "0x608060405234801561001057600080fd5b50611e59806100206000396000f3fe608060405234801561001057600080fd5b50600436106100935760003560e01c8063949a023511610066578063949a023514610110578063a2c801421461012d578063c14033ba14610148578063e81176ac14610157578063f674ba631461017257600080fd5b806307e6a3fe146100985780634484c213146100d05780634586988d146100eb5780636146195414610106575b600080fd5b6100b37324a42fd28c976a61df5d00d0599c34c4f90748c881565b6040516001600160a01b0390911681526020015b60405180910390f35b6100b373317625234562b1526ea2fac4030ea499c5291de481565b6100b3734da27a545c0c5b758a6ba100e3a049001de870f581565b61010e61018d565b005b61011f677ce66c50e284000081565b6040519081526020016100c7565b6100b37341a08648c3766f9f9d85598ff102a08f4ef84f8481565b61011f671bc16d674ec8000081565b6100b373a88c6d90eae942291325f9ae3c66f3563b93fe1081565b6100b37376b47460d7f7c5222cfb6b6a75615ab10895dde481565b61022973464c71f6c2f760dda6093dcb91c24c39e5d6e18c7387870bca3f3fd6335c3f4ce8392d69350b4fa4e2736aad18a3cafb04b9a70761943796ecc179a1d933734d5f47fa6a74757f35c14fd3a6ef8e3c9bc514e8671bc16d674ec8000073d322a49006fc828f9b5b37ab215f99b4e5cab19c73514910771af9ca656af840dff83e8264ecf986ca6000677ce66c50e28400006000610e44565b6000734da27a545c0c5b758a6ba100e3a049001de870f59050806001600160a01b031663ab406fe6826001600160a01b0316638c9a281d6040518163ffffffff1660e01b81526004016020604051808303816000875af1158015610291573d6000803e3d6000fd5b505050506040513d601f19601f820116820180604052508101906102b59190611bcc565b6040516001600160e01b031960e084901b1681526004810191909152600080516020611e048339815191526024820152604401600060405180830381600087803b15801561030257600080fd5b505af1158015610316573d6000803e3d6000fd5b50505050806001600160a01b031663ab406fe6826001600160a01b0316639e3ffce06040518163ffffffff1660e01b81526004016020604051808303816000875af1158015610369573d6000803e3d6000fd5b505050506040513d601f19601f8201168201806040525081019061038d9190611bcc565b6040516001600160e01b031960e084901b1681526004810191909152600080516020611e048339815191526024820152604401600060405180830381600087803b1580156103da57600080fd5b505af11580156103ee573d6000803e3d6000fd5b50505050806001600160a01b031663ab406fe6826001600160a01b031663dbc0ed8a6040518163ffffffff1660e01b81526004016020604051808303816000875af1158015610441573d6000803e3d6000fd5b505050506040513d601f19601f820116820180604052508101906104659190611bcc565b6040516001600160e01b031960e084901b1681526004810191909152600080516020611e048339815191526024820152604401600060405180830381600087803b1580156104b257600080fd5b505af11580156104c6573d6000803e3d6000fd5b50505050600080516020611e048339815191526001600160a01b031663025d36a9826000846001600160a01b0316638c9a281d6040518163ffffffff1660e01b81526004016020604051808303816000875af115801561052a573d6000803e3d6000fd5b505050506040513d601f19601f8201168201806040525081019061054e9190611bcc565b60405160200161056091815260200190565b60405160208183030381529060405260006040518563ffffffff1660e01b81526004016105909493929190611c35565b6000604051808303816000875af11580156105af573d6000803e3d6000fd5b505050506040513d6000823e601f3d908101601f191682016040526105d79190810190611cb9565b50600080516020611e048339815191526001600160a01b031663025d36a9826000846001600160a01b0316639e3ffce06040518163ffffffff1660e01b81526004016020604051808303816000875af1158015610638573d6000803e3d6000fd5b505050506040513d601f19601f8201168201806040525081019061065c9190611bcc565b60405160200161066e91815260200190565b60405160208183030381529060405260006040518563ffffffff1660e01b815260040161069e9493929190611c35565b6000604051808303816000875af11580156106bd573d6000803e3d6000fd5b505050506040513d6000823e601f3d908101601f191682016040526106e59190810190611cb9565b50600080516020611e048339815191526001600160a01b031663025d36a9826000846001600160a01b031663dbc0ed8a6040518163ffffffff1660e01b81526004016020604051808303816000875af1158015610746573d6000803e3d6000fd5b505050506040513d601f19601f8201168201806040525081019061076a9190611bcc565b60405160200161077c91815260200190565b60405160208183030381529060405260006040518563ffffffff1660e01b81526004016107ac9493929190611c35565b6000604051808303816000875af11580156107cb573d6000803e3d6000fd5b505050506040513d6000823e601f3d908101601f191682016040526107f39190810190611cb9565b5060405163103f72b760e21b8152600080516020611e0483398151915260048201527324a42fd28c976a61df5d00d0599c34c4f90748c8906340fdcadc90602401600060405180830381600087803b15801561084e57600080fd5b505af1158015610862573d6000803e3d6000fd5b505060405163f2fde38b60e01b8152600080516020611e0483398151915260048201527324a42fd28c976a61df5d00d0599c34c4f90748c8925063f2fde38b9150602401600060405180830381600087803b1580156108c057600080fd5b505af11580156108d4573d6000803e3d6000fd5b505060405163f2fde38b60e01b8152600080516020611e0483398151915260048201527376b47460d7f7c5222cfb6b6a75615ab10895dde4925063f2fde38b9150602401600060405180830381600087803b15801561093257600080fd5b505af1158015610946573d6000803e3d6000fd5b505050506109ca600080516020611e0483398151915273b53c1a33016b2dc2ff3653530bff1848a515c8c573a50ba011c48153de246e5192c8f9258a2ba79ca9738a32f49ffba88aba6eff96f45d8bd1d4b3f35c7d73effc18fc3b7eb8e676dac549e0c693ad50d1ce317352d306e36e3b6b02c153d0266ff0f85d18bcd4136111cf565b610a4a600080516020611e0483398151915273acc030ef66f9dfeae9cbb0cd1b25654b82cfa8d573a50ba011c48153de246e5192c8f9258a2ba79ca9738a32f49ffba88aba6eff96f45d8bd1d4b3f35c7d731c4a4e31231f71fc34867d034a9e68f6fc7982497352d306e36e3b6b02c153d0266ff0f85d18bcd4136111cf565b610b1e600080516020611e0483398151915273c2aacf6553d20d1e9d78e365aaba8032af9c85b0732f39d218133afab8f2b819b1066c7e434ad94e9e73223d844fc4b006d67c0cdbd39371a9f73f69d97473baa999ac55eace41ccae355c77809e68bb34517073464c71f6c2f760dda6093dcb91c24c39e5d6e18c73d3cf979e676265e4f6379749dece4708b9a2247673d322a49006fc828f9b5b37ab215f99b4e5cab19c73adc0a53095a0af87f3aa29fe0715b5c28016364e7302e7b8511831b1b02d9018215a0f8f500ea5c6b3611565565b60405163f2fde38b60e01b8152600080516020611e04833981519152600482015273a88c6d90eae942291325f9ae3c66f3563b93fe109063f2fde38b90602401600060405180830381600087803b158015610b7857600080fd5b505af1158015610b8c573d6000803e3d6000fd5b50506040516308f2839760e41b8152600080516020611e04833981519152600482015273317625234562b1526ea2fac4030ea499c5291de49250638f2839709150602401600060405180830381600087803b158015610bea57600080fd5b505af1158015610bfe573d6000803e3d6000fd5b50506040516308f2839760e41b8152600080516020611e0483398151915260048201527341a08648c3766f9f9d85598ff102a08f4ef84f849250638f2839709150602401600060405180830381600087803b158015610c5c57600080fd5b505af1158015610c70573d6000803e3d6000fd5b50506040516392eefe9b60e01b8152600080516020611e0483398151915260048201527341a08648c3766f9f9d85598ff102a08f4ef84f8492506392eefe9b9150602401600060405180830381600087803b158015610cce57600080fd5b505af1158015610ce2573d6000803e3d6000fd5b5050604051634dd18bf560e01b8152600080516020611e048339815191526004820152309250634dd18bf59150602401600060405180830381600087803b158015610d2c57600080fd5b505af1158015610d40573d6000803e3d6000fd5b5050604080516020810182526000808252915163025d36a960e01b8152600080516020611e04833981519152945063025d36a99350610d8792309290918290600401611d66565b6000604051808303816000875af1158015610da6573d6000803e3d6000fd5b505050506040513d6000823e601f3d908101601f19168201604052610dce9190810190611cb9565b5060405163f2fde38b60e01b815273f6fb2b1ab6ef8fb24f068229932e60276c9950ae6004820152600080516020611e048339815191529063f2fde38b90602401600060405180830381600087803b158015610e2957600080fd5b505af1158015610e3d573d6000803e3d6000fd5b5050505050565b6040516317d5759960e31b81526001600160a01b038881166004830152306024830152604482018890528b169063beabacc890606401600060405180830381600087803b158015610e9457600080fd5b505af1158015610ea8573d6000803e3d6000fd5b505060405163095ea7b360e01b81526001600160a01b038881166004830152602482018a90528a16925063095ea7b391506044016020604051808303816000875af1158015610efb573d6000803e3d6000fd5b505050506040513d601f19601f82011682018060405250810190610f1f9190611db1565b50604051630402806960e51b8152306004820152602481018790526001600160a01b0389811660448301528616906380500d2090606401600060405180830381600087803b158015610f7057600080fd5b505af1158015610f84573d6000803e3d6000fd5b505050508015611157576040516317d5759960e31b81526001600160a01b038481166004830152306024830152604482018490528b169063beabacc890606401600060405180830381600087803b158015610fde57600080fd5b505af1158015610ff2573d6000803e3d6000fd5b5050604051631a4ca37b60e21b81526001600160a01b038781166004830152602482018690523060448301528c1692506369328dec91506064016020604051808303816000875af115801561104b573d6000803e3d6000fd5b505050506040513d601f19601f8201168201806040525081019061106f9190611bcc565b506040516370a0823160e01b81523060048201526001600160a01b0385169063a9059cbb908a9083906370a0823190602401602060405180830381865afa1580156110be573d6000803e3d6000fd5b505050506040513d601f19601f820116820180604052508101906110e29190611bcc565b6040516001600160e01b031960e085901b1681526001600160a01b03909216600483015260248201526044016020604051808303816000875af115801561112d573d6000803e3d6000fd5b505050506040513d601f19601f820116820180604052508101906111519190611db1565b506111c3565b6040516317d5759960e31b81526001600160a01b0385811660048301528981166024830152604482018490528b169063beabacc8906064015b600060405180830381600087803b1580156111aa57600080fd5b505af11580156111be573d6000803e3d6000fd5b505050505b50505050505050505050565b60405163283d62ad60e01b81526001600160a01b03878116600483015286169063283d62ad90602401600060405180830381600087803b15801561121257600080fd5b505af1158015611226573d6000803e3d6000fd5b505060405163f2fde38b60e01b81526001600160a01b0389811660048301528816925063f2fde38b9150602401600060405180830381600087803b15801561126d57600080fd5b505af1158015611281573d6000803e3d6000fd5b505060405163f2fde38b60e01b81526001600160a01b0389811660048301528516925063f2fde38b9150602401600060405180830381600087803b1580156112c857600080fd5b505af11580156112dc573d6000803e3d6000fd5b50505050306001600160a01b0316846001600160a01b0316638da5cb5b6040518163ffffffff1660e01b8152600401602060405180830381865afa158015611328573d6000803e3d6000fd5b505050506040513d601f19601f8201168201806040525081019061134c9190611dda565b6001600160a01b0316036113b65760405163f2fde38b60e01b81526001600160a01b03878116600483015285169063f2fde38b90602401600060405180830381600087803b15801561139d57600080fd5b505af11580156113b1573d6000803e3d6000fd5b505050505b306001600160a01b0316836001600160a01b0316638da5cb5b6040518163ffffffff1660e01b8152600401602060405180830381865afa1580156113fe573d6000803e3d6000fd5b505050506040513d601f19601f820116820180604052508101906114229190611dda565b6001600160a01b03160361148c5760405163f2fde38b60e01b81526001600160a01b03878116600483015284169063f2fde38b90602401600060405180830381600087803b15801561147357600080fd5b505af1158015611487573d6000803e3d6000fd5b505050505b306001600160a01b0316816001600160a01b0316638da5cb5b6040518163ffffffff1660e01b8152600401602060405180830381865afa1580156114d4573d6000803e3d6000fd5b505050506040513d601f19601f820116820180604052508101906114f89190611dda565b6001600160a01b03160361155d5760405163f2fde38b60e01b81526001600160a01b03878116600483015282169063f2fde38b90602401600060405180830381600087803b15801561154957600080fd5b505af11580156111c3573d6000803e3d6000fd5b505050505050565b886001600160a01b0316632f2ff15d8a6001600160a01b031663b8f6dba76040518163ffffffff1660e01b8152600401602060405180830381865afa1580156115b2573d6000803e3d6000fd5b505050506040513d601f19601f820116820180604052508101906115d69190611bcc565b6040516001600160e01b031960e084901b16815260048101919091526001600160a01b038d166024820152604401600060405180830381600087803b15801561161e57600080fd5b505af1158015611632573d6000803e3d6000fd5b50505050886001600160a01b03166336568abe8a6001600160a01b031663b8f6dba76040518163ffffffff1660e01b8152600401602060405180830381865afa158015611683573d6000803e3d6000fd5b505050506040513d601f19601f820116820180604052508101906116a79190611bcc565b6040516001600160e01b031960e084901b1681526004810191909152306024820152604401600060405180830381600087803b1580156116e657600080fd5b505af11580156116fa573d6000803e3d6000fd5b50505050886001600160a01b0316632f2ff15d8a6001600160a01b031663a217fddf6040518163ffffffff1660e01b8152600401602060405180830381865afa15801561174b573d6000803e3d6000fd5b505050506040513d601f19601f8201168201806040525081019061176f9190611bcc565b6040516001600160e01b031960e084901b16815260048101919091526001600160a01b038d166024820152604401600060405180830381600087803b1580156117b757600080fd5b505af11580156117cb573d6000803e3d6000fd5b50505050886001600160a01b03166336568abe8a6001600160a01b031663a217fddf6040518163ffffffff1660e01b8152600401602060405180830381865afa15801561181c573d6000803e3d6000fd5b505050506040513d601f19601f820116820180604052508101906118409190611bcc565b6040516001600160e01b031960e084901b1681526004810191909152306024820152604401600060405180830381600087803b15801561187f57600080fd5b505af1158015611893573d6000803e3d6000fd5b5050604051631db613ff60e21b81526001600160a01b038d811660048301528b1692506376d84ffc9150602401600060405180830381600087803b1580156118da57600080fd5b505af11580156118ee573d6000803e3d6000fd5b505060405163f2fde38b60e01b81526001600160a01b038d811660048301528b16925063f2fde38b9150602401600060405180830381600087803b15801561193557600080fd5b505af1158015611949573d6000803e3d6000fd5b505060405163f2fde38b60e01b81526001600160a01b038d811660048301528a16925063f2fde38b9150602401600060405180830381600087803b15801561199057600080fd5b505af11580156119a4573d6000803e3d6000fd5b505060405163f2fde38b60e01b81526001600160a01b038d811660048301528916925063f2fde38b9150602401600060405180830381600087803b1580156119eb57600080fd5b505af11580156119ff573d6000803e3d6000fd5b505060405163ed0d237160e01b81526001600160a01b038d811660048301528816925063ed0d23719150602401600060405180830381600087803b158015611a4657600080fd5b505af1158015611a5a573d6000803e3d6000fd5b505060405163f2fde38b60e01b81526001600160a01b038d811660048301528716925063f2fde38b9150602401600060405180830381600087803b158015611aa157600080fd5b505af1158015611ab5573d6000803e3d6000fd5b505050506001600160a01b03831615611b245760405163f2fde38b60e01b81526001600160a01b038b8116600483015284169063f2fde38b90602401600060405180830381600087803b158015611b0b57600080fd5b505af1158015611b1f573d6000803e3d6000fd5b505050505b6001600160a01b03821615611b8f5760405163f2fde38b60e01b81526001600160a01b038b8116600483015283169063f2fde38b90602401600060405180830381600087803b158015611b7657600080fd5b505af1158015611b8a573d6000803e3d6000fd5b505050505b6001600160a01b038116156111c35760405163f2fde38b60e01b81526001600160a01b038b8116600483015282169063f2fde38b90602401611190565b600060208284031215611bde57600080fd5b5051919050565b60005b83811015611c00578181015183820152602001611be8565b50506000910152565b60008151808452611c21816020860160208601611be5565b601f01601f19169290920160200192915050565b60018060a01b038516815283602082015260a06040820152601760a08201527f636c61696d526f6c6541646d696e2875696e743235362900000000000000000060c082015260e060608201526000611c9060e0830185611c09565b9050821515608083015295945050505050565b634e487b7160e01b600052604160045260246000fd5b600060208284031215611ccb57600080fd5b815167ffffffffffffffff80821115611ce357600080fd5b818401915084601f830112611cf757600080fd5b815181811115611d0957611d09611ca3565b604051601f8201601f19908116603f01168101908382118183101715611d3157611d31611ca3565b81604052828152876020848701011115611d4a57600080fd5b611d5b836020830160208801611be5565b979650505050505050565b60018060a01b038516815283602082015260a06040820152600d60a08201526c61636365707441646d696e282960981b60c082015260e060608201526000611c9060e0830185611c09565b600060208284031215611dc357600080fd5b81518015158114611dd357600080fd5b9392505050565b600060208284031215611dec57600080fd5b81516001600160a01b0381168114611dd357600080fdfe00000000000000000000000095fa2c817169e26956ab8795c84a225b55d7db5ba2646970667358221220366422dfe58c12bf0c120f2b3e20691b8840c414514eb989613ba85c033e55b664736f6c63430008130033",
    "linkReferences": {}
  },
  "methodIdentifiers": {
    "AAVE_MERKLE_DISTRIBUTOR()": "e81176ac",
    "AAVE_V1_ADDRESS_PROVIDER()": "07e6a3fe",
    "AAVE_V1_PRICE_PROVIDER()": "f674ba63",
    "ABPT()": "a2c80142",
    "ETH_AMOUNT()": "c14033ba",
    "LEND_TO_AAVE_MIGRATOR()": "4484c213",
    "LINK_AMOUNT()": "949a0235",
    "STK_AAVE_ADDRESS()": "4586988d",
    "execute()": "61461954"
  },
  "id": 91
}