{
  "abi": [
    {
      "inputs": [
        {
          "internalType": "address",
          "name": "crossChainController",
          "type": "address"
        },
        {
          "internalType": "address",
          "name": "governance",
          "type": "address"
        },
        {
          "internalType": "address",
          "name": "votingMachine",
          "type": "address"
        },
        {
          "internalType": "uint256",
          "name": "votingMachineChainId",
          "type": "uint256"
        },
        {
          "internalType": "uint128",
          "name": "startVotingGasLimit",
          "type": "uint128"
        },
        {
          "internalType": "address",
          "name": "owner",
          "type": "address"
        }
      ],
      "stateMutability": "nonpayable",
      "type": "constructor"
    },
    {
      "anonymous": false,
      "inputs": [
        {
          "indexed": true,
          "internalType": "address",
          "name": "previousOwner",
          "type": "address"
        },
        {
          "indexed": true,
          "internalType": "address",
          "name": "newOwner",
          "type": "address"
        }
      ],
      "name": "OwnershipTransferred",
      "type": "event"
    },
    {
      "anonymous": false,
      "inputs": [
        {
          "indexed": false,
          "internalType": "uint128",
          "name": "gasLimit",
          "type": "uint128"
        }
      ],
      "name": "StartVotingGasLimitUpdated",
      "type": "event"
    },
    {
      "anonymous": false,
      "inputs": [
        {
          "indexed": true,
          "internalType": "address",
          "name": "originSender",
          "type": "address"
        },
        {
          "indexed": true,
          "internalType": "uint256",
          "name": "originChainId",
          "type": "uint256"
        },
        {
          "indexed": true,
          "internalType": "bool",
          "name": "delivered",
          "type": "bool"
        },
        {
          "indexed": false,
          "internalType": "bytes",
          "name": "message",
          "type": "bytes"
        },
        {
          "indexed": false,
          "internalType": "bytes",
          "name": "reason",
          "type": "bytes"
        }
      ],
      "name": "VoteMessageReceived",
      "type": "event"
    },
    {
      "inputs": [],
      "name": "CROSS_CHAIN_CONTROLLER",
      "outputs": [
        {
          "internalType": "address",
          "name": "",
          "type": "address"
        }
      ],
      "stateMutability": "view",
      "type": "function"
    },
    {
      "inputs": [],
      "name": "GOVERNANCE",
      "outputs": [
        {
          "internalType": "address",
          "name": "",
          "type": "address"
        }
      ],
      "stateMutability": "view",
      "type": "function"
    },
    {
      "inputs": [],
      "name": "VOTING_MACHINE",
      "outputs": [
        {
          "internalType": "address",
          "name": "",
          "type": "address"
        }
      ],
      "stateMutability": "view",
      "type": "function"
    },
    {
      "inputs": [],
      "name": "VOTING_MACHINE_CHAIN_ID",
      "outputs": [
        {
          "internalType": "uint256",
          "name": "",
          "type": "uint256"
        }
      ],
      "stateMutability": "view",
      "type": "function"
    },
    {
      "inputs": [
        {
          "internalType": "bytes",
          "name": "message",
          "type": "bytes"
        }
      ],
      "name": "decodeMessage",
      "outputs": [
        {
          "internalType": "uint256",
          "name": "",
          "type": "uint256"
        },
        {
          "internalType": "uint128",
          "name": "",
          "type": "uint128"
        },
        {
          "internalType": "uint128",
          "name": "",
          "type": "uint128"
        }
      ],
      "stateMutability": "pure",
      "type": "function"
    },
    {
      "inputs": [
        {
          "internalType": "uint256",
          "name": "proposalId",
          "type": "uint256"
        },
        {
          "internalType": "bytes32",
          "name": "blockHash",
          "type": "bytes32"
        },
        {
          "internalType": "uint24",
          "name": "votingDuration",
          "type": "uint24"
        }
      ],
      "name": "forwardStartVotingMessage",
      "outputs": [],
      "stateMutability": "nonpayable",
      "type": "function"
    },
    {
      "inputs": [],
      "name": "getStartVotingGasLimit",
      "outputs": [
        {
          "internalType": "uint128",
          "name": "",
          "type": "uint128"
        }
      ],
      "stateMutability": "view",
      "type": "function"
    },
    {
      "inputs": [],
      "name": "owner",
      "outputs": [
        {
          "internalType": "address",
          "name": "",
          "type": "address"
        }
      ],
      "stateMutability": "view",
      "type": "function"
    },
    {
      "inputs": [
        {
          "internalType": "address",
          "name": "originSender",
          "type": "address"
        },
        {
          "internalType": "uint256",
          "name": "originChainId",
          "type": "uint256"
        },
        {
          "internalType": "bytes",
          "name": "message",
          "type": "bytes"
        }
      ],
      "name": "receiveCrossChainMessage",
      "outputs": [],
      "stateMutability": "nonpayable",
      "type": "function"
    },
    {
      "inputs": [],
      "name": "renounceOwnership",
      "outputs": [],
      "stateMutability": "nonpayable",
      "type": "function"
    },
    {
      "inputs": [
        {
          "internalType": "uint128",
          "name": "gasLimit",
          "type": "uint128"
        }
      ],
      "name": "setStartVotingGasLimit",
      "outputs": [],
      "stateMutability": "nonpayable",
      "type": "function"
    },
    {
      "inputs": [
        {
          "internalType": "address",
          "name": "newOwner",
          "type": "address"
        }
      ],
      "name": "transferOwnership",
      "outputs": [],
      "stateMutability": "nonpayable",
      "type": "function"
    }
  ],
  "bytecode": {
    "object": "0x6101006040523480156200001257600080fd5b5060405162000fba38038062000fba833981016040819052620000359162000295565b6200004033620001d4565b604080518082019091526002815261383960f01b60208201526001600160a01b0382166200008c5760405162461bcd60e51b81526004016200008391906200031b565b60405180910390fd5b506040805180820190915260028152610d4d60f21b60208201526001600160a01b038716620000d05760405162461bcd60e51b81526004016200008391906200031b565b506040805180820190915260028152611a9b60f11b60208201526001600160a01b038616620001145760405162461bcd60e51b81526004016200008391906200031b565b50604080518082019091526002815261353560f01b60208201526001600160a01b038516620001585760405162461bcd60e51b81526004016200008391906200031b565b50604080518082019091526002815261353760f01b602082015283620001935760405162461bcd60e51b81526004016200008391906200031b565b506001600160a01b0380871660805285811660a052841660c05260e0839052620001bd8262000224565b620001c881620001d4565b5050505050506200036b565b600080546001600160a01b038381166001600160a01b0319831681178455604051919092169283917f8be0079c531659141344cd1fd0a4f28419497f9722a3daafe3b4186f6b6457e09190a35050565b600180546001600160801b0319166001600160801b0383169081179091556040519081527fe027149388dbada5f1681e2c4356b3fde4c3633993c9cc4740608b99853d8f419060200160405180910390a150565b80516001600160a01b03811681146200029057600080fd5b919050565b60008060008060008060c08789031215620002af57600080fd5b620002ba8762000278565b9550620002ca6020880162000278565b9450620002da6040880162000278565b6060880151608089015191955093506001600160801b0381168114620002ff57600080fd5b91506200030f60a0880162000278565b90509295509295509295565b600060208083528351808285015260005b818110156200034a578581018301518582016040015282016200032c565b506000604082860101526040601f19601f8301168501019250505092915050565b60805160a05160c05160e051610bde620003dc6000396000818161012a015281816102ac01526106cf01526000818161017a0152818161026f01526106f101526000818160be0152818161041c01526105f90152600081816102050152818161024501526106a20152610bde6000f3fe608060405234801561001057600080fd5b50600436106100b45760003560e01c8063634d45b211610071578063634d45b21461019c578063715018a6146101d45780638da5cb5b146101dc578063ac2caa15146101ed578063c495636614610200578063f2fde38b1461022757600080fd5b806314627834146100b957806315034cba146100fd57806324fb2b0b1461011257806325619343146101255780633174a92b1461015a5780634cdf140d14610175575b600080fd5b6100e07f000000000000000000000000000000000000000000000000000000000000000081565b6040516001600160a01b0390911681526020015b60405180910390f35b61011061010b36600461092e565b61023a565b005b610110610120366004610985565b6104d3565b61014c7f000000000000000000000000000000000000000000000000000000000000000081565b6040519081526020016100f4565b6001546040516001600160801b0390911681526020016100f4565b6100e07f000000000000000000000000000000000000000000000000000000000000000081565b6101af6101aa3660046109c6565b610533565b604080519384526001600160801b0392831660208501529116908201526060016100f4565b610110610559565b6000546001600160a01b03166100e0565b6101106101fb366004610a18565b61056d565b6100e07f000000000000000000000000000000000000000000000000000000000000000081565b610110610235366004610a3c565b610581565b336001600160a01b037f0000000000000000000000000000000000000000000000000000000000000000161480156102a357507f00000000000000000000000000000000000000000000000000000000000000006001600160a01b0316836001600160a01b0316145b80156102ce57507f000000000000000000000000000000000000000000000000000000000000000082145b604051806040016040528060028152602001610c4d60f21b815250906103105760405162461bcd60e51b81526004016103079190610a9d565b60405180910390fd5b506040516331a6a2d960e11b8152309063634d45b290610334908490600401610a9d565b606060405180830381865afa92505050801561036d575060408051601f3d908101601f1916820190925261036a91810190610ab0565b60015b6103ef573d80801561039b576040519150601f19603f3d011682016040523d82523d6000602084013e6103a0565b606091505b506000151583856001600160a01b03167fbecf68688ee26e473f425079eecf4f7e34331f03a1dbf73b5a37c9a937b3a3d285856040516103e1929190610ae8565b60405180910390a450505050565b6040516371b32bb160e01b8152600481018490526001600160801b038084166024830152821660448201527f00000000000000000000000000000000000000000000000000000000000000006001600160a01b0316906371b32bb190606401600060405180830381600087803b15801561046857600080fd5b505af115801561047c573d6000803e3d6000fd5b5050505060606001151586886001600160a01b03167fbecf68688ee26e473f425079eecf4f7e34331f03a1dbf73b5a37c9a937b3a3d288856040516104c2929190610ae8565b60405180910390a450505050505050565b604080516020810185905290810183905262ffffff82166060820152600090608001604051602081830303815290604052905061052d33600161051e6001546001600160801b031690565b6001600160801b0316846105f7565b50505050565b60008060008380602001905181019061054c9190610ab0565b9250925092509193909250565b610561610768565b61056b60006107c2565b565b610575610768565b61057e81610812565b50565b610589610768565b6001600160a01b0381166105ee5760405162461bcd60e51b815260206004820152602660248201527f4f776e61626c653a206e6577206f776e657220697320746865207a65726f206160448201526564647265737360d01b6064820152608401610307565b61057e816107c2565b7f00000000000000000000000000000000000000000000000000000000000000006001600160a01b0316846001600160a01b03161460405180604001604052806002815260200161189960f11b815250906106655760405162461bcd60e51b81526004016103079190610a9d565b506000838260405160200161067b929190610b16565b60408051601f19818403018152908290526315713fb560e21b825291506001600160a01b037f000000000000000000000000000000000000000000000000000000000000000016906355c4fed49061071d907f0000000000000000000000000000000000000000000000000000000000000000907f00000000000000000000000000000000000000000000000000000000000000009088908790600401610b4d565b60408051808303816000875af115801561073b573d6000803e3d6000fd5b505050506040513d601f19601f8201168201806040525081019061075f9190610b84565b50505050505050565b6000546001600160a01b0316331461056b5760405162461bcd60e51b815260206004820181905260248201527f4f776e61626c653a2063616c6c6572206973206e6f7420746865206f776e65726044820152606401610307565b600080546001600160a01b038381166001600160a01b0319831681178455604051919092169283917f8be0079c531659141344cd1fd0a4f28419497f9722a3daafe3b4186f6b6457e09190a35050565b600180546fffffffffffffffffffffffffffffffff19166001600160801b0383169081179091556040519081527fe027149388dbada5f1681e2c4356b3fde4c3633993c9cc4740608b99853d8f419060200160405180910390a150565b80356001600160a01b038116811461088657600080fd5b919050565b634e487b7160e01b600052604160045260246000fd5b600082601f8301126108b257600080fd5b813567ffffffffffffffff808211156108cd576108cd61088b565b604051601f8301601f19908116603f011681019082821181831017156108f5576108f561088b565b8160405283815286602085880101111561090e57600080fd5b836020870160208301376000602085830101528094505050505092915050565b60008060006060848603121561094357600080fd5b61094c8461086f565b925060208401359150604084013567ffffffffffffffff81111561096f57600080fd5b61097b868287016108a1565b9150509250925092565b60008060006060848603121561099a57600080fd5b8335925060208401359150604084013562ffffff811681146109bb57600080fd5b809150509250925092565b6000602082840312156109d857600080fd5b813567ffffffffffffffff8111156109ef57600080fd5b6109fb848285016108a1565b949350505050565b6001600160801b038116811461057e57600080fd5b600060208284031215610a2a57600080fd5b8135610a3581610a03565b9392505050565b600060208284031215610a4e57600080fd5b610a358261086f565b6000815180845260005b81811015610a7d57602081850181015186830182015201610a61565b506000602082860101526020601f19601f83011685010191505092915050565b602081526000610a356020830184610a57565b600080600060608486031215610ac557600080fd5b835192506020840151610ad781610a03565b60408501519092506109bb81610a03565b604081526000610afb6040830185610a57565b8281036020840152610b0d8185610a57565b95945050505050565b600060028410610b3657634e487b7160e01b600052602160045260246000fd5b838252604060208301526109fb6040830184610a57565b84815260018060a01b0384166020820152826040820152608060608201526000610b7a6080830184610a57565b9695505050505050565b60008060408385031215610b9757600080fd5b50508051602090910151909290915056fea26469706673582212202267b03209288bf0b59e49befa708a942fbe4f15bd16198c891ec222aa7587d664736f6c63430008130033",
    "linkReferences": {}
  },
  "methodIdentifiers": {
    "CROSS_CHAIN_CONTROLLER()": "c4956366",
    "GOVERNANCE()": "14627834",
    "VOTING_MACHINE()": "4cdf140d",
    "VOTING_MACHINE_CHAIN_ID()": "25619343",
    "decodeMessage(bytes)": "634d45b2",
    "forwardStartVotingMessage(uint256,bytes32,uint24)": "24fb2b0b",
    "getStartVotingGasLimit()": "3174a92b",
    "owner()": "8da5cb5b",
    "receiveCrossChainMessage(address,uint256,bytes)": "15034cba",
    "renounceOwnership()": "715018a6",
    "setStartVotingGasLimit(uint128)": "ac2caa15",
    "transferOwnership(address)": "f2fde38b"
  },
  "id": 156
}