{
  "abi": [
    {
      "inputs": [],
      "name": "LISTING_ENGINE",
      "outputs": [
        {
          "internalType": "contract IAaveV3ConfigEngine",
          "name": "",
          "type": "address"
        }
      ],
      "stateMutability": "view",
      "type": "function"
    },
    {
      "inputs": [],
      "name": "borrowsUpdates",
      "outputs": [
        {
          "components": [
            {
              "internalType": "address",
              "name": "asset",
              "type": "address"
            },
            {
              "internalType": "uint256",
              "name": "enabledToBorrow",
              "type": "uint256"
            },
            {
              "internalType": "uint256",
              "name": "flashloanable",
              "type": "uint256"
            },
            {
              "internalType": "uint256",
              "name": "stableRateModeEnabled",
              "type": "uint256"
            },
            {
              "internalType": "uint256",
              "name": "borrowableInIsolation",
              "type": "uint256"
            },
            {
              "internalType": "uint256",
              "name": "withSiloedBorrowing",
              "type": "uint256"
            },
            {
              "internalType": "uint256",
              "name": "reserveFactor",
              "type": "uint256"
            }
          ],
          "internalType": "struct IAaveV3ConfigEngine.BorrowUpdate[]",
          "name": "",
          "type": "tuple[]"
        }
      ],
      "stateMutability": "view",
      "type": "function"
    },
    {
      "inputs": [],
      "name": "capsUpdates",
      "outputs": [
        {
          "components": [
            {
              "internalType": "address",
              "name": "asset",
              "type": "address"
            },
            {
              "internalType": "uint256",
              "name": "supplyCap",
              "type": "uint256"
            },
            {
              "internalType": "uint256",
              "name": "borrowCap",
              "type": "uint256"
            }
          ],
          "internalType": "struct IAaveV3ConfigEngine.CapsUpdate[]",
          "name": "",
          "type": "tuple[]"
        }
      ],
      "stateMutability": "pure",
      "type": "function"
    },
    {
      "inputs": [],
      "name": "collateralsUpdates",
      "outputs": [
        {
          "components": [
            {
              "internalType": "address",
              "name": "asset",
              "type": "address"
            },
            {
              "internalType": "uint256",
              "name": "ltv",
              "type": "uint256"
            },
            {
              "internalType": "uint256",
              "name": "liqThreshold",
              "type": "uint256"
            },
            {
              "internalType": "uint256",
              "name": "liqBonus",
              "type": "uint256"
            },
            {
              "internalType": "uint256",
              "name": "debtCeiling",
              "type": "uint256"
            },
            {
              "internalType": "uint256",
              "name": "liqProtocolFee",
              "type": "uint256"
            },
            {
              "internalType": "uint256",
              "name": "eModeCategory",
              "type": "uint256"
            }
          ],
          "internalType": "struct IAaveV3ConfigEngine.CollateralUpdate[]",
          "name": "",
          "type": "tuple[]"
        }
      ],
      "stateMutability": "view",
      "type": "function"
    },
    {
      "inputs": [],
      "name": "execute",
      "outputs": [],
      "stateMutability": "nonpayable",
      "type": "function"
    },
    {
      "inputs": [],
      "name": "getPoolContext",
      "outputs": [
        {
          "components": [
            {
              "internalType": "string",
              "name": "networkName",
              "type": "string"
            },
            {
              "internalType": "string",
              "name": "networkAbbreviation",
              "type": "string"
            }
          ],
          "internalType": "struct IAaveV3ConfigEngine.PoolContext",
          "name": "",
          "type": "tuple"
        }
      ],
      "stateMutability": "pure",
      "type": "function"
    },
    {
      "inputs": [],
      "name": "newListings",
      "outputs": [
        {
          "components": [
            {
              "internalType": "address",
              "name": "asset",
              "type": "address"
            },
            {
              "internalType": "string",
              "name": "assetSymbol",
              "type": "string"
            },
            {
              "internalType": "address",
              "name": "priceFeed",
              "type": "address"
            },
            {
              "components": [
                {
                  "internalType": "uint256",
                  "name": "optimalUsageRatio",
                  "type": "uint256"
                },
                {
                  "internalType": "uint256",
                  "name": "baseVariableBorrowRate",
                  "type": "uint256"
                },
                {
                  "internalType": "uint256",
                  "name": "variableRateSlope1",
                  "type": "uint256"
                },
                {
                  "internalType": "uint256",
                  "name": "variableRateSlope2",
                  "type": "uint256"
                },
                {
                  "internalType": "uint256",
                  "name": "stableRateSlope1",
                  "type": "uint256"
                },
                {
                  "internalType": "uint256",
                  "name": "stableRateSlope2",
                  "type": "uint256"
                },
                {
                  "internalType": "uint256",
                  "name": "baseStableRateOffset",
                  "type": "uint256"
                },
                {
                  "internalType": "uint256",
                  "name": "stableRateExcessOffset",
                  "type": "uint256"
                },
                {
                  "internalType": "uint256",
                  "name": "optimalStableToTotalDebtRatio",
                  "type": "uint256"
                }
              ],
              "internalType": "struct IV3RateStrategyFactory.RateStrategyParams",
              "name": "rateStrategyParams",
              "type": "tuple"
            },
            {
              "internalType": "uint256",
              "name": "enabledToBorrow",
              "type": "uint256"
            },
            {
              "internalType": "uint256",
              "name": "stableRateModeEnabled",
              "type": "uint256"
            },
            {
              "internalType": "uint256",
              "name": "borrowableInIsolation",
              "type": "uint256"
            },
            {
              "internalType": "uint256",
              "name": "withSiloedBorrowing",
              "type": "uint256"
            },
            {
              "internalType": "uint256",
              "name": "flashloanable",
              "type": "uint256"
            },
            {
              "internalType": "uint256",
              "name": "ltv",
              "type": "uint256"
            },
            {
              "internalType": "uint256",
              "name": "liqThreshold",
              "type": "uint256"
            },
            {
              "internalType": "uint256",
              "name": "liqBonus",
              "type": "uint256"
            },
            {
              "internalType": "uint256",
              "name": "reserveFactor",
              "type": "uint256"
            },
            {
              "internalType": "uint256",
              "name": "supplyCap",
              "type": "uint256"
            },
            {
              "internalType": "uint256",
              "name": "borrowCap",
              "type": "uint256"
            },
            {
              "internalType": "uint256",
              "name": "debtCeiling",
              "type": "uint256"
            },
            {
              "internalType": "uint256",
              "name": "liqProtocolFee",
              "type": "uint256"
            },
            {
              "internalType": "uint8",
              "name": "eModeCategory",
              "type": "uint8"
            }
          ],
          "internalType": "struct IAaveV3ConfigEngine.Listing[]",
          "name": "",
          "type": "tuple[]"
        }
      ],
      "stateMutability": "view",
      "type": "function"
    },
    {
      "inputs": [],
      "name": "newListingsCustom",
      "outputs": [
        {
          "components": [
            {
              "components": [
                {
                  "internalType": "address",
                  "name": "asset",
                  "type": "address"
                },
                {
                  "internalType": "string",
                  "name": "assetSymbol",
                  "type": "string"
                },
                {
                  "internalType": "address",
                  "name": "priceFeed",
                  "type": "address"
                },
                {
                  "components": [
                    {
                      "internalType": "uint256",
                      "name": "optimalUsageRatio",
                      "type": "uint256"
                    },
                    {
                      "internalType": "uint256",
                      "name": "baseVariableBorrowRate",
                      "type": "uint256"
                    },
                    {
                      "internalType": "uint256",
                      "name": "variableRateSlope1",
                      "type": "uint256"
                    },
                    {
                      "internalType": "uint256",
                      "name": "variableRateSlope2",
                      "type": "uint256"
                    },
                    {
                      "internalType": "uint256",
                      "name": "stableRateSlope1",
                      "type": "uint256"
                    },
                    {
                      "internalType": "uint256",
                      "name": "stableRateSlope2",
                      "type": "uint256"
                    },
                    {
                      "internalType": "uint256",
                      "name": "baseStableRateOffset",
                      "type": "uint256"
                    },
                    {
                      "internalType": "uint256",
                      "name": "stableRateExcessOffset",
                      "type": "uint256"
                    },
                    {
                      "internalType": "uint256",
                      "name": "optimalStableToTotalDebtRatio",
                      "type": "uint256"
                    }
                  ],
                  "internalType": "struct IV3RateStrategyFactory.RateStrategyParams",
                  "name": "rateStrategyParams",
                  "type": "tuple"
                },
                {
                  "internalType": "uint256",
                  "name": "enabledToBorrow",
                  "type": "uint256"
                },
                {
                  "internalType": "uint256",
                  "name": "stableRateModeEnabled",
                  "type": "uint256"
                },
                {
                  "internalType": "uint256",
                  "name": "borrowableInIsolation",
                  "type": "uint256"
                },
                {
                  "internalType": "uint256",
                  "name": "withSiloedBorrowing",
                  "type": "uint256"
                },
                {
                  "internalType": "uint256",
                  "name": "flashloanable",
                  "type": "uint256"
                },
                {
                  "internalType": "uint256",
                  "name": "ltv",
                  "type": "uint256"
                },
                {
                  "internalType": "uint256",
                  "name": "liqThreshold",
                  "type": "uint256"
                },
                {
                  "internalType": "uint256",
                  "name": "liqBonus",
                  "type": "uint256"
                },
                {
                  "internalType": "uint256",
                  "name": "reserveFactor",
                  "type": "uint256"
                },
                {
                  "internalType": "uint256",
                  "name": "supplyCap",
                  "type": "uint256"
                },
                {
                  "internalType": "uint256",
                  "name": "borrowCap",
                  "type": "uint256"
                },
                {
                  "internalType": "uint256",
                  "name": "debtCeiling",
                  "type": "uint256"
                },
                {
                  "internalType": "uint256",
                  "name": "liqProtocolFee",
                  "type": "uint256"
                },
                {
                  "internalType": "uint8",
                  "name": "eModeCategory",
                  "type": "uint8"
                }
              ],
              "internalType": "struct IAaveV3ConfigEngine.Listing",
              "name": "base",
              "type": "tuple"
            },
            {
              "components": [
                {
                  "internalType": "address",
                  "name": "aToken",
                  "type": "address"
                },
                {
                  "internalType": "address",
                  "name": "vToken",
                  "type": "address"
                },
                {
                  "internalType": "address",
                  "name": "sToken",
                  "type": "address"
                }
              ],
              "internalType": "struct IAaveV3ConfigEngine.TokenImplementations",
              "name": "implementations",
              "type": "tuple"
            }
          ],
          "internalType": "struct IAaveV3ConfigEngine.ListingWithCustomImpl[]",
          "name": "",
          "type": "tuple[]"
        }
      ],
      "stateMutability": "view",
      "type": "function"
    },
    {
      "inputs": [],
      "name": "priceFeedsUpdates",
      "outputs": [
        {
          "components": [
            {
              "internalType": "address",
              "name": "asset",
              "type": "address"
            },
            {
              "internalType": "address",
              "name": "priceFeed",
              "type": "address"
            }
          ],
          "internalType": "struct IAaveV3ConfigEngine.PriceFeedUpdate[]",
          "name": "",
          "type": "tuple[]"
        }
      ],
      "stateMutability": "view",
      "type": "function"
    },
    {
      "inputs": [],
      "name": "rateStrategiesUpdates",
      "outputs": [
        {
          "components": [
            {
              "internalType": "address",
              "name": "asset",
              "type": "address"
            },
            {
              "components": [
                {
                  "internalType": "uint256",
                  "name": "optimalUsageRatio",
                  "type": "uint256"
                },
                {
                  "internalType": "uint256",
                  "name": "baseVariableBorrowRate",
                  "type": "uint256"
                },
                {
                  "internalType": "uint256",
                  "name": "variableRateSlope1",
                  "type": "uint256"
                },
                {
                  "internalType": "uint256",
                  "name": "variableRateSlope2",
                  "type": "uint256"
                },
                {
                  "internalType": "uint256",
                  "name": "stableRateSlope1",
                  "type": "uint256"
                },
                {
                  "internalType": "uint256",
                  "name": "stableRateSlope2",
                  "type": "uint256"
                },
                {
                  "internalType": "uint256",
                  "name": "baseStableRateOffset",
                  "type": "uint256"
                },
                {
                  "internalType": "uint256",
                  "name": "stableRateExcessOffset",
                  "type": "uint256"
                },
                {
                  "internalType": "uint256",
                  "name": "optimalStableToTotalDebtRatio",
                  "type": "uint256"
                }
              ],
              "internalType": "struct IV3RateStrategyFactory.RateStrategyParams",
              "name": "params",
              "type": "tuple"
            }
          ],
          "internalType": "struct IAaveV3ConfigEngine.RateStrategyUpdate[]",
          "name": "",
          "type": "tuple[]"
        }
      ],
      "stateMutability": "view",
      "type": "function"
    }
  ],
  "bytecode": {
    "object": "0x60a060405234801561001057600080fd5b5073e202f2fc4b6a37ba53cfd15be42a762a645fca07608052608051610b6961004a6000396000818160a801526101f60152610b696000f3fe608060405234801561001057600080fd5b506004361061009e5760003560e01c8063b1af0d0d11610066578063b1af0d0d14610124578063c0a2558014610133578063d0c38c2714610142578063fabe346314610151578063fbb256f61461016057600080fd5b80630a4aa3fa146100a35780631850edd8146100e75780632b179434146100f6578063614619541461010557806395a93cb11461010f575b600080fd5b6100ca7f000000000000000000000000000000000000000000000000000000000000000081565b6040516001600160a01b0390911681526020015b60405180910390f35b60606040516100de91906105ca565b60606040516100de9190610618565b61010d610175565b005b61011761030e565b6040516100de919061065a565b60606040516100de91906106bc565b60606040516100de9190610910565b60606040516100de9190610923565b60606040516100de91906109ff565b6101686103cb565b6040516100de9190610a49565b606080600061018261030e565b83519091506060908190819081901561021e5761021c633cb6502d60e01b6101a86103cb565b896040516024016101ba929190610a5c565b60408051601f198184030181529190526020810180516001600160e01b03166001600160e01b0319909316929092179091526001600160a01b037f0000000000000000000000000000000000000000000000000000000000000000169061042a565b505b85511561024c5761024a6314d8093760e21b6102386103cb565b886040516024016101ba929190610a81565b505b8251156102715761026f63bb06653560e01b846040516024016101ba91906105ca565b505b8351156102965761029463dc2ec30e60e01b856040516024016101ba9190610618565b505b8051156102bb576102b96324f4c44560e01b826040516024016101ba9190610923565b505b8151156102e0576102de63927c400360e01b836040516024016101ba91906106bc565b505b845115610305576103036355caa16360e01b866040516024016101ba919061065a565b505b50505050505050565b60408051600180825281830190925260609160009190816020015b610356604051806060016040528060006001600160a01b0316815260200160008152602001600081525090565b8152602001906001900390816103295750506040805160608101825273d533a949740bb3306d119cc777fa900ba034cd5281526303197500602082015291925081016103a5602a600019610aa6565b815250816000815181106103bb576103bb610ac7565b6020908102919091010152919050565b60408051808201909152606080825260208201525060408051608081018252600881830190815267457468657265756d60c01b606083015281528151808301909252600382526208ae8d60eb1b60208381019190915281019190915290565b606061044f8383604051806060016040528060278152602001610b0d60279139610458565b90505b92915050565b6060600080856001600160a01b0316856040516104759190610add565b600060405180830381855af49150503d80600081146104b0576040519150601f19603f3d011682016040523d82523d6000602084013e6104b5565b606091505b50915091506104c6868383876104d0565b9695505050505050565b6060831561054457825160000361053d576001600160a01b0385163b61053d5760405162461bcd60e51b815260206004820152601d60248201527f416464726573733a2063616c6c20746f206e6f6e2d636f6e747261637400000060448201526064015b60405180910390fd5b508161054e565b61054e8383610556565b949350505050565b8151156105665781518083602001fd5b8060405162461bcd60e51b81526004016105349190610af9565b80516001600160a01b031682526020808201519083015260408082015190830152606080820151908301526080808201519083015260a0818101519083015260c090810151910152565b6020808252825182820181905260009190848201906040850190845b8181101561060c576105f9838551610580565b9284019260e092909201916001016105e6565b50909695505050505050565b6020808252825182820181905260009190848201906040850190845b8181101561060c57610647838551610580565b9284019260e09290920191600101610634565b602080825282518282018190526000919060409081850190868401855b828110156106af57815180516001600160a01b0316855286810151878601528501518585015260609093019290850190600101610677565b5091979650505050505050565b602080825282518282018190526000919060409081850190868401855b828110156106af57815180516001600160a01b03908116865290870151168685015292840192908501906001016106d9565b60005b8381101561072657818101518382015260200161070e565b50506000910152565b6000815180845261074781602086016020860161070b565b601f01601f19169290920160200192915050565b805182526020810151602083015260408101516040830152606081015160608301526080810151608083015260a081015160a083015260c081015160c083015260e081015160e08301526101008082015181840152505050565b80516001600160a01b03168252600061034060208301518160208601526107de8286018261072f565b91505060408301516107fb60408601826001600160a01b03169052565b50606083015161080e606086018261075b565b5060808301516101808581019190915260a08401516101a08087019190915260c08501516101c08088019190915260e08601516101e080890191909152610100870151610200808a0191909152610120880151610220808b01919091526101408901516102408b01526101608901516102608b0152948801516102808a0152928701516102a0890152908601516102c08801528501516102e087015284015161030086015283015160ff8116610320860152509392505050565b600081518084526020808501808196508360051b8101915082860160005b858110156106af5782840389526108fe8483516107b5565b988501989350908401906001016108e6565b60208152600061044f60208301846108c8565b6020808252825182820181905260009190848201906040850190845b8181101561060c57835180516001600160a01b031684528501516109658685018261075b565b5092840192610140929092019160010161093f565b600081518084526020808501808196508360051b8101915082860160005b858110156106af5782840389528151608081518187526109ba828801826107b5565b9288015180516001600160a01b03908116898b0152818a015181166040808b019190915290910151166060909701969096525098850198935090840190600101610998565b60208152600061044f602083018461097a565b6000815160408452610a27604085018261072f565b905060208301518482036020860152610a40828261072f565b95945050505050565b60208152600061044f6020830184610a12565b604081526000610a6f6040830185610a12565b8281036020840152610a4081856108c8565b604081526000610a946040830185610a12565b8281036020840152610a40818561097a565b8181038181111561045257634e487b7160e01b600052601160045260246000fd5b634e487b7160e01b600052603260045260246000fd5b60008251610aef81846020870161070b565b9190910192915050565b60208152600061044f602083018461072f56fe416464726573733a206c6f772d6c6576656c2064656c65676174652063616c6c206661696c6564a2646970667358221220e11cbd91ec3a3436e3224f038946e9920252e041fcf1ede9816b23d13ce3597164736f6c63430008130033",
    "linkReferences": {}
  },
  "methodIdentifiers": {
    "LISTING_ENGINE()": "0a4aa3fa",
    "borrowsUpdates()": "1850edd8",
    "capsUpdates()": "95a93cb1",
    "collateralsUpdates()": "2b179434",
    "execute()": "61461954",
    "getPoolContext()": "fbb256f6",
    "newListings()": "c0a25580",
    "newListingsCustom()": "fabe3463",
    "priceFeedsUpdates()": "b1af0d0d",
    "rateStrategiesUpdates()": "d0c38c27"
  },
  "id": 34
}