{
  "abi": [
    {
      "inputs": [],
      "name": "CRV_LIQUIDATION_BONUS",
      "outputs": [
        {
          "internalType": "uint256",
          "name": "",
          "type": "uint256"
        }
      ],
      "stateMutability": "view",
      "type": "function"
    },
    {
      "inputs": [],
      "name": "CRV_LIQUIDATION_THRESHOLD",
      "outputs": [
        {
          "internalType": "uint256",
          "name": "",
          "type": "uint256"
        }
      ],
      "stateMutability": "view",
      "type": "function"
    },
    {
      "inputs": [],
      "name": "CRV_LTV",
      "outputs": [
        {
          "internalType": "uint256",
          "name": "",
          "type": "uint256"
        }
      ],
      "stateMutability": "view",
      "type": "function"
    },
    {
      "inputs": [],
      "name": "LISTING_ENGINE",
      "outputs": [
        {
          "internalType": "contract IAaveV2ConfigEngine",
          "name": "",
          "type": "address"
        }
      ],
      "stateMutability": "view",
      "type": "function"
    },
    {
      "inputs": [],
      "name": "execute",
      "outputs": [],
      "stateMutability": "nonpayable",
      "type": "function"
    },
    {
      "inputs": [],
      "name": "rateStrategiesUpdates",
      "outputs": [
        {
          "components": [
            {
              "internalType": "address",
              "name": "asset",
              "type": "address"
            },
            {
              "components": [
                {
                  "internalType": "uint256",
                  "name": "optimalUtilizationRate",
                  "type": "uint256"
                },
                {
                  "internalType": "uint256",
                  "name": "baseVariableBorrowRate",
                  "type": "uint256"
                },
                {
                  "internalType": "uint256",
                  "name": "variableRateSlope1",
                  "type": "uint256"
                },
                {
                  "internalType": "uint256",
                  "name": "variableRateSlope2",
                  "type": "uint256"
                },
                {
                  "internalType": "uint256",
                  "name": "stableRateSlope1",
                  "type": "uint256"
                },
                {
                  "internalType": "uint256",
                  "name": "stableRateSlope2",
                  "type": "uint256"
                }
              ],
              "internalType": "struct IV2RateStrategyFactory.RateStrategyParams",
              "name": "params",
              "type": "tuple"
            }
          ],
          "internalType": "struct IAaveV2ConfigEngine.RateStrategyUpdate[]",
          "name": "",
          "type": "tuple[]"
        }
      ],
      "stateMutability": "view",
      "type": "function"
    }
  ],
  "bytecode": {
    "object": "0x60a060405234801561001057600080fd5b50739eced0293e7b73cff4a2b4f9c82aac8346158bd96080526080516104c761004a60003960008181606c015261014e01526104c76000f3fe608060405234801561001057600080fd5b50600436106100625760003560e01c80630a4aa3fa14610067578063357380ee146100ab57806361461954146100c25780638b02e5ef146100cc578063baa1f1d9146100d5578063d0c38c27146100de575b600080fd5b61008e7f000000000000000000000000000000000000000000000000000000000000000081565b6040516001600160a01b0390911681526020015b60405180910390f35b6100b461157c81565b6040519081526020016100a2565b6100ca6100ed565b005b6100b461138881565b6100b4612a3081565b60606040516100a29190610367565b606080511561017657610174634f48253d60e01b826040516024016101129190610367565b60408051601f198184030181529190526020810180516001600160e01b03166001600160e01b0319909316929092179091526001600160a01b037f00000000000000000000000000000000000000000000000000000000000000001690610181565b505b61017e6101ad565b50565b60606101a6838360405180606001604052806027815260200161046b6027913961023f565b9392505050565b604051637c4e560b60e01b815273d533a949740bb3306d119cc777fa900ba034cd526004820152611388602482015261157c6044820152612a30606482015273311bb771e4f8952e6da169b425e7e92d6ac4575690637c4e560b90608401600060405180830381600087803b15801561022557600080fd5b505af1158015610239573d6000803e3d6000fd5b50505050565b6060600080856001600160a01b03168560405161025c919061041b565b600060405180830381855af49150503d8060008114610297576040519150601f19603f3d011682016040523d82523d6000602084013e61029c565b606091505b50915091506102ad868383876102b7565b9695505050505050565b6060831561032b578251600003610324576001600160a01b0385163b6103245760405162461bcd60e51b815260206004820152601d60248201527f416464726573733a2063616c6c20746f206e6f6e2d636f6e747261637400000060448201526064015b60405180910390fd5b5081610335565b610335838361033d565b949350505050565b81511561034d5781518083602001fd5b8060405162461bcd60e51b815260040161031b9190610437565b602080825282518282018190526000919060409081850190868401855b828110156103ea57815180516001600160a01b0316855286015180518786015280870151868601528581015160608087019190915281015160808087019190915281015160a086810191909152015160c085015260e09093019290850190600101610384565b5091979650505050505050565b60005b838110156104125781810151838201526020016103fa565b50506000910152565b6000825161042d8184602087016103f7565b9190910192915050565b60208152600082518060208401526104568160408501602087016103f7565b601f01601f1916919091016040019291505056fe416464726573733a206c6f772d6c6576656c2064656c65676174652063616c6c206661696c6564a2646970667358221220eaf2c5a7f70917ade1250bb2092fe0a5ce6c020a270c84fc00d98d80bb291dc064736f6c63430008130033",
    "linkReferences": {}
  },
  "methodIdentifiers": {
    "CRV_LIQUIDATION_BONUS()": "baa1f1d9",
    "CRV_LIQUIDATION_THRESHOLD()": "357380ee",
    "CRV_LTV()": "8b02e5ef",
    "LISTING_ENGINE()": "0a4aa3fa",
    "execute()": "61461954",
    "rateStrategiesUpdates()": "d0c38c27"
  },
  "id": 34
}