{
  "abi": [
    {
      "inputs": [],
      "name": "ErrorCreatingContract",
      "type": "error"
    },
    {
      "inputs": [],
      "name": "ErrorCreatingProxy",
      "type": "error"
    },
    {
      "inputs": [],
      "name": "TargetAlreadyExists",
      "type": "error"
    },
    {
      "inputs": [
        {
          "internalType": "bytes32",
          "name": "salt",
          "type": "bytes32"
        },
        {
          "internalType": "bytes",
          "name": "creationCode",
          "type": "bytes"
        }
      ],
      "name": "create",
      "outputs": [
        {
          "internalType": "address",
          "name": "",
          "type": "address"
        }
      ],
      "stateMutability": "payable",
      "type": "function"
    },
    {
      "inputs": [
        {
          "internalType": "address",
          "name": "deployer",
          "type": "address"
        },
        {
          "internalType": "bytes32",
          "name": "salt",
          "type": "bytes32"
        }
      ],
      "name": "predictAddress",
      "outputs": [
        {
          "internalType": "address",
          "name": "",
          "type": "address"
        }
      ],
      "stateMutability": "view",
      "type": "function"
    }
  ],
  "bytecode": {
    "object": "0x608060405234801561001057600080fd5b50610458806100206000396000f3fe6080604052600436106100295760003560e01c80635b37e1501461002e578063cb1939421461005d575b600080fd5b61004161003c366004610300565b61007d565b6040516001600160a01b03909116815260200160405180910390f35b34801561006957600080fd5b506100416100783660046103bb565b6100ca565b6040516001600160601b03193360601b166020820152603481018390526000906054016040516020818303038152906040528051906020012092506100c383833461010f565b9392505050565b6040516001600160601b0319606084901b166020820152603481018290526000906054016040516020818303038152906040528051906020012091506100c38261023c565b60408051808201909152601781527f630000000980600e6000396000f3363d8037363d34f0ff0000000000000000006020820152600090816101508661023c565b9050803b156101725760405163cd43efa160e01b815260040160405180910390fd5b60008683516020850187f590506001600160a01b0381166101a65760405163bbd2fe8760e01b815260040160405180910390fd5b6000816001600160a01b0316876040516101c091906103f3565b6000604051808303816000865af19150503d80600081146101fd576040519150601f19603f3d011682016040523d82523d6000602084013e610202565b606091505b505090508015806102125750823b155b15610230576040516353de54b960e01b815260040160405180910390fd5b50909695505050505050565b604080516001600160f81b031960208083019190915230606090811b6001600160601b0319908116602185015260358401959095527f68afe50fe78ae96feb6ec11f21f31fdd467c9fcc7add426282cfa3913daf04e9605580850191909152845180850390910181526075840185528051908301206135a560f21b6095850152901b9093166097820152600160f81b60ab8201528151608c81830301815260ac909101909152805191012090565b634e487b7160e01b600052604160045260246000fd5b6000806040838503121561031357600080fd5b82359150602083013567ffffffffffffffff8082111561033257600080fd5b818501915085601f83011261034657600080fd5b813581811115610358576103586102ea565b604051601f8201601f19908116603f01168101908382118183101715610380576103806102ea565b8160405282815288602084870101111561039957600080fd5b8260208601602083013760006020848301015280955050505050509250929050565b600080604083850312156103ce57600080fd5b82356001600160a01b03811681146103e557600080fd5b946020939093013593505050565b6000825160005b8181101561041457602081860181015185830152016103fa565b50600092019182525091905056fea264697066735822122085d08e80f4579a889a5360a213f5e95034c641cedc336badcd50fc1688cddf2164736f6c63430008130033",
    "linkReferences": {}
  },
  "methodIdentifiers": {
    "create(bytes32,bytes)": "5b37e150",
    "predictAddress(address,bytes32)": "cb193942"
  },
  "id": 101
}