{
  "abi": [
    {
      "inputs": [],
      "name": "execute",
      "outputs": [],
      "stateMutability": "nonpayable",
      "type": "function"
    }
  ],
  "bytecode": {
    "object": "0x608060405234801561001057600080fd5b506103b5806100206000396000f3fe608060405234801561001057600080fd5b506004361061002b5760003560e01c80636146195414610030575b600080fd5b61003861003a565b005b60405163f2fde38b60e01b8152733785149dc7b45a2383dfcf4bc78e44bfce47411160048201527386c3ffee349a7cff7ca88c449717b1b133bfb5179063f2fde38b90602401600060405180830381600087803b15801561009a57600080fd5b505af11580156100ae573d6000803e3d6000fd5b5050604051634dd18bf560e01b8152733785149dc7b45a2383dfcf4bc78e44bfce4741116004820152309250634dd18bf59150602401600060405180830381600087803b1580156100fe57600080fd5b505af1158015610112573d6000803e3d6000fd5b5050604080516020810182526000808252915163025d36a960e01b8152733785149dc7b45a2383dfcf4bc78e44bfce474111945063025d36a9935061015f92309290918290600401610245565b6000604051808303816000875af115801561017e573d6000803e3d6000fd5b505050506040513d6000823e601f3d908101601f191682016040526101a691908101906102d2565b5060405163f2fde38b60e01b815273f6fb2b1ab6ef8fb24f068229932e60276c9950ae6004820152733785149dc7b45a2383dfcf4bc78e44bfce4741119063f2fde38b90602401600060405180830381600087803b15801561020757600080fd5b505af115801561021b573d6000803e3d6000fd5b50505050565b60005b8381101561023c578181015183820152602001610224565b50506000910152565b60018060a01b038516815283602082015260a06040820152600d60a08201526c61636365707441646d696e282960981b60c082015260e06060820152600083518060e084015261010061029e8282860160208901610221565b9315156080840152601f01601f191691909101909101949350505050565b634e487b7160e01b600052604160045260246000fd5b6000602082840312156102e457600080fd5b815167ffffffffffffffff808211156102fc57600080fd5b818401915084601f83011261031057600080fd5b815181811115610322576103226102bc565b604051601f8201601f19908116603f0116810190838211818310171561034a5761034a6102bc565b8160405282815287602084870101111561036357600080fd5b610374836020830160208801610221565b97965050505050505056fea2646970667358221220ebd5e4bc8dd6d807e76d276d46984ca6df02c6674c6480d991d1651a91cace0364736f6c63430008130033",
    "linkReferences": {}
  },
  "methodIdentifiers": {
    "execute()": "61461954"
  },
  "id": 90
}