{
  "abi": [
    {
      "inputs": [
        {
          "internalType": "address",
          "name": "newExecutor",
          "type": "address"
        }
      ],
      "stateMutability": "nonpayable",
      "type": "constructor"
    },
    {
      "inputs": [],
      "name": "LEVEL_2_EXECUTOR_V3",
      "outputs": [
        {
          "internalType": "address",
          "name": "",
          "type": "address"
        }
      ],
      "stateMutability": "view",
      "type": "function"
    },
    {
      "inputs": [],
      "name": "PAYLOAD_CONTROLLER",
      "outputs": [
        {
          "internalType": "address",
          "name": "",
          "type": "address"
        }
      ],
      "stateMutability": "view",
      "type": "function"
    },
    {
      "inputs": [],
      "name": "execute",
      "outputs": [],
      "stateMutability": "nonpayable",
      "type": "function"
    }
  ],
  "bytecode": {
    "object": "0x60a060405234801561001057600080fd5b506040516104fc3803806104fc83398101604081905261002f91610040565b6001600160a01b0316608052610070565b60006020828403121561005257600080fd5b81516001600160a01b038116811461006957600080fd5b9392505050565b6080516104576100a56000396000818160790152818160b20152818161013d015281816101c4015261025d01526104576000f3fe608060405234801561001057600080fd5b50600436106100415760003560e01c80636146195414610046578063af262b2414610050578063cb21e87e14610074575b600080fd5b61004e61009b565b005b610058600181565b6040516001600160a01b03909116815260200160405180910390f35b6100587f000000000000000000000000000000000000000000000000000000000000000081565b60405163f2fde38b60e01b81526001600160a01b037f00000000000000000000000000000000000000000000000000000000000000001660048201527386c3ffee349a7cff7ca88c449717b1b133bfb5179063f2fde38b90602401600060405180830381600087803b15801561011057600080fd5b505af1158015610124573d6000803e3d6000fd5b5050604051634dd18bf560e01b81526001600160a01b037f0000000000000000000000000000000000000000000000000000000000000000166004820152309250634dd18bf59150602401600060405180830381600087803b15801561018957600080fd5b505af115801561019d573d6000803e3d6000fd5b5050604080516020810182526000808252915163025d36a960e01b81526001600160a01b037f000000000000000000000000000000000000000000000000000000000000000016945063025d36a993506101ff923092909182906004016102e7565b6000604051808303816000875af115801561021e573d6000803e3d6000fd5b505050506040513d6000823e601f3d908101601f191682016040526102469190810190610374565b5060405163f2fde38b60e01b8152600160048201527f00000000000000000000000000000000000000000000000000000000000000006001600160a01b03169063f2fde38b90602401600060405180830381600087803b1580156102a957600080fd5b505af11580156102bd573d6000803e3d6000fd5b50505050565b60005b838110156102de5781810151838201526020016102c6565b50506000910152565b60018060a01b038516815283602082015260a06040820152600d60a08201526c61636365707441646d696e282960981b60c082015260e06060820152600083518060e084015261010061034082828601602089016102c3565b9315156080840152601f01601f191691909101909101949350505050565b634e487b7160e01b600052604160045260246000fd5b60006020828403121561038657600080fd5b815167ffffffffffffffff8082111561039e57600080fd5b818401915084601f8301126103b257600080fd5b8151818111156103c4576103c461035e565b604051601f8201601f19908116603f011681019083821181831017156103ec576103ec61035e565b8160405282815287602084870101111561040557600080fd5b6104168360208301602088016102c3565b97965050505050505056fea264697066735822122076d0e75d073718de7bc470b6bffdd254d732eb6d8841fa7d0d0c02021556b7ec64736f6c63430008130033",
    "linkReferences": {}
  },
  "methodIdentifiers": {
    "LEVEL_2_EXECUTOR_V3()": "cb21e87e",
    "PAYLOAD_CONTROLLER()": "af262b24",
    "execute()": "61461954"
  },
  "id": 74
}