{
  "abi": [
    {
      "inputs": [],
      "name": "ABPT",
      "outputs": [
        {
          "internalType": "address",
          "name": "",
          "type": "address"
        }
      ],
      "stateMutability": "view",
      "type": "function"
    },
    {
      "inputs": [],
      "name": "STK_ABPT",
      "outputs": [
        {
          "internalType": "address",
          "name": "",
          "type": "address"
        }
      ],
      "stateMutability": "view",
      "type": "function"
    },
    {
      "inputs": [],
      "name": "execute",
      "outputs": [],
      "stateMutability": "nonpayable",
      "type": "function"
    }
  ],
  "bytecode": {
    "object": "0x608060405234801561001057600080fd5b50615796806100206000396000f3fe608060405234801561001057600080fd5b50600436106100415760003560e01c80636146195414610046578063a2c8014214610050578063a7cfc76e14610087575b600080fd5b61004e6100a2565b005b61006b7341a08648c3766f9f9d85598ff102a08f4ef84f8481565b6040516001600160a01b03909116815260200160405180910390f35b61006b73a1116930326d21fb917d5a27f1e9943a9595fb4781565b60007341a08648c3766f9f9d85598ff102a08f4ef84f84737fc66500c84a76ad7e9c93437bfc5ac33e2ddae96202a3007325f2226b597e8f9514b3f68f00f494cf4f28649173ee56e2b3d491590b5b31738cc34d5232f378a8d563bc180c3860405161010d9061021e565b6001600160a01b03968716815294861660208601526040850193909352908416606084015290921660808201526fffffffffffffffffffffffffffffffff90911660a082015260c001604051809103906000f080158015610172573d6000803e3d6000fd5b506040805160048082526024820183526020820180516001600160e01b031663204a7f0760e21b1790529151639623609d60e01b815292935073d3cf979e676265e4f6379749dece4708b9a2247692639623609d926101e99273a1116930326d21fb917d5a27f1e9943a9595fb479287920161022b565b600060405180830381600087803b15801561020357600080fd5b505af1158015610217573d6000803e3d6000fd5b5050505050565b6154cb8061029683390190565b600060018060a01b038086168352602081861681850152606060408501528451915081606085015260005b8281101561027257858101820151858201608001528101610256565b50506000608082850101526080601f19601f83011684010191505094935050505056fe61024060405260006009553480156200001757600080fd5b50604051620054cb380380620054cb8339810160408190526200003a9162000274565b8585858585856040518060400160405280600b81526020016a5374616b6564204161766560a81b815250604051806040016040528060018152602001601960f91b81525083836001600160801b031680426200009791906200031d565b608052506001600160a01b031660a052620000b2826200020f565b61016052620000c1816200020f565b61018052815160208084019190912061012052815190820120610140524660e052620001516101205161014051604080517f8b73c3c69bb8fe3d512ecc4cf759cc79239f7b179b0ffacaa9a75d522b39400f60208201529081019290925260608201524660808201523060a082015260009060c00160405160208183030381529060405280519060200120905090565b60c0525050306101005250506001600160a01b039384166101a0529183166101c0526101e052166102005260046009819055506000866001600160a01b031663313ce5676040518163ffffffff1660e01b8152600401602060405180830381865afa158015620001c5573d6000803e3d6000fd5b505050506040513d601f19601f82011682018060405250810190620001eb919062000339565b60ff169050620001fd81600a62000462565b6102205250620004e895505050505050565b600080829050601f8151111562000246578260405163305a27a960e01b81526004016200023d919062000470565b60405180910390fd5b80516200025382620004c0565b179392505050565b6001600160a01b03811681146200027157600080fd5b50565b60008060008060008060c087890312156200028e57600080fd5b86516200029b816200025b565b6020880151909650620002ae816200025b565b604088015160608901519196509450620002c8816200025b565b6080880151909350620002db816200025b565b60a08801519092506001600160801b0381168114620002f957600080fd5b809150509295509295509295565b634e487b7160e01b600052601160045260246000fd5b8082018082111562000333576200033362000307565b92915050565b6000602082840312156200034c57600080fd5b815160ff811681146200035e57600080fd5b9392505050565b600181815b80851115620003a65781600019048211156200038a576200038a62000307565b808516156200039857918102915b93841c93908002906200036a565b509250929050565b600082620003bf5750600162000333565b81620003ce5750600062000333565b8160018114620003e75760028114620003f25762000412565b600191505062000333565b60ff84111562000406576200040662000307565b50506001821b62000333565b5060208310610133831016604e8410600b841016171562000437575081810a62000333565b62000443838362000365565b80600019048211156200045a576200045a62000307565b029392505050565b60006200035e8383620003ae565b600060208083528351808285015260005b818110156200049f5785810183015185820160400152820162000481565b506000604082860101526040601f19601f8301168501019250505092915050565b80516020808301519190811015620004e2576000198160200360031b1b821691505b50919050565b60805160a05160c05160e05161010051610120516101405161016051610180516101a0516101c0516101e0516102005161022051614ed2620005f9600039600081816107a501528181610cb80152818161106001526110d10152600081816108f501526126dd01526000818161069f01526121ae01526000818161092401526126bb01526000818161062501528181610d6101528181611163015281816113e8015281816123ea0152612e0801526000612f2d01526000612f8d01526000612af001526000612ac801526000612a2301526000612a4d01526000612a77015260008181610a550152611a440152600081816108ce015281816140cf0152818161410b01526141380152614ed26000f3fe608060405234801561001057600080fd5b50600436106104495760003560e01c8063787a08a611610241578063aaf5eb681161013b578063dbc0ed8a116100c3578063eab5231811610087578063eab5231814610af6578063f036bc6814610b09578063f11b818814610b1d578063f34d96da14610b7f578063fde9eb6914610b8757600080fd5b8063dbc0ed8a14610a8a578063dc937e1c14610a92578063dd62ed3e14610aa5578063dde43cba14610ade578063e6aa216c14610ae557600080fd5b8063b2a5dbfa1161010a578063b2a5dbfa14610a0a578063b2f4201d14610a1d578063b9844d8d14610a30578063cbcbb50714610a50578063d505accf14610a7757600080fd5b8063aaf5eb68146109d4578063ab406fe6146109dc578063adc9772e146109ef578063aff05aa914610a0257600080fd5b8063946776cd116101c95780639e3ffce01161018d5780639e3ffce01461096c578063a095ac1914610974578063a457c2d714610987578063a9059cbb1461099a578063aa9fbe02146109ad57600080fd5b8063946776cd146108f057806395d89b411461091757806399248ea71461091f5780639a99b4f0146109465780639c9b51541461095957600080fd5b806384b0196e1161021057806384b0196e146108845780638c9a281d1461089f5780638dbefee2146108a75780638e9b2ca4146108ba578063919cd40f146108c957600080fd5b8063787a08a6146108415780637b5b1157146108495780637e90d7ef1461085c5780638129fc1c1461087c57600080fd5b80633644e51511610352578063616e0bf9116102da578063727a5d571161029e578063727a5d571461080057806372b49d631461079857806373d6a8891461081357806374011f5614610826578063781603761461083957600080fd5b8063616e0bf9146107985780636198e135146107a0578063657f0cde146107c75780636f50458d146107da57806370a08231146107ed57600080fd5b80634575e69b116103215780634575e69b146107165780634cdad5061461073f578063570a97141461075257806358146d171461075e5780635c19a95c1461078557600080fd5b80633644e515146106c157806339509351146106c957806341cbf54a146106dc57806345755dd61461070357600080fd5b806320fb80b5116103d557806330adf81f116103a457806330adf81f146105f9578063312f6b8314610620578063313ce567146106475780633373ee4c1461065c578063359c4a961461069a57600080fd5b806320fb80b51461059857806323b872dd146105ab578063250201db146105be5780632a8b3668146105d157600080fd5b8063111fd88b1161041c578063111fd88b1461050a578063112d037c14610535578063169db77d1461054a57806318160ddd1461057d5780631e9a69501461058557600080fd5b806302fb4d851461044e57806306fdde0314610474578063091030c314610489578063095ea7b3146104e7575b600080fd5b61046161045c3660046144f9565b610b9a565b6040519081526020015b60405180910390f35b61047c610dd8565b60405161046b9190614573565b6104c2610497366004614586565b603e6020526000908152604090205464ffffffffff811690600160281b90046001600160d81b031682565b6040805164ffffffffff90931683526001600160d81b0390911660208301520161046b565b6104fa6104f53660046144f9565b610e6a565b604051901515815260200161046b565b61051d6105183660046145a1565b610e82565b6040516001600160a01b03909116815260200161046b565b6105486105433660046145ba565b610e9d565b005b61055d610558366004614586565b610eef565b604080516001600160a01b0393841681529290911660208301520161046b565b600254610461565b6105486105933660046144f9565b610f21565b6104616105a63660046145ba565b610f33565b6104fa6105b93660046145ba565b610f84565b6105486105cc366004614586565b610fa8565b6105e46105df366004614586565b610fee565b6040805192835260208301919091520161046b565b6104617f6e71edae12b1b97f4d1f60370fef10105fa2faae0126114a169c64845d6126c981565b61051d7f000000000000000000000000000000000000000000000000000000000000000081565b60125b60405160ff909116815260200161046b565b61046161066a3660046145f6565b6001600160a01b038082166000908152603c60209081526040808320938616835260029093019052205492915050565b6104617f000000000000000000000000000000000000000000000000000000000000000081565b610461611010565b6104fa6106d73660046144f9565b61101f565b6104617fd46e8b93b5190df6403875402a5c13897b72d2a576da5d1bfea20a63638d216e81565b6105486107113660046145a1565b61105e565b61051d6107243660046145a1565b6000908152604660205260409020546001600160a01b031690565b61046161074d3660046145a1565b6111c3565b6104616402540be40081565b61076d670de0b6b3a764000081565b6040516001600160d81b03909116815260200161046b565b610548610793366004614586565b6111ee565b604f54610461565b6104617f000000000000000000000000000000000000000000000000000000000000000081565b6105486107d5366004614649565b611206565b61051d6107e83660046146ba565b611342565b6104616107fb366004614586565b611357565b61046161080e3660046145a1565b61137b565b6105486108213660046146e4565b61139e565b6105486108343660046145a1565b611457565b61047c61149a565b6105486114a4565b6105486108573660046145a1565b6114af565b61046161086a366004614586565b603d6020526000908152604090205481565b610548611522565b61088c611592565b60405161046b979695949392919061473c565b610461600081565b6104616108b5366004614586565b6115d8565b610461670de0b6b3a764000081565b6104617f000000000000000000000000000000000000000000000000000000000000000081565b61051d7f000000000000000000000000000000000000000000000000000000000000000081565b61047c6116b3565b61051d7f000000000000000000000000000000000000000000000000000000000000000081565b6105486109543660046144f9565b6116c2565b6105486109673660046147d2565b6116cd565b610461600181565b610548610982366004614814565b611727565b6104fa6109953660046144f9565b611859565b6104fa6109a83660046144f9565b6118eb565b6104617f6e77642f8f60cdece0498bfeeb2f06ccfef0e8f86d28a1b6255c5e48f1d72a0381565b61064a601281565b6105486109ea366004614859565b6118f9565b6105486109fd3660046144f9565b6119bc565b6105486119c7565b610548610a183660046148ec565b611a39565b610461610a2b3660046146ba565b611af4565b610461610a3e366004614586565b60446020526000908152604090205481565b61051d7f000000000000000000000000000000000000000000000000000000000000000081565b610548610a853660046149d1565b611b38565b610461600281565b610548610aa03660046146ba565b611c7f565b610461610ab33660046145f6565b6001600160a01b03918216600090815260016020908152604080832093909416825291909152205490565b6004610461565b6051546001600160d81b031661076d565b610548610b04366004614a1f565b611c8a565b6051546104fa90600160d81b900460ff1681565b610b59610b2b366004614586565b603c60205260009081526040902080546001909101546001600160801b0380831692600160801b9004169083565b604080516001600160801b0394851681529390921660208401529082015260600161046b565b605054610461565b610548610b953660046145a1565b611ca4565b6000610ba66000610e82565b6001600160a01b0316336001600160a01b031614610bdf5760405162461bcd60e51b8152600401610bd690614a52565b60405180910390fd5b605154600160d81b900460ff1615610c395760405162461bcd60e51b815260206004820152601d60248201527f50524556494f55535f534c415348494e475f4e4f545f534554544c45440000006044820152606401610bd6565b60008211610c775760405162461bcd60e51b815260206004820152600b60248201526a16915493d7d05353d5539560aa1b6044820152606401610bd6565b6000610c8260025490565b90506000610c8f826111c3565b90506000610ca860505483611d7590919063ffffffff16565b905080851115610cb6578094505b7f0000000000000000000000000000000000000000000000000000000000000000610ce18684614a9f565b1015610d265760405162461bcd60e51b815260206004820152601460248201527352454d41494e494e475f4c545f4d494e494d554d60601b6044820152606401610bd6565b6051805460ff60d81b1916600160d81b179055610d54610d4f610d498785614a9f565b85611df7565b611e35565b610d886001600160a01b037f0000000000000000000000000000000000000000000000000000000000000000168787611ed8565b856001600160a01b03167f4ed05e9673c26d2ed44f7ef6a7f2942df0ee3b5e1e17db4b99f9dcd261a339cd86604051610dc391815260200190565b60405180910390a28493505050505b92915050565b606060038054610de790614ab2565b80601f0160208091040260200160405190810160405280929190818152602001828054610e1390614ab2565b8015610e605780601f10610e3557610100808354040283529160200191610e60565b820191906000526020600020905b815481529060010190602001808311610e4357829003601f168201915b5050505050905090565b600033610e78818585611f3b565b5060019392505050565b6000908152604560205260409020546001600160a01b031690565b610ea76002610e82565b6001600160a01b0316336001600160a01b031614610ed75760405162461bcd60e51b8152600401610bd690614aec565b610eea8383610ee584612060565b6120cd565b505050565b6000806000610efd84612471565b9050610f0b84826000612574565b610f1785836001612574565b9250925050915091565b610f2f3383610ee584612060565b5050565b6000610f3f6002610e82565b6001600160a01b0316336001600160a01b031614610f6f5760405162461bcd60e51b8152600401610bd690614aec565b610f7a848484612621565b90505b9392505050565b600033610f92858285612759565b610f9d8585856127e5565b506001949350505050565b610fb26002610e82565b6001600160a01b0316336001600160a01b031614610fe25760405162461bcd60e51b8152600401610bd690614aec565b610feb81612933565b50565b600080610ffc836000611af4565b611007846001611af4565b91509150915091565b600061101a612a16565b905090565b3360008181526001602090815260408083206001600160a01b0387168452909152812054909190610e789082908690611059908790614b23565b611f3b565b7f00000000000000000000000000000000000000000000000000000000000000008110156110c25760405162461bcd60e51b8152602060048201526011602482015270414d4f554e545f4c545f4d494e494d554d60781b6044820152606401610bd6565b60006110cd60025490565b90507f00000000000000000000000000000000000000000000000000000000000000008110156111335760405162461bcd60e51b81526020600482015260116024820152705348415245535f4c545f4d494e494d554d60781b6044820152606401610bd6565b600061113e826111c3565b9050611156610d4f6111508584614b23565b84611df7565b61118b6001600160a01b037f000000000000000000000000000000000000000000000000000000000000000016333086612b41565b6040518381527f278e51d3323fbf18b9fb8df3f8b97e31b145bc1146c52e764cf4aa1bfc4ba17d9060200160405180910390a1505050565b6051546000906001600160d81b03166111e483670de0b6b3a7640000614b36565b610dd29190614b4d565b6111fa33826000612b79565b610feb33826001612b79565b6001600160a01b03871661122c5760405162461bcd60e51b8152600401610bd690614b6f565b8342111561124c5760405162461bcd60e51b8152600401610bd690614b96565b60006112ef611259612ca1565b7f6e77642f8f60cdece0498bfeeb2f06ccfef0e8f86d28a1b6255c5e48f1d72a038a8a8a6112a48e6001600160a01b0316600090815260446020526040902080546001810190915590565b8b6040516020016112ba96959493929190614bfa565b6040516020818303038152906040528051906020012060405161190160f01b8152600281019290925260228201526042902090565b90506112fd81858585612cab565b6001600160a01b0316886001600160a01b03161461132d5760405162461bcd60e51b8152600401610bd690614c39565b611338888888612b79565b5050505050505050565b6000610f7d8361135185612471565b84612574565b6001600160a01b03166000908152602081905260409020546001600160681b031690565b605154600090670de0b6b3a7640000906111e4906001600160d81b031684614b36565b60405163d505accf60e01b81526001600160a01b038781166004830152306024830152604482018790526064820186905260ff8516608483015260a4820184905260c482018390527f0000000000000000000000000000000000000000000000000000000000000000169063d505accf9060e401600060405180830381600087803b15801561142c57600080fd5b505af1158015611440573d6000803e3d6000fd5b5050505061144f868787612cdb565b505050505050565b6114616000610e82565b6001600160a01b0316336001600160a01b0316146114915760405162461bcd60e51b8152600401610bd690614a52565b610feb81612ea0565b606061101a612f26565b6114ad33612933565b565b6114b96001610e82565b6001600160a01b0316336001600160a01b0316146115195760405162461bcd60e51b815260206004820152601960248201527f43414c4c45525f4e4f545f434f4f4c444f574e5f41444d494e000000000000006044820152606401610bd6565b610feb81612f51565b600954600490811161158d5760405162461bcd60e51b815260206004820152602e60248201527f436f6e747261637420696e7374616e63652068617320616c726561647920626560448201526d195b881a5b9a5d1a585b1a5e995960921b6064820152608401610bd6565b600955565b6000606080600080600060606115a6612f86565b6115ae612f26565b60408051600080825260208201909252600f60f81b9b939a50919850469750309650945092509050565b604080516001808252818301909252600091829190816020015b61161f604051806060016040528060006001600160a01b0316815260200160008152602001600081525090565b8152602001906001900390816115f25790505090506040518060600160405280306001600160a01b0316815260200161165785611357565b815260200161166560025490565b8152508160008151811061167b5761167b614c64565b60200260200101819052506116908382612fb1565b6001600160a01b0384166000908152603d6020526040902054610f7d9190614b23565b606060048054610de790614ab2565b610eea338383612621565b6116d76002610e82565b6001600160a01b0316336001600160a01b0316146117075760405162461bcd60e51b8152600401610bd690614aec565b611712848484612621565b506117218484610ee584612060565b50505050565b6001600160a01b03861661174d5760405162461bcd60e51b8152600401610bd690614b6f565b8342111561176d5760405162461bcd60e51b8152600401610bd690614b96565b60006117fa61177a612ca1565b7fd46e8b93b5190df6403875402a5c13897b72d2a576da5d1bfea20a63638d216e89896117c48c6001600160a01b0316600090815260446020526040902080546001810190915590565b6040805160208101959095526001600160a01b039384169085015291166060830152608082015260a0810188905260c0016112ba565b905061180881858585612cab565b6001600160a01b0316876001600160a01b0316146118385760405162461bcd60e51b8152600401610bd690614c39565b61184487876000612b79565b61185087876001612b79565b50505050505050565b3360008181526001602090815260408083206001600160a01b0387168452909152812054909190838110156118de5760405162461bcd60e51b815260206004820152602560248201527f45524332303a2064656372656173656420616c6c6f77616e63652062656c6f77604482015264207a65726f60d81b6064820152608401610bd6565b610f9d8286868403611f3b565b600033610e788185856127e5565b60008281526045602052604090205482906001600160a01b031633146119595760405162461bcd60e51b815260206004820152601560248201527421a0a62622a92fa727aa2fa927a622afa0a226a4a760591b6044820152606401610bd6565b60008381526046602090815260409182902080546001600160a01b0319166001600160a01b03861690811790915591518581527fc3d1bf52795a20771ee6de3e59948fd83e10db956122d4709a3b86c512963855910160405180910390a2505050565b610f2f338383612cdb565b6119d16000610e82565b6001600160a01b0316336001600160a01b031614611a015760405162461bcd60e51b8152600401610bd690614a52565b6051805460ff60d81b191690556040517fcdee157e87ba915be681d4fa3f3d511afe7348eca06448a3accd6ac227fa40af90600090a1565b336001600160a01b037f00000000000000000000000000000000000000000000000000000000000000001614611aa95760405162461bcd60e51b815260206004820152601560248201527427a7262cafa2a6a4a9a9a4a7a72fa6a0a720a3a2a960591b6044820152606401610bd6565b60005b8151811015611aea57600254828281518110611aca57611aca614c64565b602090810291909101810151015280611ae281614c7a565b915050611aac565b50610feb816130bf565b6000611b086051546001600160d81b031690565b6001600160d81b0316670de0b6b3a7640000611b24858561322d565b611b2e9190614b36565b610f7d9190614b4d565b6001600160a01b038716611b5e5760405162461bcd60e51b8152600401610bd690614b6f565b83421115611b7e5760405162461bcd60e51b8152600401610bd690614b96565b6001600160a01b0387811660008181526044602090815260408083205481517f6e71edae12b1b97f4d1f60370fef10105fa2faae0126114a169c64845d6126c9938101939093529082019390935292891660608401526080830188905260a0830182905260c083018790529091611c0d9060e001604051602081830303815290604052805190602001206132af565b9050611c1b81868686612cab565b6001600160a01b0316896001600160a01b031614611c4b5760405162461bcd60e51b8152600401610bd690614c39565b6001600160a01b0389166000908152604460205260409020600183019055611c74898989611f3b565b505050505050505050565b610f2f338383612b79565b611c95338484612621565b50610eea3384610ee584612060565b60008181526046602052604090205481906001600160a01b03163314611d0c5760405162461bcd60e51b815260206004820152601d60248201527f43414c4c45525f4e4f545f50454e44494e475f524f4c455f41444d494e0000006044820152606401610bd6565b60008281526045602090815260408083208054336001600160a01b0319918216811790925560468452938290208054909416909355518481527f83a9ddad961dcb7c6894c9585a16ff7792c2ec8281256a3cc7303ae830152dcf91015b60405180910390a25050565b6000821580611d82575081155b15611d8f57506000610dd2565b611d9b82600019614b4d565b831115611dea5760405162461bcd60e51b815260206004820152601c60248201527f4d4154485f4d554c5449504c49434154494f4e5f4f564552464c4f57000000006044820152606401610bd6565b612710611b2e8385614b36565b6000610f7d83600181611e12670de0b6b3a764000087614b36565b611e1c9190614b23565b611e269190614a9f565b611e309190614b4d565b6132dc565b806001600160d81b0316600003611e835760405162461bcd60e51b81526020600482015260126024820152715a45524f5f45584348414e47455f5241544560701b6044820152606401610bd6565b605180546001600160d81b0319166001600160d81b0383169081179091556040519081527fa9c433f9734baa3cf48b209454bb0ace054e191f677ba50e74b696c0d35ef262906020015b60405180910390a150565b6040516001600160a01b038316602482015260448101829052610eea90849063a9059cbb60e01b906064015b60408051601f198184030181529190526020810180516001600160e01b03166001600160e01b031990931692909217909152613345565b6001600160a01b038316611f9d5760405162461bcd60e51b8152602060048201526024808201527f45524332303a20617070726f76652066726f6d20746865207a65726f206164646044820152637265737360e01b6064820152608401610bd6565b6001600160a01b038216611ffe5760405162461bcd60e51b815260206004820152602260248201527f45524332303a20617070726f766520746f20746865207a65726f206164647265604482015261737360f01b6064820152608401610bd6565b6001600160a01b0383811660008181526001602090815260408083209487168084529482529182902085905590518481527f8c5be1e5ebec7d5bd14f71427d1e84f3dd0314c0f7b2291e5b200ac8c7c3b92591015b60405180910390a3505050565b60006001600160681b038211156120c95760405162461bcd60e51b815260206004820152602760248201527f53616665436173743a2076616c756520646f65736e27742066697420696e20316044820152663034206269747360c81b6064820152608401610bd6565b5090565b806001600160681b03166000036120f65760405162461bcd60e51b8152600401610bd690614c93565b6001600160a01b0383166000908152603e602090815260409182902082518084019093525464ffffffffff81168352600160281b90046001600160d81b031690820152605154600160d81b900460ff1661223657604f548151612160919064ffffffffff16614b23565b4210156121a75760405162461bcd60e51b815260206004820152601560248201527424a729aaa32324a1a4a2a72a2fa1a7a7a62227aba760591b6044820152606401610bd6565b604f5481517f0000000000000000000000000000000000000000000000000000000000000000916121de9164ffffffffff16614b23565b6121e89042614a9f565b11156122365760405162461bcd60e51b815260206004820152601760248201527f554e5354414b455f57494e444f575f46494e49534845440000000000000000006044820152606401610bd6565b600061224185611357565b605154909150600090600160d81b900460ff1661226b5782602001516001600160d81b031661226d565b815b9050806000036122bf5760405162461bcd60e51b815260206004820152601b60248201527f494e56414c49445f5a45524f5f4d41585f52454445454d41424c4500000000006044820152606401610bd6565b600081856001600160681b0316116122e057846001600160681b03166122e2565b815b90506122f087846001613417565b5060006122fc826111c3565b90506123108861230b84612060565b6134c7565b845164ffffffffff16156123dd578185602001516001600160d81b03166123379190614a9f565b60000361235c576001600160a01b0388166000908152603e60205260408120556123dd565b61236582613627565b6001600160a01b0389166000908152603e60205260409020546123a1916001600160b81b031690600160281b90046001600160d81b0316614cc0565b6001600160a01b0389166000908152603e6020526040902080546001600160d81b0392909216600160281b0264ffffffffff9092169190911790555b6124116001600160a01b037f0000000000000000000000000000000000000000000000000000000000000000168883611ed8565b866001600160a01b0316886001600160a01b03167f3f693fff038bb8a046aa76d9516190ac7444f7d69cf952c4cbdc086fdef2d6fc838560405161245f929190918252602082015260400190565b60405180910390a35050505050505050565b61249260408051606081018252600080825260208201819052909182015290565b6001600160a01b038216600090815260208181526040808320815160808101835281546001600160681b03811682526001600160481b03600160681b8204811695830195909552600160b01b8104909416928101929092529091606083019060ff600160f81b90910416600381111561250d5761250d614bc2565b600381111561251e5761251e614bc2565b815250509050604051806060016040528082602001516001600160481b0316815260200182604001516001600160481b031681526020018260600151600381111561256b5761256b614bc2565b90529392505050565b60008082600181111561258957612589614bc2565b036125db576001836040015160038111156125a6576125a6614bc2565b1660ff166000036125b85760006125d4565b6001600160a01b03808516600090815260476020526040902054165b9050610f7d565b6002836040015160038111156125f3576125f3614bc2565b1015612600576000610f7a565b5050506001600160a01b039081166000908152604860205260409020541690565b6000816000036126435760405162461bcd60e51b8152600401610bd690614c93565b60006126598561265287611357565b6000613417565b9050600081841161266a578361266c565b815b90508060000361268e5760405162461bcd60e51b8152600401610bd690614c93565b6126988183614a9f565b6001600160a01b038088166000908152603d6020526040902091909155612703907f0000000000000000000000000000000000000000000000000000000000000000167f00000000000000000000000000000000000000000000000000000000000000008784612b41565b846001600160a01b0316866001600160a01b03167f9310ccfcb8de723f578a9e4282ea9f521f05ae40dc08f3068dfad528a65ee3c78360405161274891815260200190565b60405180910390a395945050505050565b6001600160a01b03838116600090815260016020908152604080832093861683529290522054600019811461172157818110156127d85760405162461bcd60e51b815260206004820152601d60248201527f45524332303a20696e73756666696369656e7420616c6c6f77616e63650000006044820152606401610bd6565b6117218484848403611f3b565b60006127f084611357565b90506127fe84826001613417565b50826001600160a01b0316846001600160a01b03161461290b57600061282384611357565b905061283184826001613417565b506001600160a01b0385166000908152603e602090815260409182902082518084019093525464ffffffffff8116808452600160281b9091046001600160d81b03169183019190915215612908578383036128a4576001600160a01b0386166000908152603e6020526040812055612908565b60208101516001600160d81b03166128bc8585614a9f565b1015612908576128cc8484614a9f565b6001600160a01b0387166000908152603e6020526040902080546001600160d81b0392909216600160281b0264ffffffffff9092169190911790555b50505b612928848461291987613690565b61292287613690565b8661369b565b61172184848461379f565b600061293e82611357565b9050806000036129905760405162461bcd60e51b815260206004820152601b60248201527f494e56414c49445f42414c414e43455f4f4e5f434f4f4c444f574e00000000006044820152606401610bd6565b60408051808201825264ffffffffff42811682526001600160d81b0380851660208085019182526001600160a01b0388166000818152603e9092529086902094519151909216600160281b0292169190911790915590517f8a05f911d8ab7fc50fec37ef4ba7f9bfcb1a3c191c81dcd824ad0946c4e20d6590611d699084815260200190565b6000306001600160a01b037f000000000000000000000000000000000000000000000000000000000000000016148015612a6f57507f000000000000000000000000000000000000000000000000000000000000000046145b15612a9957507f000000000000000000000000000000000000000000000000000000000000000090565b61101a604080517f8b73c3c69bb8fe3d512ecc4cf759cc79239f7b179b0ffacaa9a75d522b39400f60208201527f0000000000000000000000000000000000000000000000000000000000000000918101919091527f000000000000000000000000000000000000000000000000000000000000000060608201524660808201523060a082015260009060c00160405160208183030381529060405280519060200120905090565b6040516001600160a01b03808516602483015283166044820152606481018290526117219085906323b872dd60e01b90608401611f04565b6000836001600160a01b0316836001600160a01b031614612b9a5782612b9d565b60005b90506000612baa85612471565b90506000612bb9868386612574565b9050806001600160a01b0316836001600160a01b031603612bdc57505050505050565b6001600160a01b03818116151590841615156000612bf989613690565b90508215612c0e57612c0e816000868a6139c8565b8115612c2157612c21600082888a6139c8565b612c2c898888613a92565b82151582151514612c4b57612c4b89612c46878a86613b35565b613c55565b856001600160a01b0316896001600160a01b03167fe8d51c8e11bd570db1734c8ec775785330e77007feed45c43b608ef33ff914bd89604051612c8e9190614ce7565b60405180910390a3505050505050505050565b600061101a611010565b600080600080612cbd88888888613cf5565b925092509250612ccd8282613dc4565b50909150505b949350505050565b605154600160d81b900460ff1615612d285760405162461bcd60e51b815260206004820152601060248201526f534c415348494e475f4f4e474f494e4760801b6044820152606401610bd6565b80600003612d485760405162461bcd60e51b8152600401610bd690614c93565b6000612d5383611357565b90506000612d6b843084612d6660025490565b613e7d565b90508015612dee576001600160a01b0384166000908152603d6020526040902054612d97908290614b23565b6001600160a01b0385166000818152603d60209081526040918290209390935580519182529181018390527f2468f9268c60ad90e2d49edb0032c8a001e733ae888b3ab8e982edf535be1a76910160405180910390a15b6000612df98461137b565b9050612e306001600160a01b037f000000000000000000000000000000000000000000000000000000000000000016873087612b41565b612e4285612e3d83612060565b613f3e565b846001600160a01b0316866001600160a01b03167f6c86f3fd5118b3aa8bb4f389a617046de0a3d3d477de1a1673d227f802f616dc8684604051612e90929190918252602082015260400190565b60405180910390a3505050505050565b6127108110612ef15760405162461bcd60e51b815260206004820152601b60248201527f494e56414c49445f534c415348494e475f50455243454e5441474500000000006044820152606401610bd6565b60508190556040518181527fb79c2d6c7f5c95eec9dc05affc0ed002620a4ec6d72b7b0744cc8638168c600a90602001611ecd565b606061101a7f0000000000000000000000000000000000000000000000000000000000000000614068565b604f8190556040518181527fbbf67247b5c97564e30ffc0a355e71c006836de7b9149e09e3d5d6054cb0335590602001611ecd565b606061101a7f0000000000000000000000000000000000000000000000000000000000000000614068565b600080805b83518110156130b7576000603c6000868481518110612fd757612fd7614c64565b602090810291909101810151516001600160a01b031682528101919091526040016000908120600181015481548851929450613045926001600160801b0380831692600160801b900416908a908890811061303457613034614c64565b6020026020010151604001516140a7565b905061309686848151811061305c5761305c614c64565b602002602001015160200151828460020160008b6001600160a01b03166001600160a01b03168152602001908152602001600020546141b2565b6130a09085614b23565b9350505080806130af90614c7a565b915050612fb6565b509392505050565b60005b8151811015610f2f576000603c60008484815181106130e3576130e3614c64565b6020026020010151604001516001600160a01b03166001600160a01b03168152602001908152602001600020905061315683838151811061312657613126614c64565b6020026020010151604001518285858151811061314557613145614c64565b6020026020010151602001516141de565b5082828151811061316957613169614c64565b60209081029190910101515181546fffffffffffffffffffffffffffffffff19166001600160801b0390911617815582518390839081106131ac576131ac614c64565b6020026020010151604001516001600160a01b03167f87fa03892a0556cb6b8f97e6d533a150d4d55fcbf275fff5fa003fa636bcc7fa8484815181106131f4576131f4614c64565b602090810291909101810151516040516001600160801b0390911681520160405180910390a2508061322581614c7a565b9150506130c2565b60008061323984612471565b9050600083600181111561324f5761324f614bc2565b61325a906001614cf5565b8260400151600381111561327057613270614bc2565b1660ff1660001461328257600061328b565b61328b85613690565b905060006132998386614296565b90506132a58183614b23565b9695505050505050565b6000610dd26132bc612a16565b8360405161190160f01b8152600281019290925260228201526042902090565b60006001600160d81b038211156120c95760405162461bcd60e51b815260206004820152602760248201527f53616665436173743a2076616c756520646f65736e27742066697420696e20326044820152663136206269747360c81b6064820152608401610bd6565b600061339a826040518060400160405280602081526020017f5361666545524332303a206c6f772d6c6576656c2063616c6c206661696c6564815250856001600160a01b03166142d59092919063ffffffff16565b805190915015610eea57808060200190518101906133b89190614d0e565b610eea5760405162461bcd60e51b815260206004820152602a60248201527f5361666545524332303a204552433230206f7065726174696f6e20646964206e6044820152691bdd081cdd58d8d9595960b21b6064820152608401610bd6565b600080613429853086612d6660025490565b6001600160a01b0386166000908152603d602052604081205491925090613451908390614b23565b905081156134be57831561347b576001600160a01b0386166000908152603d602052604090208190555b604080516001600160a01b0388168152602081018490527f2468f9268c60ad90e2d49edb0032c8a001e733ae888b3ab8e982edf535be1a76910160405180910390a15b95945050505050565b6001600160a01b0382166135275760405162461bcd60e51b815260206004820152602160248201527f45524332303a206275726e2066726f6d20746865207a65726f206164647265736044820152607360f81b6064820152608401610bd6565b6001600160a01b0382166000908152602081905260409020546001600160681b039081169082168110156135a85760405162461bcd60e51b815260206004820152602260248201527f45524332303a206275726e20616d6f756e7420657863656564732062616c616e604482015261636560f01b6064820152608401610bd6565b6001600160a01b03831660008181526020818152604080832080546001600160681b0319168787036001600160681b03908116919091179091556002805491881691829003905590519081529192917fddf252ad1be2c89b69c2b068fc378daa952ba7f163c4a11628f55a4df523b3ef910160405180910390a3505050565b60006001600160b81b038211156120c95760405162461bcd60e51b815260206004820152602760248201527f53616665436173743a2076616c756520646f65736e27742066697420696e20316044820152663834206269747360c81b6064820152608401610bd6565b6000610dd282611357565b836001600160a01b0316856001600160a01b03160315613798576001600160a01b0385161561372f5760006136cf86612471565b905060006136dd8386614a9f565b90506000826040015160038111156136f7576136f7614bc2565b1461372c57613714858261370d8a866000612574565b60006139c8565b61372c85826137258a866001612574565b60016139c8565b50505b6001600160a01b0384161561379857600061374985612471565b905060006137578385614b23565b905060008260400151600381111561377157613771614bc2565b1461185057613787848261370d89866000612574565b611850848261372589866001612574565b5050505050565b6001600160a01b0383166138035760405162461bcd60e51b815260206004820152602560248201527f45524332303a207472616e736665722066726f6d20746865207a65726f206164604482015264647265737360d81b6064820152608401610bd6565b6001600160a01b0382166138655760405162461bcd60e51b815260206004820152602360248201527f45524332303a207472616e7366657220746f20746865207a65726f206164647260448201526265737360e81b6064820152608401610bd6565b816001600160a01b0316836001600160a01b031614613983576001600160a01b038084166000908152602081905260408082205492851682529020546001600160681b0391821691168282101561390d5760405162461bcd60e51b815260206004820152602660248201527f45524332303a207472616e7366657220616d6f756e7420657863656564732062604482015265616c616e636560d01b6064820152608401610bd6565b6001600160a01b038516600090815260208190526040902080546001600160681b0319168484036001600160681b031617905561394a8382614d30565b6001600160a01b038516600090815260208190526040902080546001600160681b0319166001600160681b039290921691909117905550505b816001600160a01b0316836001600160a01b03167fddf252ad1be2c89b69c2b068fc378daa952ba7f163c4a11628f55a4df523b3ef8360405161205391815260200190565b6001600160a01b03821615611721578383146117215760006139f76139f26402540be40087614b4d565b6142e4565b90506000613a0d6139f26402540be40087614b4d565b90506000613a1a85612471565b90506000846001811115613a3057613a30614bc2565b03613a635781838260200151613a469190614d50565b613a509190614d70565b6001600160481b03166020820152613a88565b80518290613a72908590614d50565b613a7c9190614d70565b6001600160481b031681525b6118508582613c55565b6000836001600160a01b0316826001600160a01b031614613ab35781613ab6565b60005b90506000836001811115613acc57613acc614bc2565b03613b04576001600160a01b03848116600090815260476020526040902080546001600160a01b031916918316919091179055611721565b6001600160a01b03938416600090815260486020526040902080546001600160a01b03191691909416179092555050565b613b5660408051606081018252600080825260208201819052909182015290565b8115613bd557826001811115613b6e57613b6e614bc2565b613b79906001614cf5565b84604001516003811115613b8f57613b8f614bc2565b1760ff166003811115613ba457613ba4614bc2565b84604001906003811115613bba57613bba614bc2565b90816003811115613bcd57613bcd614bc2565b905250613c4d565b6003836001811115613be957613be9614bc2565b613bf4906001614cf5565b1884604001516003811115613c0b57613c0b614bc2565b1660ff166003811115613c2057613c20614bc2565b84604001906003811115613c3657613c36614bc2565b90816003811115613c4957613c49614bc2565b9052505b509192915050565b6001600160a01b03821660009081526020818152604091829020835181549285015171ffffffffffffffffffffffffffffffffffff60681b19909316600160681b6001600160481b039283160268ffffffffffffffffff60b01b191617600160b01b91909316029190911780825591830151909182906001600160f81b0316600160f81b836003811115613ceb57613ceb614bc2565b0217905550505050565b600080807f7fffffffffffffffffffffffffffffff5d576e7357a4501ddfe92f46681b20a0841115613d305750600091506003905082613dba565b604080516000808252602082018084528a905260ff891692820192909252606081018790526080810186905260019060a0016020604051602081039080840390855afa158015613d84573d6000803e3d6000fd5b5050604051601f1901519150506001600160a01b038116613db057506000925060019150829050613dba565b9250600091508190505b9450945094915050565b6000826003811115613dd857613dd8614bc2565b03613de1575050565b6001826003811115613df557613df5614bc2565b03613e135760405163f645eedf60e01b815260040160405180910390fd5b6002826003811115613e2757613e27614bc2565b03613e485760405163fce698f760e01b815260048101829052602401610bd6565b6003826003811115613e5c57613e5c614bc2565b03610f2f576040516335e2f38360e21b815260048101829052602401610bd6565b6001600160a01b038084166000908152603c602090815260408083209388168352600284019091528120549091908280613eb88885886141de565b9050808314613f32578615613ed557613ed28782856141b2565b91505b6001600160a01b03808a1660008181526002870160205260409081902084905551918a16917fbb123b5c06d5408bbea3c4fef481578175cfb432e3b482c6186f02ed9086585b90613f299085815260200190565b60405180910390a35b50979650505050505050565b6001600160a01b038216613f945760405162461bcd60e51b815260206004820152601f60248201527f45524332303a206d696e7420746f20746865207a65726f2061646472657373006044820152606401610bd6565b806001600160681b031660026000828254613faf9190614b23565b90915550506001600160a01b03821660009081526020819052604081208054839290613fe59084906001600160681b0316614d30565b92506101000a8154816001600160681b0302191690836001600160681b03160217905550816001600160a01b031660006001600160a01b03167fddf252ad1be2c89b69c2b068fc378daa952ba7f163c4a11628f55a4df523b3ef8360405161405c91906001600160681b0391909116815260200190565b60405180910390a35050565b606060006140758361434c565b604080516020808252818301909252919250600091906020820181803683375050509182525060208101929092525090565b60008315806140b4575081155b806140c7575042836001600160801b0316145b806140fb57507f0000000000000000000000000000000000000000000000000000000000000000836001600160801b031610155b15614107575083612cd3565b60007f000000000000000000000000000000000000000000000000000000000000000042116141365742614158565b7f00000000000000000000000000000000000000000000000000000000000000005b9050600061416f6001600160801b03861683614a9f565b9050868461417f6012600a614e74565b614189848a614b36565b6141939190614b36565b61419d9190614b4d565b6141a79190614b23565b979650505050505050565b60006141c06012600a614e74565b6141ca8385614a9f565b6141d49086614b36565b610f7a9190614b4d565b6001820154825460009190600160801b90046001600160801b03164281900361420957509050610f7d565b84546000906142249084906001600160801b031684886140a7565b905082811461427357600186018190556040518181526001600160a01b038816907f5777ca300dfe5bead41006fbce4389794dbc0ed8d6cccebfaf94630aa04184bc9060200160405180910390a25b85546001600160801b03428116600160801b029116178655925050509392505050565b6000808260018111156142ab576142ab614bc2565b146142b75782516142bd565b82602001515b610f7d906001600160481b03166402540be400614b36565b6060610f7a8484600085614374565b60006001600160481b038211156120c95760405162461bcd60e51b815260206004820152602660248201527f53616665436173743a2076616c756520646f65736e27742066697420696e203760448201526532206269747360d01b6064820152608401610bd6565b600060ff8216601f811115610dd257604051632cd44ac360e21b815260040160405180910390fd5b6060824710156143d55760405162461bcd60e51b815260206004820152602660248201527f416464726573733a20696e73756666696369656e742062616c616e636520666f6044820152651c8818d85b1b60d21b6064820152608401610bd6565b600080866001600160a01b031685876040516143f19190614e80565b60006040518083038185875af1925050503d806000811461442e576040519150601f19603f3d011682016040523d82523d6000602084013e614433565b606091505b50915091506141a787838387606083156144ae5782516000036144a7576001600160a01b0385163b6144a75760405162461bcd60e51b815260206004820152601d60248201527f416464726573733a2063616c6c20746f206e6f6e2d636f6e74726163740000006044820152606401610bd6565b5081612cd3565b612cd383838151156144c35781518083602001fd5b8060405162461bcd60e51b8152600401610bd69190614573565b80356001600160a01b03811681146144f457600080fd5b919050565b6000806040838503121561450c57600080fd5b614515836144dd565b946020939093013593505050565b60005b8381101561453e578181015183820152602001614526565b50506000910152565b6000815180845261455f816020860160208601614523565b601f01601f19169290920160200192915050565b602081526000610f7d6020830184614547565b60006020828403121561459857600080fd5b610f7d826144dd565b6000602082840312156145b357600080fd5b5035919050565b6000806000606084860312156145cf57600080fd5b6145d8846144dd565b92506145e6602085016144dd565b9150604084013590509250925092565b6000806040838503121561460957600080fd5b614612836144dd565b9150614620602084016144dd565b90509250929050565b8035600281106144f457600080fd5b803560ff811681146144f457600080fd5b600080600080600080600060e0888a03121561466457600080fd5b61466d886144dd565b965061467b602089016144dd565b955061468960408901614629565b94506060880135935061469e60808901614638565b925060a0880135915060c0880135905092959891949750929550565b600080604083850312156146cd57600080fd5b6146d6836144dd565b915061462060208401614629565b60008060008060008060c087890312156146fd57600080fd5b614706876144dd565b9550602087013594506040870135935061472260608801614638565b92506080870135915060a087013590509295509295509295565b60ff60f81b881681526000602060e08184015261475c60e084018a614547565b838103604085015261476e818a614547565b606085018990526001600160a01b038816608086015260a0850187905284810360c0860152855180825283870192509083019060005b818110156147c0578351835292840192918401916001016147a4565b50909c9b505050505050505050505050565b600080600080608085870312156147e857600080fd5b6147f1856144dd565b93506147ff602086016144dd565b93969395505050506040820135916060013590565b60008060008060008060c0878903121561482d57600080fd5b614836876144dd565b9550614844602088016144dd565b94506040870135935061472260608801614638565b6000806040838503121561486c57600080fd5b82359150614620602084016144dd565b634e487b7160e01b600052604160045260246000fd5b6040516060810167ffffffffffffffff811182821017156148b5576148b561487c565b60405290565b604051601f8201601f1916810167ffffffffffffffff811182821017156148e4576148e461487c565b604052919050565b600060208083850312156148ff57600080fd5b823567ffffffffffffffff8082111561491757600080fd5b818501915085601f83011261492b57600080fd5b81358181111561493d5761493d61487c565b61494b848260051b016148bb565b8181528481019250606091820284018501918883111561496a57600080fd5b938501935b82851015613f325780858a0312156149875760008081fd5b61498f614892565b85356001600160801b03811681146149a75760008081fd5b8152858701358782015260406149be8188016144dd565b908201528452938401939285019261496f565b600080600080600080600060e0888a0312156149ec57600080fd5b6149f5886144dd565b9650614a03602089016144dd565b9550604088013594506060880135935061469e60808901614638565b600080600060608486031215614a3457600080fd5b614a3d846144dd565b95602085013595506040909401359392505050565b60208082526019908201527f43414c4c45525f4e4f545f534c415348494e475f41444d494e00000000000000604082015260600190565b634e487b7160e01b600052601160045260246000fd5b81810381811115610dd257610dd2614a89565b600181811c90821680614ac657607f821691505b602082108103614ae657634e487b7160e01b600052602260045260246000fd5b50919050565b60208082526017908201527f43414c4c45525f4e4f545f434c41494d5f48454c504552000000000000000000604082015260600190565b80820180821115610dd257610dd2614a89565b8082028115828204841417610dd257610dd2614a89565b600082614b6a57634e487b7160e01b600052601260045260246000fd5b500490565b6020808252600d908201526c24a72b20a624a22fa7aba722a960991b604082015260600190565b60208082526012908201527124a72b20a624a22fa2ac2824a920aa24a7a760711b604082015260600190565b634e487b7160e01b600052602160045260246000fd5b60028110614bf657634e487b7160e01b600052602160045260246000fd5b9052565b8681526001600160a01b0386811660208301528516604082015260c08101614c256060830186614bd8565b608082019390935260a00152949350505050565b602080825260119082015270494e56414c49445f5349474e415455524560781b604082015260600190565b634e487b7160e01b600052603260045260246000fd5b600060018201614c8c57614c8c614a89565b5060010190565b6020808252601390820152721253959053125117d6915493d7d05353d55395606a1b604082015260600190565b6001600160d81b03828116828216039080821115614ce057614ce0614a89565b5092915050565b60208101610dd28284614bd8565b60ff8181168382160190811115610dd257610dd2614a89565b600060208284031215614d2057600080fd5b81518015158114610f7d57600080fd5b6001600160681b03818116838216019080821115614ce057614ce0614a89565b6001600160481b03828116828216039080821115614ce057614ce0614a89565b6001600160481b03818116838216019080821115614ce057614ce0614a89565b600181815b80851115614dcb578160001904821115614db157614db1614a89565b80851615614dbe57918102915b93841c9390800290614d95565b509250929050565b600082614de257506001610dd2565b81614def57506000610dd2565b8160018114614e055760028114614e0f57614e2b565b6001915050610dd2565b60ff841115614e2057614e20614a89565b50506001821b610dd2565b5060208310610133831016604e8410600b8410161715614e4e575081810a610dd2565b614e588383614d90565b8060001904821115614e6c57614e6c614a89565b029392505050565b6000610f7d8383614dd3565b60008251614e92818460208701614523565b919091019291505056fea2646970667358221220b6849d8e6d5d73813509ed49963862201250226c5e266a556056651e8c55740264736f6c63430008150033a2646970667358221220671191acea97220b4f981cac629e335c937db34c13b21b3970c338f1b5c752b464736f6c63430008150033",
    "linkReferences": {}
  },
  "methodIdentifiers": {
    "ABPT()": "a2c80142",
    "STK_ABPT()": "a7cfc76e",
    "execute()": "61461954"
  },
  "id": 91
}