{
  "abi": [
    {
      "inputs": [
        {
          "internalType": "address",
          "name": "impl",
          "type": "address"
        }
      ],
      "stateMutability": "nonpayable",
      "type": "constructor"
    },
    {
      "inputs": [],
      "name": "IMPL",
      "outputs": [
        {
          "internalType": "address",
          "name": "",
          "type": "address"
        }
      ],
      "stateMutability": "view",
      "type": "function"
    },
    {
      "inputs": [],
      "name": "STK_AAVE",
      "outputs": [
        {
          "internalType": "address",
          "name": "",
          "type": "address"
        }
      ],
      "stateMutability": "view",
      "type": "function"
    },
    {
      "inputs": [],
      "name": "execute",
      "outputs": [],
      "stateMutability": "nonpayable",
      "type": "function"
    }
  ],
  "bytecode": {
    "object": "0x60a060405234801561001057600080fd5b506040516102a73803806102a783398101604081905261002f91610040565b6001600160a01b0316608052610070565b60006020828403121561005257600080fd5b81516001600160a01b038116811461006957600080fd5b9392505050565b60805161021661009160003960008181604b015261011b01526102166000f3fe608060405234801561001057600080fd5b50600436106100415760003560e01c806356973ee5146100465780636146195414610089578063bdf2878d14610093575b600080fd5b61006d7f000000000000000000000000000000000000000000000000000000000000000081565b6040516001600160a01b03909116815260200160405180910390f35b6100916100ae565b005b61006d734da27a545c0c5b758a6ba100e3a049001de870f581565b6040805160048082526024820183526020820180516001600160e01b031663204a7f0760e21b1790529151639623609d60e01b81527386c3ffee349a7cff7ca88c449717b1b133bfb51792639623609d9261014292734da27a545c0c5b758a6ba100e3a049001de870f5927f0000000000000000000000000000000000000000000000000000000000000000929101610176565b600060405180830381600087803b15801561015c57600080fd5b505af1158015610170573d6000803e3d6000fd5b50505050565b600060018060a01b038086168352602081861681850152606060408501528451915081606085015260005b828110156101bd578581018201518582016080015281016101a1565b50506000608082850101526080601f19601f83011684010191505094935050505056fea2646970667358221220e7a0a952dabbebf90dda65f0511df48d63d6c18e37d11639ae04ffe271be5c6f64736f6c63430008150033",
    "linkReferences": {}
  },
  "methodIdentifiers": {
    "IMPL()": "56973ee5",
    "STK_AAVE()": "bdf2878d",
    "execute()": "61461954"
  },
  "id": 91
}