{
  "abi": [
    {
      "inputs": [
        {
          "internalType": "contract IPool",
          "name": "pool",
          "type": "address"
        }
      ],
      "stateMutability": "nonpayable",
      "type": "constructor"
    },
    {
      "inputs": [],
      "name": "ECDSAInvalidSignature",
      "type": "error"
    },
    {
      "inputs": [
        {
          "internalType": "uint256",
          "name": "length",
          "type": "uint256"
        }
      ],
      "name": "ECDSAInvalidSignatureLength",
      "type": "error"
    },
    {
      "inputs": [
        {
          "internalType": "bytes32",
          "name": "s",
          "type": "bytes32"
        }
      ],
      "name": "ECDSAInvalidSignatureS",
      "type": "error"
    },
    {
      "inputs": [],
      "name": "InvalidShortString",
      "type": "error"
    },
    {
      "inputs": [
        {
          "internalType": "string",
          "name": "str",
          "type": "string"
        }
      ],
      "name": "StringTooLong",
      "type": "error"
    },
    {
      "anonymous": false,
      "inputs": [
        {
          "indexed": true,
          "internalType": "address",
          "name": "owner",
          "type": "address"
        },
        {
          "indexed": true,
          "internalType": "address",
          "name": "spender",
          "type": "address"
        },
        {
          "indexed": false,
          "internalType": "uint256",
          "name": "value",
          "type": "uint256"
        }
      ],
      "name": "Approval",
      "type": "event"
    },
    {
      "anonymous": false,
      "inputs": [
        {
          "indexed": true,
          "internalType": "address",
          "name": "from",
          "type": "address"
        },
        {
          "indexed": true,
          "internalType": "address",
          "name": "to",
          "type": "address"
        },
        {
          "indexed": false,
          "internalType": "uint256",
          "name": "value",
          "type": "uint256"
        },
        {
          "indexed": false,
          "internalType": "uint256",
          "name": "index",
          "type": "uint256"
        }
      ],
      "name": "BalanceTransfer",
      "type": "event"
    },
    {
      "anonymous": false,
      "inputs": [
        {
          "indexed": true,
          "internalType": "address",
          "name": "from",
          "type": "address"
        },
        {
          "indexed": true,
          "internalType": "address",
          "name": "target",
          "type": "address"
        },
        {
          "indexed": false,
          "internalType": "uint256",
          "name": "value",
          "type": "uint256"
        },
        {
          "indexed": false,
          "internalType": "uint256",
          "name": "balanceIncrease",
          "type": "uint256"
        },
        {
          "indexed": false,
          "internalType": "uint256",
          "name": "index",
          "type": "uint256"
        }
      ],
      "name": "Burn",
      "type": "event"
    },
    {
      "anonymous": false,
      "inputs": [
        {
          "indexed": true,
          "internalType": "address",
          "name": "delegator",
          "type": "address"
        },
        {
          "indexed": true,
          "internalType": "address",
          "name": "delegatee",
          "type": "address"
        },
        {
          "indexed": false,
          "internalType": "enum IGovernancePowerDelegationToken.GovernancePowerType",
          "name": "delegationType",
          "type": "uint8"
        }
      ],
      "name": "DelegateChanged",
      "type": "event"
    },
    {
      "anonymous": false,
      "inputs": [],
      "name": "EIP712DomainChanged",
      "type": "event"
    },
    {
      "anonymous": false,
      "inputs": [
        {
          "indexed": true,
          "internalType": "address",
          "name": "underlyingAsset",
          "type": "address"
        },
        {
          "indexed": true,
          "internalType": "address",
          "name": "pool",
          "type": "address"
        },
        {
          "indexed": false,
          "internalType": "address",
          "name": "treasury",
          "type": "address"
        },
        {
          "indexed": false,
          "internalType": "address",
          "name": "incentivesController",
          "type": "address"
        },
        {
          "indexed": false,
          "internalType": "uint8",
          "name": "aTokenDecimals",
          "type": "uint8"
        },
        {
          "indexed": false,
          "internalType": "string",
          "name": "aTokenName",
          "type": "string"
        },
        {
          "indexed": false,
          "internalType": "string",
          "name": "aTokenSymbol",
          "type": "string"
        },
        {
          "indexed": false,
          "internalType": "bytes",
          "name": "params",
          "type": "bytes"
        }
      ],
      "name": "Initialized",
      "type": "event"
    },
    {
      "anonymous": false,
      "inputs": [
        {
          "indexed": true,
          "internalType": "address",
          "name": "caller",
          "type": "address"
        },
        {
          "indexed": true,
          "internalType": "address",
          "name": "onBehalfOf",
          "type": "address"
        },
        {
          "indexed": false,
          "internalType": "uint256",
          "name": "value",
          "type": "uint256"
        },
        {
          "indexed": false,
          "internalType": "uint256",
          "name": "balanceIncrease",
          "type": "uint256"
        },
        {
          "indexed": false,
          "internalType": "uint256",
          "name": "index",
          "type": "uint256"
        }
      ],
      "name": "Mint",
      "type": "event"
    },
    {
      "anonymous": false,
      "inputs": [
        {
          "indexed": true,
          "internalType": "address",
          "name": "from",
          "type": "address"
        },
        {
          "indexed": true,
          "internalType": "address",
          "name": "to",
          "type": "address"
        },
        {
          "indexed": false,
          "internalType": "uint256",
          "name": "value",
          "type": "uint256"
        }
      ],
      "name": "Transfer",
      "type": "event"
    },
    {
      "inputs": [],
      "name": "ATOKEN_REVISION",
      "outputs": [
        {
          "internalType": "uint256",
          "name": "",
          "type": "uint256"
        }
      ],
      "stateMutability": "view",
      "type": "function"
    },
    {
      "inputs": [],
      "name": "DELEGATE_BY_TYPE_TYPEHASH",
      "outputs": [
        {
          "internalType": "bytes32",
          "name": "",
          "type": "bytes32"
        }
      ],
      "stateMutability": "view",
      "type": "function"
    },
    {
      "inputs": [],
      "name": "DELEGATE_TYPEHASH",
      "outputs": [
        {
          "internalType": "bytes32",
          "name": "",
          "type": "bytes32"
        }
      ],
      "stateMutability": "view",
      "type": "function"
    },
    {
      "inputs": [],
      "name": "DOMAIN_SEPARATOR",
      "outputs": [
        {
          "internalType": "bytes32",
          "name": "",
          "type": "bytes32"
        }
      ],
      "stateMutability": "view",
      "type": "function"
    },
    {
      "inputs": [],
      "name": "EIP712_REVISION",
      "outputs": [
        {
          "internalType": "bytes",
          "name": "",
          "type": "bytes"
        }
      ],
      "stateMutability": "nonpayable",
      "type": "function"
    },
    {
      "inputs": [],
      "name": "PERMIT_TYPEHASH",
      "outputs": [
        {
          "internalType": "bytes32",
          "name": "",
          "type": "bytes32"
        }
      ],
      "stateMutability": "view",
      "type": "function"
    },
    {
      "inputs": [],
      "name": "POOL",
      "outputs": [
        {
          "internalType": "contract IPool",
          "name": "",
          "type": "address"
        }
      ],
      "stateMutability": "view",
      "type": "function"
    },
    {
      "inputs": [],
      "name": "POWER_SCALE_FACTOR",
      "outputs": [
        {
          "internalType": "uint256",
          "name": "",
          "type": "uint256"
        }
      ],
      "stateMutability": "view",
      "type": "function"
    },
    {
      "inputs": [],
      "name": "RESERVE_TREASURY_ADDRESS",
      "outputs": [
        {
          "internalType": "address",
          "name": "",
          "type": "address"
        }
      ],
      "stateMutability": "view",
      "type": "function"
    },
    {
      "inputs": [],
      "name": "UNDERLYING_ASSET_ADDRESS",
      "outputs": [
        {
          "internalType": "address",
          "name": "",
          "type": "address"
        }
      ],
      "stateMutability": "view",
      "type": "function"
    },
    {
      "inputs": [
        {
          "internalType": "address",
          "name": "owner",
          "type": "address"
        },
        {
          "internalType": "address",
          "name": "spender",
          "type": "address"
        }
      ],
      "name": "allowance",
      "outputs": [
        {
          "internalType": "uint256",
          "name": "",
          "type": "uint256"
        }
      ],
      "stateMutability": "view",
      "type": "function"
    },
    {
      "inputs": [
        {
          "internalType": "address",
          "name": "spender",
          "type": "address"
        },
        {
          "internalType": "uint256",
          "name": "amount",
          "type": "uint256"
        }
      ],
      "name": "approve",
      "outputs": [
        {
          "internalType": "bool",
          "name": "",
          "type": "bool"
        }
      ],
      "stateMutability": "nonpayable",
      "type": "function"
    },
    {
      "inputs": [
        {
          "internalType": "address",
          "name": "user",
          "type": "address"
        }
      ],
      "name": "balanceOf",
      "outputs": [
        {
          "internalType": "uint256",
          "name": "",
          "type": "uint256"
        }
      ],
      "stateMutability": "view",
      "type": "function"
    },
    {
      "inputs": [
        {
          "internalType": "address",
          "name": "from",
          "type": "address"
        },
        {
          "internalType": "address",
          "name": "receiverOfUnderlying",
          "type": "address"
        },
        {
          "internalType": "uint256",
          "name": "amount",
          "type": "uint256"
        },
        {
          "internalType": "uint256",
          "name": "index",
          "type": "uint256"
        }
      ],
      "name": "burn",
      "outputs": [],
      "stateMutability": "nonpayable",
      "type": "function"
    },
    {
      "inputs": [],
      "name": "decimals",
      "outputs": [
        {
          "internalType": "uint8",
          "name": "",
          "type": "uint8"
        }
      ],
      "stateMutability": "view",
      "type": "function"
    },
    {
      "inputs": [
        {
          "internalType": "address",
          "name": "spender",
          "type": "address"
        },
        {
          "internalType": "uint256",
          "name": "subtractedValue",
          "type": "uint256"
        }
      ],
      "name": "decreaseAllowance",
      "outputs": [
        {
          "internalType": "bool",
          "name": "",
          "type": "bool"
        }
      ],
      "stateMutability": "nonpayable",
      "type": "function"
    },
    {
      "inputs": [
        {
          "internalType": "address",
          "name": "delegatee",
          "type": "address"
        }
      ],
      "name": "delegate",
      "outputs": [],
      "stateMutability": "nonpayable",
      "type": "function"
    },
    {
      "inputs": [
        {
          "internalType": "address",
          "name": "delegatee",
          "type": "address"
        },
        {
          "internalType": "enum IGovernancePowerDelegationToken.GovernancePowerType",
          "name": "delegationType",
          "type": "uint8"
        }
      ],
      "name": "delegateByType",
      "outputs": [],
      "stateMutability": "nonpayable",
      "type": "function"
    },
    {
      "inputs": [],
      "name": "eip712Domain",
      "outputs": [
        {
          "internalType": "bytes1",
          "name": "fields",
          "type": "bytes1"
        },
        {
          "internalType": "string",
          "name": "name",
          "type": "string"
        },
        {
          "internalType": "string",
          "name": "version",
          "type": "string"
        },
        {
          "internalType": "uint256",
          "name": "chainId",
          "type": "uint256"
        },
        {
          "internalType": "address",
          "name": "verifyingContract",
          "type": "address"
        },
        {
          "internalType": "bytes32",
          "name": "salt",
          "type": "bytes32"
        },
        {
          "internalType": "uint256[]",
          "name": "extensions",
          "type": "uint256[]"
        }
      ],
      "stateMutability": "view",
      "type": "function"
    },
    {
      "inputs": [
        {
          "internalType": "address",
          "name": "delegator",
          "type": "address"
        },
        {
          "internalType": "enum IGovernancePowerDelegationToken.GovernancePowerType",
          "name": "delegationType",
          "type": "uint8"
        }
      ],
      "name": "getDelegateeByType",
      "outputs": [
        {
          "internalType": "address",
          "name": "",
          "type": "address"
        }
      ],
      "stateMutability": "view",
      "type": "function"
    },
    {
      "inputs": [
        {
          "internalType": "address",
          "name": "delegator",
          "type": "address"
        }
      ],
      "name": "getDelegates",
      "outputs": [
        {
          "internalType": "address",
          "name": "",
          "type": "address"
        },
        {
          "internalType": "address",
          "name": "",
          "type": "address"
        }
      ],
      "stateMutability": "view",
      "type": "function"
    },
    {
      "inputs": [],
      "name": "getIncentivesController",
      "outputs": [
        {
          "internalType": "contract IAaveIncentivesController",
          "name": "",
          "type": "address"
        }
      ],
      "stateMutability": "view",
      "type": "function"
    },
    {
      "inputs": [
        {
          "internalType": "address",
          "name": "user",
          "type": "address"
        },
        {
          "internalType": "enum IGovernancePowerDelegationToken.GovernancePowerType",
          "name": "delegationType",
          "type": "uint8"
        }
      ],
      "name": "getPowerCurrent",
      "outputs": [
        {
          "internalType": "uint256",
          "name": "",
          "type": "uint256"
        }
      ],
      "stateMutability": "view",
      "type": "function"
    },
    {
      "inputs": [
        {
          "internalType": "address",
          "name": "user",
          "type": "address"
        }
      ],
      "name": "getPowersCurrent",
      "outputs": [
        {
          "internalType": "uint256",
          "name": "",
          "type": "uint256"
        },
        {
          "internalType": "uint256",
          "name": "",
          "type": "uint256"
        }
      ],
      "stateMutability": "view",
      "type": "function"
    },
    {
      "inputs": [
        {
          "internalType": "address",
          "name": "user",
          "type": "address"
        }
      ],
      "name": "getPreviousIndex",
      "outputs": [
        {
          "internalType": "uint256",
          "name": "",
          "type": "uint256"
        }
      ],
      "stateMutability": "view",
      "type": "function"
    },
    {
      "inputs": [
        {
          "internalType": "address",
          "name": "user",
          "type": "address"
        }
      ],
      "name": "getScaledUserBalanceAndSupply",
      "outputs": [
        {
          "internalType": "uint256",
          "name": "",
          "type": "uint256"
        },
        {
          "internalType": "uint256",
          "name": "",
          "type": "uint256"
        }
      ],
      "stateMutability": "view",
      "type": "function"
    },
    {
      "inputs": [
        {
          "internalType": "address",
          "name": "user",
          "type": "address"
        },
        {
          "internalType": "address",
          "name": "onBehalfOf",
          "type": "address"
        },
        {
          "internalType": "uint256",
          "name": "amount",
          "type": "uint256"
        }
      ],
      "name": "handleRepayment",
      "outputs": [],
      "stateMutability": "nonpayable",
      "type": "function"
    },
    {
      "inputs": [
        {
          "internalType": "address",
          "name": "spender",
          "type": "address"
        },
        {
          "internalType": "uint256",
          "name": "addedValue",
          "type": "uint256"
        }
      ],
      "name": "increaseAllowance",
      "outputs": [
        {
          "internalType": "bool",
          "name": "",
          "type": "bool"
        }
      ],
      "stateMutability": "nonpayable",
      "type": "function"
    },
    {
      "inputs": [
        {
          "internalType": "contract IPool",
          "name": "",
          "type": "address"
        },
        {
          "internalType": "address",
          "name": "",
          "type": "address"
        },
        {
          "internalType": "address",
          "name": "",
          "type": "address"
        },
        {
          "internalType": "contract IAaveIncentivesController",
          "name": "",
          "type": "address"
        },
        {
          "internalType": "uint8",
          "name": "",
          "type": "uint8"
        },
        {
          "internalType": "string",
          "name": "",
          "type": "string"
        },
        {
          "internalType": "string",
          "name": "",
          "type": "string"
        },
        {
          "internalType": "bytes",
          "name": "",
          "type": "bytes"
        }
      ],
      "name": "initialize",
      "outputs": [],
      "stateMutability": "nonpayable",
      "type": "function"
    },
    {
      "inputs": [
        {
          "internalType": "address",
          "name": "delegator",
          "type": "address"
        },
        {
          "internalType": "address",
          "name": "delegatee",
          "type": "address"
        },
        {
          "internalType": "uint256",
          "name": "deadline",
          "type": "uint256"
        },
        {
          "internalType": "uint8",
          "name": "v",
          "type": "uint8"
        },
        {
          "internalType": "bytes32",
          "name": "r",
          "type": "bytes32"
        },
        {
          "internalType": "bytes32",
          "name": "s",
          "type": "bytes32"
        }
      ],
      "name": "metaDelegate",
      "outputs": [],
      "stateMutability": "nonpayable",
      "type": "function"
    },
    {
      "inputs": [
        {
          "internalType": "address",
          "name": "delegator",
          "type": "address"
        },
        {
          "internalType": "address",
          "name": "delegatee",
          "type": "address"
        },
        {
          "internalType": "enum IGovernancePowerDelegationToken.GovernancePowerType",
          "name": "delegationType",
          "type": "uint8"
        },
        {
          "internalType": "uint256",
          "name": "deadline",
          "type": "uint256"
        },
        {
          "internalType": "uint8",
          "name": "v",
          "type": "uint8"
        },
        {
          "internalType": "bytes32",
          "name": "r",
          "type": "bytes32"
        },
        {
          "internalType": "bytes32",
          "name": "s",
          "type": "bytes32"
        }
      ],
      "name": "metaDelegateByType",
      "outputs": [],
      "stateMutability": "nonpayable",
      "type": "function"
    },
    {
      "inputs": [
        {
          "internalType": "address",
          "name": "caller",
          "type": "address"
        },
        {
          "internalType": "address",
          "name": "onBehalfOf",
          "type": "address"
        },
        {
          "internalType": "uint256",
          "name": "amount",
          "type": "uint256"
        },
        {
          "internalType": "uint256",
          "name": "index",
          "type": "uint256"
        }
      ],
      "name": "mint",
      "outputs": [
        {
          "internalType": "bool",
          "name": "",
          "type": "bool"
        }
      ],
      "stateMutability": "nonpayable",
      "type": "function"
    },
    {
      "inputs": [
        {
          "internalType": "uint256",
          "name": "amount",
          "type": "uint256"
        },
        {
          "internalType": "uint256",
          "name": "index",
          "type": "uint256"
        }
      ],
      "name": "mintToTreasury",
      "outputs": [],
      "stateMutability": "nonpayable",
      "type": "function"
    },
    {
      "inputs": [],
      "name": "name",
      "outputs": [
        {
          "internalType": "string",
          "name": "",
          "type": "string"
        }
      ],
      "stateMutability": "view",
      "type": "function"
    },
    {
      "inputs": [
        {
          "internalType": "address",
          "name": "owner",
          "type": "address"
        }
      ],
      "name": "nonces",
      "outputs": [
        {
          "internalType": "uint256",
          "name": "",
          "type": "uint256"
        }
      ],
      "stateMutability": "view",
      "type": "function"
    },
    {
      "inputs": [
        {
          "internalType": "address",
          "name": "owner",
          "type": "address"
        },
        {
          "internalType": "address",
          "name": "spender",
          "type": "address"
        },
        {
          "internalType": "uint256",
          "name": "value",
          "type": "uint256"
        },
        {
          "internalType": "uint256",
          "name": "deadline",
          "type": "uint256"
        },
        {
          "internalType": "uint8",
          "name": "v",
          "type": "uint8"
        },
        {
          "internalType": "bytes32",
          "name": "r",
          "type": "bytes32"
        },
        {
          "internalType": "bytes32",
          "name": "s",
          "type": "bytes32"
        }
      ],
      "name": "permit",
      "outputs": [],
      "stateMutability": "nonpayable",
      "type": "function"
    },
    {
      "inputs": [
        {
          "internalType": "address",
          "name": "token",
          "type": "address"
        },
        {
          "internalType": "address",
          "name": "to",
          "type": "address"
        },
        {
          "internalType": "uint256",
          "name": "amount",
          "type": "uint256"
        }
      ],
      "name": "rescueTokens",
      "outputs": [],
      "stateMutability": "nonpayable",
      "type": "function"
    },
    {
      "inputs": [
        {
          "internalType": "address",
          "name": "user",
          "type": "address"
        }
      ],
      "name": "scaledBalanceOf",
      "outputs": [
        {
          "internalType": "uint256",
          "name": "",
          "type": "uint256"
        }
      ],
      "stateMutability": "view",
      "type": "function"
    },
    {
      "inputs": [],
      "name": "scaledTotalSupply",
      "outputs": [
        {
          "internalType": "uint256",
          "name": "",
          "type": "uint256"
        }
      ],
      "stateMutability": "view",
      "type": "function"
    },
    {
      "inputs": [
        {
          "internalType": "contract IAaveIncentivesController",
          "name": "controller",
          "type": "address"
        }
      ],
      "name": "setIncentivesController",
      "outputs": [],
      "stateMutability": "nonpayable",
      "type": "function"
    },
    {
      "inputs": [],
      "name": "symbol",
      "outputs": [
        {
          "internalType": "string",
          "name": "",
          "type": "string"
        }
      ],
      "stateMutability": "view",
      "type": "function"
    },
    {
      "inputs": [],
      "name": "totalSupply",
      "outputs": [
        {
          "internalType": "uint256",
          "name": "",
          "type": "uint256"
        }
      ],
      "stateMutability": "view",
      "type": "function"
    },
    {
      "inputs": [
        {
          "internalType": "address",
          "name": "recipient",
          "type": "address"
        },
        {
          "internalType": "uint256",
          "name": "amount",
          "type": "uint256"
        }
      ],
      "name": "transfer",
      "outputs": [
        {
          "internalType": "bool",
          "name": "",
          "type": "bool"
        }
      ],
      "stateMutability": "nonpayable",
      "type": "function"
    },
    {
      "inputs": [
        {
          "internalType": "address",
          "name": "sender",
          "type": "address"
        },
        {
          "internalType": "address",
          "name": "recipient",
          "type": "address"
        },
        {
          "internalType": "uint256",
          "name": "amount",
          "type": "uint256"
        }
      ],
      "name": "transferFrom",
      "outputs": [
        {
          "internalType": "bool",
          "name": "",
          "type": "bool"
        }
      ],
      "stateMutability": "nonpayable",
      "type": "function"
    },
    {
      "inputs": [
        {
          "internalType": "address",
          "name": "from",
          "type": "address"
        },
        {
          "internalType": "address",
          "name": "to",
          "type": "address"
        },
        {
          "internalType": "uint256",
          "name": "value",
          "type": "uint256"
        }
      ],
      "name": "transferOnLiquidation",
      "outputs": [],
      "stateMutability": "nonpayable",
      "type": "function"
    },
    {
      "inputs": [
        {
          "internalType": "address",
          "name": "target",
          "type": "address"
        },
        {
          "internalType": "uint256",
          "name": "amount",
          "type": "uint256"
        }
      ],
      "name": "transferUnderlyingTo",
      "outputs": [],
      "stateMutability": "nonpayable",
      "type": "function"
    }
  ],
  "bytecode": {
    "object": "0x6101a0604052600080553480156200001657600080fd5b5060405162003d8438038062003d848339810160408190526200003991620002b0565b80604051806040016040528060128152602001714161766520457468657265756d204141564560701b815250604051806040016040528060018152602001601960f91b815250826040518060400160405280600b81526020016a105513d2d15397d253541360aa1b8152506040518060400160405280600b81526020016a105513d2d15397d253541360aa1b81525060008383838383838383836001600160a01b0316630542975c6040518163ffffffff1660e01b8152600401602060405180830381865afa15801562000111573d6000803e3d6000fd5b505050506040513d601f19601f82011682018060405250810190620001379190620002b0565b6001600160a01b031660805260376200015184826200037c565b5060386200016083826200037c565b506039805460ff191660ff9290921691909117905550506001600160a01b031660a052506200019996508895506200024b945050505050565b61016052620001a8816200024b565b61018052815160208084019190912061012052815190820120610140524660e052620002386101205161014051604080517f8b73c3c69bb8fe3d512ecc4cf759cc79239f7b179b0ffacaa9a75d522b39400f60208201529081019290925260608201524660808201523060a082015260009060c00160405160208183030381529060405280519060200120905090565b60c0525050306101005250620004bd9050565b600080829050601f8151111562000282578260405163305a27a960e01b815260040162000279919062000448565b60405180910390fd5b80516200028f8262000498565b179392505050565b6001600160a01b0381168114620002ad57600080fd5b50565b600060208284031215620002c357600080fd5b8151620002d08162000297565b9392505050565b634e487b7160e01b600052604160045260246000fd5b600181811c908216806200030257607f821691505b6020821081036200032357634e487b7160e01b600052602260045260246000fd5b50919050565b601f8211156200037757600081815260208120601f850160051c81016020861015620003525750805b601f850160051c820191505b8181101562000373578281556001016200035e565b5050505b505050565b81516001600160401b03811115620003985762000398620002d7565b620003b081620003a98454620002ed565b8462000329565b602080601f831160018114620003e85760008415620003cf5750858301515b600019600386901b1c1916600185901b17855562000373565b600085815260208120601f198616915b828110156200041957888601518255948401946001909101908401620003f8565b5085821015620004385787850151600019600388901b60f8161c191681555b5050505050600190811b01905550565b600060208083528351808285015260005b81811015620004775785810183015185820160400152820162000459565b506000604082860101526040601f19601f8301168501019250505092915050565b80516020808301519190811015620003235760001960209190910360031b1b16919050565b60805160a05160c05160e0516101005161012051610140516101605161018051613802620005826000396000611bd401526000611d84015260006123d3015260006123ab01526000612306015260006123300152600061235a0152600081816104b00152818161080501528181610a3501528181610c8801528181610cfd01528181610d9f01528181610df50152818161113e015281816114df015281816116d101528181612064015261214b01526000818161119e015261156801526138026000f3fe608060405234801561001057600080fd5b506004361061028a5760003560e01c806375d264131161015c578063b16a19de116100ce578063d7020d0a11610087578063d7020d0a1461060f578063dc937e1c14610622578063dd62ed3e14610635578063e07539861461066e578063e655dbd8146106a7578063f866c319146106ba57600080fd5b8063b16a19de146105aa578063b1bf962d146105bb578063b2f4201d146105c3578063b3f1c93d146105d6578063cea9d26f146105e9578063d505accf146105fc57600080fd5b806395d89b411161012057806395d89b4114610531578063a095ac1914610539578063a457c2d71461054c578063a9059cbb1461055f578063aa9fbe0214610572578063ae1673351461059957600080fd5b806375d26413146104d257806378160376146104e85780637df5bd3b146104f05780637ecebe001461050357806384b0196e1461051657600080fd5b8063313ce567116102005780635c19a95c116101b95780635c19a95c14610434578063657f0cde146104475780636f50458d1461045a5780636fd976761461048557806370a08231146104985780637535d246146104ab57600080fd5b8063313ce567146103be5780633644e515146103d357806339509351146103db57806341cbf54a146103ee5780634efecaa514610415578063570a97141461042857600080fd5b806318160ddd1161025257806318160ddd14610341578063183fb413146103495780631da24f3e1461035e57806323b872dd146103715780632a8b36681461038457806330adf81f1461039757600080fd5b806306fdde031461028f578063095ea7b3146102ad5780630afbcdc9146102d05780630bd7ad3b146102f8578063169db77d1461030e575b600080fd5b6102976106cd565b6040516102a49190613087565b60405180910390f35b6102c06102bb3660046130bf565b61075f565b60405190151581526020016102a4565b6102e36102de3660046130eb565b610776565b604080519283526020830191909152016102a4565b610300600281565b6040519081526020016102a4565b61032161031c3660046130eb565b61078f565b604080516001600160a01b039384168152929091166020830152016102a4565b6103006107c1565b61035c610357366004613162565b61087d565b005b61030061036c3660046130eb565b610943565b6102c061037f366004613256565b61094e565b6102e36103923660046130eb565b6109ba565b6103007f6e71edae12b1b97f4d1f60370fef10105fa2faae0126114a169c64845d6126c981565b60395460405160ff90911681526020016102a4565b6103006109d3565b6102c06103e93660046130bf565b6109e2565b6103007fd46e8b93b5190df6403875402a5c13897b72d2a576da5d1bfea20a63638d216e81565b61035c6104233660046130bf565b610a19565b6103006402540be40081565b61035c6104423660046130eb565b610a97565b61035c6104553660046132a6565b610ab2565b61046d61046836600461331b565b610c57565b6040516001600160a01b0390911681526020016102a4565b61035c610493366004613256565b610c6c565b6103006104a63660046130eb565b610cd4565b61046d7f000000000000000000000000000000000000000000000000000000000000000081565b60395461010090046001600160a01b031661046d565b610297610d79565b61035c6104fe366004613350565b610d83565b6103006105113660046130eb565b610e2a565b61051e610e48565b6040516102a49796959493929190613372565b610297610e8e565b61035c610547366004613408565b610e9d565b6102c061055a3660046130bf565b611038565b6102c061056d3660046130bf565b61106f565b6103007f6e77642f8f60cdece0498bfeeb2f06ccfef0e8f86d28a1b6255c5e48f1d72a0381565b603c546001600160a01b031661046d565b603d546001600160a01b031661046d565b610300611092565b6103006105d136600461331b565b61109d565b6102c06105e436600461346b565b61111f565b61035c6105f7366004613256565b61119a565b61035c61060a3660046134b1565b61131f565b61035c61061d36600461346b565b6114c3565b61035c61063036600461331b565b611559565b610300610643366004613503565b6001600160a01b03918216600090815260356020908152604080832093909416825291909152205490565b61030061067c3660046130eb565b6001600160a01b0316600090815260346020526040902054600160801b90046001600160801b031690565b61035c6106b53660046130eb565b611564565b61035c6106c8366004613256565b6116b5565b6060603780546106dc9061353c565b80601f01602080910402602001604051908101604052809291908181526020018280546107089061353c565b80156107555780601f1061072a57610100808354040283529160200191610755565b820191906000526020600020905b81548152906001019060200180831161073857829003601f168201915b5050505050905090565b600061076c338484611725565b5060015b92915050565b60008061078283611786565b6036545b91509150915091565b600080600061079d846117aa565b90506107ab8482600061183b565b6107b78583600161183b565b9250925050915091565b6000806107cd60365490565b9050806000036107df57600091505090565b603d5460405163d15e005360e01b81526001600160a01b039182166004820152610877917f0000000000000000000000000000000000000000000000000000000000000000169063d15e005390602401602060405180830381865afa15801561084c573d6000803e3d6000fd5b505050506040513d601f19601f820116820180604052508101906108709190613570565b82906118eb565b91505090565b60015460029060ff16806108905750303b155b8061089c575060005481115b6109045760405162461bcd60e51b815260206004820152602e60248201527f436f6e747261637420696e7374616e63652068617320616c726561647920626560448201526d195b881a5b9a5d1a585b1a5e995960921b60648201526084015b60405180910390fd5b60015460ff16158015610923576001805460ff19168117905560008290555b8015610934576001805460ff191690555b50505050505050505050505050565b600061077082611786565b60008061095a8361192f565b6001600160a01b0386166000908152603560209081526040808320338085529252909120549192506109a29187919061099d906001600160781b0386169061359f565b611725565b6109ad85858361199c565b60019150505b9392505050565b6000806109c883600061109d565b61078684600161109d565b60006109dd6119d8565b905090565b3360008181526035602090815260408083206001600160a01b0387168452909152812054909161076c91859061099d9086906135b2565b604080518082019091526002815261323360f01b6020820152337f00000000000000000000000000000000000000000000000000000000000000006001600160a01b031614610a7b5760405162461bcd60e51b81526004016108fb9190613087565b50603d54610a93906001600160a01b031683836119e2565b5050565b610aa333826000611a6d565b610aaf33826001611a6d565b50565b6001600160a01b038716610af85760405162461bcd60e51b815260206004820152600d60248201526c24a72b20a624a22fa7aba722a960991b60448201526064016108fb565b83421115610b3d5760405162461bcd60e51b815260206004820152601260248201527124a72b20a624a22fa2ac2824a920aa24a7a760711b60448201526064016108fb565b6000610be0610b4a611b95565b7f6e77642f8f60cdece0498bfeeb2f06ccfef0e8f86d28a1b6255c5e48f1d72a038a8a8a610b958e6001600160a01b03166000908152603a6020526040902080546001810190915590565b8b604051602001610bab969594939291906135fd565b6040516020818303038152906040528051906020012060405161190160f01b8152600281019290925260228201526042902090565b9050610bee81858585611b9f565b6001600160a01b0316886001600160a01b031614610c425760405162461bcd60e51b8152602060048201526011602482015270494e56414c49445f5349474e415455524560781b60448201526064016108fb565b610c4d888888611a6d565b5050505050505050565b60006109b383610c66856117aa565b8461183b565b604080518082019091526002815261323360f01b6020820152337f00000000000000000000000000000000000000000000000000000000000000006001600160a01b031614610cce5760405162461bcd60e51b81526004016108fb9190613087565b50505050565b603d5460405163d15e005360e01b81526001600160a01b039182166004820152600091610770917f00000000000000000000000000000000000000000000000000000000000000009091169063d15e005390602401602060405180830381865afa158015610d46573d6000803e3d6000fd5b505050506040513d601f19601f82011682018060405250810190610d6a9190613570565b610d7384611786565b906118eb565b60606109dd611bcd565b604080518082019091526002815261323360f01b6020820152337f00000000000000000000000000000000000000000000000000000000000000006001600160a01b031614610de55760405162461bcd60e51b81526004016108fb9190613087565b508115610a9357603c54610e25907f0000000000000000000000000000000000000000000000000000000000000000906001600160a01b03168484611bf8565b505050565b6001600160a01b0381166000908152603a6020526040812054610770565b600060608060008060006060610e5c611d7d565b610e64611bcd565b60408051600080825260208201909252600f60f81b9b939a50919850469750309650945092509050565b6060603880546106dc9061353c565b6001600160a01b038616610ee35760405162461bcd60e51b815260206004820152600d60248201526c24a72b20a624a22fa7aba722a960991b60448201526064016108fb565b83421115610f285760405162461bcd60e51b815260206004820152601260248201527124a72b20a624a22fa2ac2824a920aa24a7a760711b60448201526064016108fb565b6000610fb5610f35611b95565b7fd46e8b93b5190df6403875402a5c13897b72d2a576da5d1bfea20a63638d216e8989610f7f8c6001600160a01b03166000908152603a6020526040902080546001810190915590565b6040805160208101959095526001600160a01b039384169085015291166060830152608082015260a0810188905260c001610bab565b9050610fc381858585611b9f565b6001600160a01b0316876001600160a01b0316146110175760405162461bcd60e51b8152602060048201526011602482015270494e56414c49445f5349474e415455524560781b60448201526064016108fb565b61102387876000611a6d565b61102f87876001611a6d565b50505050505050565b3360008181526035602090815260408083206001600160a01b0387168452909152812054909161076c91859061099d90869061359f565b60008061107b8361192f565b905061108833858361199c565b5060019392505050565b60006109dd60365490565b6000806110a9846117aa565b905060008360018111156110bf576110bf6135c5565b6110ca90600161363c565b826040015160038111156110e0576110e06135c5565b1660ff166000146110f25760006110fb565b6110fb85611786565b905060006111098386611da8565b905061111581836135b2565b9695505050505050565b604080518082019091526002815261323360f01b6020820152600090337f00000000000000000000000000000000000000000000000000000000000000006001600160a01b0316146111845760405162461bcd60e51b81526004016108fb9190613087565b5061119185858585611bf8565b95945050505050565b60007f00000000000000000000000000000000000000000000000000000000000000006001600160a01b031663707cd7166040518163ffffffff1660e01b8152600401602060405180830381865afa1580156111fa573d6000803e3d6000fd5b505050506040513d601f19601f8201168201806040525081019061121e9190613655565b604051637be53ca160e01b81523360048201529091506001600160a01b03821690637be53ca190602401602060405180830381865afa158015611265573d6000803e3d6000fd5b505050506040513d601f19601f820116820180604052508101906112899190613672565b604051806040016040528060018152602001603160f81b815250906112c15760405162461bcd60e51b81526004016108fb9190613087565b50603d54604080518082019091526002815261383560f01b6020820152906001600160a01b0386811691160361130a5760405162461bcd60e51b81526004016108fb9190613087565b50610cce6001600160a01b03851684846119e2565b604080518082019091526002815261373760f01b60208201526001600160a01b03881661135f5760405162461bcd60e51b81526004016108fb9190613087565b50834211156040518060400160405280600281526020016106e760f31b8152509061139d5760405162461bcd60e51b81526004016108fb9190613087565b506001600160a01b038781166000818152603a602090815260408083205481517f6e71edae12b1b97f4d1f60370fef10105fa2faae0126114a169c64845d6126c9938101939093529082019390935292891660608401526080830188905260a0830182905260c08301879052909161142d9060e00160405160208183030381529060405280519060200120611de7565b905061143b81868686611b9f565b6001600160a01b0316896001600160a01b03161460405180604001604052806002815260200161373960f01b815250906114885760405162461bcd60e51b81526004016108fb9190613087565b506114948260016135b2565b6001600160a01b038a166000908152603a60205260409020556114b8898989611725565b505050505050505050565b604080518082019091526002815261323360f01b6020820152337f00000000000000000000000000000000000000000000000000000000000000006001600160a01b0316146115255760405162461bcd60e51b81526004016108fb9190613087565b5061153284848484611e14565b6001600160a01b0383163014610cce57603d54610cce906001600160a01b031684846119e2565b610a93338383611a6d565b60007f00000000000000000000000000000000000000000000000000000000000000006001600160a01b031663707cd7166040518163ffffffff1660e01b8152600401602060405180830381865afa1580156115c4573d6000803e3d6000fd5b505050506040513d601f19601f820116820180604052508101906115e89190613655565b604051637be53ca160e01b81523360048201529091506001600160a01b03821690637be53ca190602401602060405180830381865afa15801561162f573d6000803e3d6000fd5b505050506040513d601f19601f820116820180604052508101906116539190613672565b604051806040016040528060018152602001603160f81b8152509061168b5760405162461bcd60e51b81526004016108fb9190613087565b5050603980546001600160a01b0390921661010002610100600160a81b0319909216919091179055565b604080518082019091526002815261323360f01b6020820152337f00000000000000000000000000000000000000000000000000000000000000006001600160a01b0316146117175760405162461bcd60e51b81526004016108fb9190613087565b50610e25838383600061203c565b6001600160a01b0383811660008181526035602090815260408083209487168084529482529182902085905590518481527f8c5be1e5ebec7d5bd14f71427d1e84f3dd0314c0f7b2291e5b200ac8c7c3b925910160405180910390a3505050565b6001600160a01b03166000908152603460205260409020546001600160781b031690565b6117cb60408051606081018252600080825260208201819052909182015290565b604080516060810182526001600160a01b03841660008181526020848152848220546001600160481b038082168652600160481b90910416818501529181526034909152829020549091820190600160781b900460ff166003811115611833576118336135c5565b905292915050565b600080826001811115611850576118506135c5565b036118a25760018360400151600381111561186d5761186d6135c5565b1660ff1660000361187f57600061189b565b6001600160a01b038085166000908152603e6020526040902054165b90506109b3565b6002836040015160038111156118ba576118ba6135c5565b10156118c75760006118e3565b6001600160a01b038085166000908152603f6020526040902054165b949350505050565b600081156b019d971e4fe8401e74000000198390048411151761190d57600080fd5b506b033b2e3c9fd0803ce800000091026b019d971e4fe8401e74000000010490565b60006001600160781b038211156119985760405162461bcd60e51b815260206004820152602760248201527f53616665436173743a2076616c756520646f65736e27742066697420696e20316044820152663230206269747360c81b60648201526084016108fb565b5090565b6119c283836119aa86611786565b6119b386611786565b856001600160781b03166121f5565b610e258383836001600160781b0316600161203c565b60006109dd6122f9565b60405163a9059cbb60e01b8082526001600160a01b0384166004830152602482018390529060008060448382895af1611a1f573d6000803e3d6000fd5b50611a2984612424565b610cce5760405162461bcd60e51b815260206004820152601560248201527423a83b191d103330b4b632b2103a3930b739b332b960591b60448201526064016108fb565b6000836001600160a01b0316836001600160a01b031614611a8e5782611a91565b60005b90506000611a9e856117aa565b90506000611aad86838661183b565b9050806001600160a01b0316836001600160a01b031603611ad057505050505050565b6001600160a01b03818116151590841615156000611aed89611786565b90508215611b0257611b02816000868a6124cc565b8115611b1557611b15600082888a6124cc565b611b20898888612596565b82151582151514611b3f57611b3f89611b3a878a86612639565b612759565b856001600160a01b0316896001600160a01b03167fe8d51c8e11bd570db1734c8ec775785330e77007feed45c43b608ef33ff914bd89604051611b829190613694565b60405180910390a3505050505050505050565b60006109dd6109d3565b600080600080611bb1888888886127f4565b925092509250611bc182826128c3565b50909695505050505050565b60606109dd7f000000000000000000000000000000000000000000000000000000000000000061297c565b600080611c0584846129bb565b6040805180820190915260028152610c8d60f21b602082015290915081611c3f5760405162461bcd60e51b81526004016108fb9190613087565b506000611c4b86611786565b6001600160a01b03871660009081526034602052604081205491925090611c83908390600160801b90046001600160801b03166118eb565b611c8d83876118eb565b611c97919061359f565b9050611ca2856129fa565b6001600160a01b038816600090815260346020526040902080546001600160801b03928316600160801b029216919091179055611ce787611ce28561192f565b612a63565b6000611cf382886135b2565b9050876001600160a01b031660006001600160a01b03166000805160206137ad83398151915283604051611d2991815260200190565b60405180910390a360408051828152602081018490529081018790526001600160a01b03808a1691908b169060008051602061378d8339815191529060600160405180910390a35050159695505050505050565b60606109dd7f000000000000000000000000000000000000000000000000000000000000000061297c565b600080826001811115611dbd57611dbd6135c5565b14611dc9578251611dcf565b82602001515b6109b3906001600160481b03166402540be4006136a2565b6000610770611df46122f9565b8360405161190160f01b8152600281019290925260228201526042902090565b6000611e2083836129bb565b604080518082019091526002815261323560f01b602082015290915081611e5a5760405162461bcd60e51b81526004016108fb9190613087565b506000611e6686611786565b6001600160a01b03871660009081526034602052604081205491925090611e9e908390600160801b90046001600160801b03166118eb565b611ea883866118eb565b611eb2919061359f565b9050611ebd846129fa565b6001600160a01b038816600090815260346020526040902080546001600160801b03928316600160801b029216919091179055611f0287611efd8561192f565b612b4d565b84811115611f96576000611f16868361359f565b9050876001600160a01b031660006001600160a01b03166000805160206137ad83398151915283604051611f4c91815260200190565b60405180910390a360408051828152602081018490529081018690526001600160a01b03891690819060008051602061378d8339815191529060600160405180910390a35061102f565b6000611fa2828761359f565b905060006001600160a01b0316886001600160a01b03166000805160206137ad83398151915283604051611fd891815260200190565b60405180910390a360408051828152602081018490529081018690526001600160a01b0380891691908a16907f4cf25bc1d991c17529c25213d3cc0cda295eeaad5f13f361969b12ea48015f90906060015b60405180910390a35050505050505050565b603d5460405163d15e005360e01b81526001600160a01b0391821660048201819052916000917f00000000000000000000000000000000000000000000000000000000000000009091169063d15e005390602401602060405180830381865afa1580156120ad573d6000803e3d6000fd5b505050506040513d601f19601f820116820180604052508101906120d19190613570565b905060006120e282610d7389611786565b905060006120f383610d7389611786565b905061210188888886612b92565b84156121a85760405163d5ed393360e01b81526001600160a01b03858116600483015289811660248301528881166044830152606482018890526084820184905260a482018390527f0000000000000000000000000000000000000000000000000000000000000000169063d5ed39339060c401600060405180830381600087803b15801561218f57600080fd5b505af11580156121a3573d6000803e3d6000fd5b505050505b6001600160a01b038088169089167f4beccb90f994c31aced7a23b5611020728a23d8ec5cddd1a3e9d97b96fda86666121e189876129bb565b60408051918252602082018890520161202a565b836001600160a01b0316856001600160a01b031603156122f2576001600160a01b03851615612289576000612229866117aa565b90506000612237838661359f565b9050600082604001516003811115612251576122516135c5565b146122865761226e85826122678a86600061183b565b60006124cc565b612286858261227f8a86600161183b565b60016124cc565b50505b6001600160a01b038416156122f25760006122a3856117aa565b905060006122b183856135b2565b90506000826040015160038111156122cb576122cb6135c5565b1461102f576122e184826122678986600061183b565b61102f848261227f8986600161183b565b5050505050565b6000306001600160a01b037f00000000000000000000000000000000000000000000000000000000000000001614801561235257507f000000000000000000000000000000000000000000000000000000000000000046145b1561237c57507f000000000000000000000000000000000000000000000000000000000000000090565b6109dd604080517f8b73c3c69bb8fe3d512ecc4cf759cc79239f7b179b0ffacaa9a75d522b39400f60208201527f0000000000000000000000000000000000000000000000000000000000000000918101919091527f000000000000000000000000000000000000000000000000000000000000000060608201524660808201523060a082015260009060c00160405160208183030381529060405280519060200120905090565b6000612449565b62461bcd60e51b600052602060045280602452508060445260646000fd5b3d801561248857602081146124b9576124837f475076323a206d616c666f726d6564207472616e7366657220726573756c7400601f61242b565b6124c6565b823b6124b0576124b07311d41d8c8e881b9bdd08184818dbdb9d1c9858dd60621b601461242b565b600191506124c6565b3d6000803e600051151591505b50919050565b6001600160a01b03821615610cce57838314610cce5760006124fb6124f66402540be400876136b9565b612e0e565b905060006125116124f66402540be400876136b9565b9050600061251e856117aa565b90506000846001811115612534576125346135c5565b03612567578183826020015161254a91906136db565b6125549190613702565b6001600160481b0316602082015261258c565b805182906125769085906136db565b6125809190613702565b6001600160481b031681525b61102f8582612759565b6000836001600160a01b0316826001600160a01b0316146125b757816125ba565b60005b905060008360018111156125d0576125d06135c5565b03612608576001600160a01b038481166000908152603e6020526040902080546001600160a01b031916918316919091179055610cce565b6001600160a01b039384166000908152603f6020526040902080546001600160a01b03191691909416179092555050565b61265a60408051606081018252600080825260208201819052909182015290565b81156126d957826001811115612672576126726135c5565b61267d90600161363c565b84604001516003811115612693576126936135c5565b1760ff1660038111156126a8576126a86135c5565b846040019060038111156126be576126be6135c5565b908160038111156126d1576126d16135c5565b905250612751565b60038360018111156126ed576126ed6135c5565b6126f890600161363c565b188460400151600381111561270f5761270f6135c5565b1660ff166003811115612724576127246135c5565b8460400190600381111561273a5761273a6135c5565b9081600381111561274d5761274d6135c5565b9052505b509192915050565b6040808201516001600160a01b0384166000908152603460205291909120805460ff60781b1916600160781b836003811115612797576127976135c5565b021790555080516001600160a01b039092166000908152604060208181529120805491909201516001600160481b03908116600160481b0271ffffffffffffffffffffffffffffffffffff19909216931692909217919091179055565b600080807f7fffffffffffffffffffffffffffffff5d576e7357a4501ddfe92f46681b20a084111561282f57506000915060039050826128b9565b604080516000808252602082018084528a905260ff891692820192909252606081018790526080810186905260019060a0016020604051602081039080840390855afa158015612883573d6000803e3d6000fd5b5050604051601f1901519150506001600160a01b0381166128af575060009250600191508290506128b9565b9250600091508190505b9450945094915050565b60008260038111156128d7576128d76135c5565b036128e0575050565b60018260038111156128f4576128f46135c5565b036129125760405163f645eedf60e01b815260040160405180910390fd5b6002826003811115612926576129266135c5565b036129475760405163fce698f760e01b8152600481018290526024016108fb565b600382600381111561295b5761295b6135c5565b03610a93576040516335e2f38360e21b8152600481018290526024016108fb565b6060600061298983612e76565b604080516020808252818301909252919250600091906020820181803683375050509182525060208101929092525090565b600081156b033b2e3c9fd0803ce8000000600284041904841117156129df57600080fd5b506b033b2e3c9fd0803ce80000009190910260028204010490565b60006001600160801b038211156119985760405162461bcd60e51b815260206004820152602760248201527f53616665436173743a2076616c756520646f65736e27742066697420696e20316044820152663238206269747360c81b60648201526084016108fb565b603654612a796001600160781b038316826135b2565b6036556001600160a01b0383166000908152603460205260409020546001600160781b0316612aa88382613722565b6001600160a01b03858116600090815260346020526040902080546001600160781b0319166001600160781b03939093169290921790915560395461010090041680156122f2576040516318c39f1760e11b81526001600160a01b038216906331873e2e90612b1f90889087908790600401613742565b600060405180830381600087803b158015612b3957600080fd5b505af11580156114b8573d6000803e3d6000fd5b603654612b636001600160781b0383168261359f565b6036556001600160a01b0383166000908152603460205260409020546001600160781b0316612aa8838261376c565b6000612b9d85611786565b6001600160a01b03861660009081526034602052604081205491925090612bd5908390600160801b90046001600160801b03166118eb565b612bdf83856118eb565b612be9919061359f565b90506000612bf686611786565b6001600160a01b03871660009081526034602052604081205491925090612c2e908390600160801b90046001600160801b03166118eb565b612c3883876118eb565b612c42919061359f565b9050612c4d856129fa565b6001600160a01b038916600090815260346020526040902080546001600160801b03928316600160801b029216919091179055612c89856129fa565b6001600160a01b038816600090815260346020526040902080546001600160801b03928316600160801b029216919091179055612cd88888612cd3612cce8a8a6129bb565b61192f565b612e9e565b8215612d49576040518381526001600160a01b038916906000906000805160206137ad8339815191529060200160405180910390a3604080518481526020810185905280820187905290516001600160a01b038a1691339160008051602061378d8339815191529181900360600190a35b866001600160a01b0316886001600160a01b031614158015612d6b5750600081115b15612ddb576040518181526001600160a01b038816906000906000805160206137ad8339815191529060200160405180910390a3604080518281526020810183905280820187905290516001600160a01b03891691339160008051602061378d8339815191529181900360600190a35b866001600160a01b0316886001600160a01b03166000805160206137ad8339815191528860405161202a91815260200190565b60006001600160481b038211156119985760405162461bcd60e51b815260206004820152602660248201527f53616665436173743a2076616c756520646f65736e27742066697420696e203760448201526532206269747360d01b60648201526084016108fb565b600060ff8216601f81111561077057604051632cd44ac360e21b815260040160405180910390fd5b6001600160a01b0383166000908152603460205260409020546001600160781b0316612eca828261376c565b6001600160a01b0385811660009081526034602052604080822080546001600160781b0319166001600160781b039586161790559186168152205416612f108382613722565b6001600160a01b03858116600090815260346020526040902080546001600160781b0319166001600160781b0393909316929092179091556039546101009004168015613039576036546040516318c39f1760e11b81526001600160a01b038316906331873e2e90612f8a908a9085908990600401613742565b600060405180830381600087803b158015612fa457600080fd5b505af1158015612fb8573d6000803e3d6000fd5b50505050856001600160a01b0316876001600160a01b03161461102f576040516318c39f1760e11b81526001600160a01b038316906331873e2e9061300590899085908890600401613742565b600060405180830381600087803b15801561301f57600080fd5b505af1158015613033573d6000803e3d6000fd5b50505050505b505050505050565b6000815180845260005b818110156130675760208185018101518683018201520161304b565b506000602082860101526020601f19601f83011685010191505092915050565b6020815260006109b36020830184613041565b6001600160a01b0381168114610aaf57600080fd5b80356130ba8161309a565b919050565b600080604083850312156130d257600080fd5b82356130dd8161309a565b946020939093013593505050565b6000602082840312156130fd57600080fd5b81356109b38161309a565b803560ff811681146130ba57600080fd5b60008083601f84011261312b57600080fd5b50813567ffffffffffffffff81111561314357600080fd5b60208301915083602082850101111561315b57600080fd5b9250929050565b60008060008060008060008060008060006101008c8e03121561318457600080fd5b61318d8c6130af565b9a5061319b60208d016130af565b99506131a960408d016130af565b98506131b760608d016130af565b97506131c560808d01613108565b965067ffffffffffffffff8060a08e013511156131e157600080fd5b6131f18e60a08f01358f01613119565b909750955060c08d013581101561320757600080fd5b6132178e60c08f01358f01613119565b909550935060e08d013581101561322d57600080fd5b5061323e8d60e08e01358e01613119565b81935080925050509295989b509295989b9093969950565b60008060006060848603121561326b57600080fd5b83356132768161309a565b925060208401356132868161309a565b929592945050506040919091013590565b8035600281106130ba57600080fd5b600080600080600080600060e0888a0312156132c157600080fd5b87356132cc8161309a565b965060208801356132dc8161309a565b95506132ea60408901613297565b9450606088013593506132ff60808901613108565b925060a0880135915060c0880135905092959891949750929550565b6000806040838503121561332e57600080fd5b82356133398161309a565b915061334760208401613297565b90509250929050565b6000806040838503121561336357600080fd5b50508035926020909101359150565b60ff60f81b881681526000602060e08184015261339260e084018a613041565b83810360408501526133a4818a613041565b606085018990526001600160a01b038816608086015260a0850187905284810360c0860152855180825283870192509083019060005b818110156133f6578351835292840192918401916001016133da565b50909c9b505050505050505050505050565b60008060008060008060c0878903121561342157600080fd5b863561342c8161309a565b9550602087013561343c8161309a565b94506040870135935061345160608801613108565b92506080870135915060a087013590509295509295509295565b6000806000806080858703121561348157600080fd5b843561348c8161309a565b9350602085013561349c8161309a565b93969395505050506040820135916060013590565b600080600080600080600060e0888a0312156134cc57600080fd5b87356134d78161309a565b965060208801356134e78161309a565b955060408801359450606088013593506132ff60808901613108565b6000806040838503121561351657600080fd5b82356135218161309a565b915060208301356135318161309a565b809150509250929050565b600181811c9082168061355057607f821691505b6020821081036124c657634e487b7160e01b600052602260045260246000fd5b60006020828403121561358257600080fd5b5051919050565b634e487b7160e01b600052601160045260246000fd5b8181038181111561077057610770613589565b8082018082111561077057610770613589565b634e487b7160e01b600052602160045260246000fd5b600281106135f957634e487b7160e01b600052602160045260246000fd5b9052565b8681526001600160a01b0386811660208301528516604082015260c0810161362860608301866135db565b608082019390935260a00152949350505050565b60ff818116838216019081111561077057610770613589565b60006020828403121561366757600080fd5b81516109b38161309a565b60006020828403121561368457600080fd5b815180151581146109b357600080fd5b6020810161077082846135db565b808202811582820484141761077057610770613589565b6000826136d657634e487b7160e01b600052601260045260246000fd5b500490565b6001600160481b038281168282160390808211156136fb576136fb613589565b5092915050565b6001600160481b038181168382160190808211156136fb576136fb613589565b6001600160781b038181168382160190808211156136fb576136fb613589565b6001600160a01b0393909316835260208301919091526001600160781b0316604082015260600190565b6001600160781b038281168282160390808211156136fb576136fb61358956fe458f5fa412d0f69b08dd84872b0215675cc67bc1d5b6fd93300a1c3878b86196ddf252ad1be2c89b69c2b068fc378daa952ba7f163c4a11628f55a4df523b3efa26469706673582212202c9fd9c3268a922aa4a58bbef7c7baa39414df866a67c0f464853b8f587038e564736f6c63430008130033",
    "linkReferences": {}
  },
  "methodIdentifiers": {
    "ATOKEN_REVISION()": "0bd7ad3b",
    "DELEGATE_BY_TYPE_TYPEHASH()": "aa9fbe02",
    "DELEGATE_TYPEHASH()": "41cbf54a",
    "DOMAIN_SEPARATOR()": "3644e515",
    "EIP712_REVISION()": "78160376",
    "PERMIT_TYPEHASH()": "30adf81f",
    "POOL()": "7535d246",
    "POWER_SCALE_FACTOR()": "570a9714",
    "RESERVE_TREASURY_ADDRESS()": "ae167335",
    "UNDERLYING_ASSET_ADDRESS()": "b16a19de",
    "allowance(address,address)": "dd62ed3e",
    "approve(address,uint256)": "095ea7b3",
    "balanceOf(address)": "70a08231",
    "burn(address,address,uint256,uint256)": "d7020d0a",
    "decimals()": "313ce567",
    "decreaseAllowance(address,uint256)": "a457c2d7",
    "delegate(address)": "5c19a95c",
    "delegateByType(address,uint8)": "dc937e1c",
    "eip712Domain()": "84b0196e",
    "getDelegateeByType(address,uint8)": "6f50458d",
    "getDelegates(address)": "169db77d",
    "getIncentivesController()": "75d26413",
    "getPowerCurrent(address,uint8)": "b2f4201d",
    "getPowersCurrent(address)": "2a8b3668",
    "getPreviousIndex(address)": "e0753986",
    "getScaledUserBalanceAndSupply(address)": "0afbcdc9",
    "handleRepayment(address,address,uint256)": "6fd97676",
    "increaseAllowance(address,uint256)": "39509351",
    "initialize(address,address,address,address,uint8,string,string,bytes)": "183fb413",
    "metaDelegate(address,address,uint256,uint8,bytes32,bytes32)": "a095ac19",
    "metaDelegateByType(address,address,uint8,uint256,uint8,bytes32,bytes32)": "657f0cde",
    "mint(address,address,uint256,uint256)": "b3f1c93d",
    "mintToTreasury(uint256,uint256)": "7df5bd3b",
    "name()": "06fdde03",
    "nonces(address)": "7ecebe00",
    "permit(address,address,uint256,uint256,uint8,bytes32,bytes32)": "d505accf",
    "rescueTokens(address,address,uint256)": "cea9d26f",
    "scaledBalanceOf(address)": "1da24f3e",
    "scaledTotalSupply()": "b1bf962d",
    "setIncentivesController(address)": "e655dbd8",
    "symbol()": "95d89b41",
    "totalSupply()": "18160ddd",
    "transfer(address,uint256)": "a9059cbb",
    "transferFrom(address,address,uint256)": "23b872dd",
    "transferOnLiquidation(address,address,uint256)": "f866c319",
    "transferUnderlyingTo(address,uint256)": "4efecaa5"
  },
  "id": 93
}