{
  "abi": [
    {
      "inputs": [
        {
          "internalType": "address",
          "name": "aAaveImpl",
          "type": "address"
        }
      ],
      "stateMutability": "nonpayable",
      "type": "constructor"
    },
    {
      "inputs": [],
      "name": "A_AAVE_IMPL",
      "outputs": [
        {
          "internalType": "address",
          "name": "",
          "type": "address"
        }
      ],
      "stateMutability": "view",
      "type": "function"
    },
    {
      "inputs": [],
      "name": "execute",
      "outputs": [],
      "stateMutability": "nonpayable",
      "type": "function"
    }
  ],
  "bytecode": {
    "object": "0x60a060405234801561001057600080fd5b506040516103aa3803806103aa83398101604081905261002f91610040565b6001600160a01b0316608052610070565b60006020828403121561005257600080fd5b81516001600160a01b038116811461006957600080fd5b9392505050565b608051610319610091600039600081816040015261012c01526103196000f3fe608060405234801561001057600080fd5b50600436106100365760003560e01c806313ca3ebe1461003b578063614619541461007e575b600080fd5b6100627f000000000000000000000000000000000000000000000000000000000000000081565b6040516001600160a01b03909116815260200160405180910390f35b610086610088565b005b6040805160e081018252737fc66500c84a76ad7e9c93437bfc5ac33e2ddae9815273464c71f6c2f760dda6093dcb91c24c39e5d6e18c602080830191909152738164cc65827dcfe994ab23944cbc90e0aa80bfcb828401528251808401845260128152714161766520457468657265756d204141564560701b818301526060830152825180840184526008815267614574684141564560c01b8183015260808301527f00000000000000000000000000000000000000000000000000000000000000006001600160a01b031660a0830152825180840184526004808252630307831360e41b9282019290925260c08301529151632ec070df60e21b815290917364b761d848206f447fe2dd461b0c635ec39ebb279163bb01c37c916101af9185910161022a565b600060405180830381600087803b1580156101c957600080fd5b505af11580156101dd573d6000803e3d6000fd5b5050505050565b6000815180845260005b8181101561020a576020818501810151868301820152016101ee565b506000602082860101526020601f19601f83011685010191505092915050565b60208152600060018060a01b0380845116602084015280602085015116604084015250604083015161026760608401826001600160a01b03169052565b50606083015160e060808401526102826101008401826101e4565b90506080840151601f19808584030160a08601526102a083836101e4565b925060a086015191506102be60c08601836001600160a01b03169052565b60c08601519150808584030160e0860152506102da82826101e4565b9594505050505056fea26469706673582212200b7ee257c6c39526cbc277da03b4c619debb503a22125d70a2fc8b624678ec4364736f6c63430008130033",
    "linkReferences": {}
  },
  "methodIdentifiers": {
    "A_AAVE_IMPL()": "13ca3ebe",
    "execute()": "61461954"
  },
  "id": 100
}