{
  "abi": [
    {
      "inputs": [
        {
          "internalType": "address",
          "name": "crossChainController",
          "type": "address"
        },
        {
          "internalType": "uint256",
          "name": "gasLimit",
          "type": "uint256"
        },
        {
          "internalType": "uint256",
          "name": "l1VotingPortalChainId",
          "type": "uint256"
        },
        {
          "internalType": "contract IVotingStrategy",
          "name": "votingStrategy",
          "type": "address"
        },
        {
          "internalType": "address",
          "name": "l1VotingPortal",
          "type": "address"
        },
        {
          "internalType": "address",
          "name": "governance",
          "type": "address"
        }
      ],
      "stateMutability": "nonpayable",
      "type": "constructor"
    },
    {
      "inputs": [],
      "name": "ECDSAInvalidSignature",
      "type": "error"
    },
    {
      "inputs": [
        {
          "internalType": "uint256",
          "name": "length",
          "type": "uint256"
        }
      ],
      "name": "ECDSAInvalidSignatureLength",
      "type": "error"
    },
    {
      "inputs": [
        {
          "internalType": "bytes32",
          "name": "s",
          "type": "bytes32"
        }
      ],
      "name": "ECDSAInvalidSignatureS",
      "type": "error"
    },
    {
      "inputs": [],
      "name": "InvalidShortString",
      "type": "error"
    },
    {
      "inputs": [
        {
          "internalType": "string",
          "name": "str",
          "type": "string"
        }
      ],
      "name": "StringTooLong",
      "type": "error"
    },
    {
      "anonymous": false,
      "inputs": [],
      "name": "EIP712DomainChanged",
      "type": "event"
    },
    {
      "anonymous": false,
      "inputs": [
        {
          "indexed": true,
          "internalType": "uint256",
          "name": "gasLimit",
          "type": "uint256"
        }
      ],
      "name": "GasLimitUpdated",
      "type": "event"
    },
    {
      "anonymous": false,
      "inputs": [
        {
          "indexed": true,
          "internalType": "address",
          "name": "originSender",
          "type": "address"
        },
        {
          "indexed": true,
          "internalType": "uint256",
          "name": "originChainId",
          "type": "uint256"
        },
        {
          "indexed": false,
          "internalType": "bytes",
          "name": "message",
          "type": "bytes"
        },
        {
          "indexed": false,
          "internalType": "bytes",
          "name": "reason",
          "type": "bytes"
        }
      ],
      "name": "IncorrectTypeMessageReceived",
      "type": "event"
    },
    {
      "anonymous": false,
      "inputs": [
        {
          "indexed": true,
          "internalType": "address",
          "name": "originSender",
          "type": "address"
        },
        {
          "indexed": true,
          "internalType": "uint256",
          "name": "originChainId",
          "type": "uint256"
        },
        {
          "indexed": true,
          "internalType": "bool",
          "name": "delivered",
          "type": "bool"
        },
        {
          "indexed": false,
          "internalType": "enum IVotingPortal.MessageType",
          "name": "messageType",
          "type": "uint8"
        },
        {
          "indexed": false,
          "internalType": "bytes",
          "name": "message",
          "type": "bytes"
        },
        {
          "indexed": false,
          "internalType": "bytes",
          "name": "reason",
          "type": "bytes"
        }
      ],
      "name": "MessageReceived",
      "type": "event"
    },
    {
      "anonymous": false,
      "inputs": [
        {
          "indexed": true,
          "internalType": "address",
          "name": "previousOwner",
          "type": "address"
        },
        {
          "indexed": true,
          "internalType": "address",
          "name": "newOwner",
          "type": "address"
        }
      ],
      "name": "OwnershipTransferred",
      "type": "event"
    },
    {
      "anonymous": false,
      "inputs": [
        {
          "indexed": true,
          "internalType": "uint256",
          "name": "proposalId",
          "type": "uint256"
        },
        {
          "indexed": false,
          "internalType": "uint256",
          "name": "forVotes",
          "type": "uint256"
        },
        {
          "indexed": false,
          "internalType": "uint256",
          "name": "againstVotes",
          "type": "uint256"
        }
      ],
      "name": "ProposalResultsSent",
      "type": "event"
    },
    {
      "anonymous": false,
      "inputs": [
        {
          "indexed": true,
          "internalType": "uint256",
          "name": "proposalId",
          "type": "uint256"
        },
        {
          "indexed": true,
          "internalType": "bytes32",
          "name": "blockHash",
          "type": "bytes32"
        },
        {
          "indexed": false,
          "internalType": "uint24",
          "name": "votingDuration",
          "type": "uint24"
        },
        {
          "indexed": true,
          "internalType": "bool",
          "name": "voteCreated",
          "type": "bool"
        }
      ],
      "name": "ProposalVoteConfigurationBridged",
      "type": "event"
    },
    {
      "anonymous": false,
      "inputs": [
        {
          "indexed": true,
          "internalType": "uint256",
          "name": "proposalId",
          "type": "uint256"
        },
        {
          "indexed": true,
          "internalType": "bytes32",
          "name": "l1BlockHash",
          "type": "bytes32"
        },
        {
          "indexed": false,
          "internalType": "uint256",
          "name": "startTime",
          "type": "uint256"
        },
        {
          "indexed": false,
          "internalType": "uint256",
          "name": "endTime",
          "type": "uint256"
        }
      ],
      "name": "ProposalVoteStarted",
      "type": "event"
    },
    {
      "anonymous": false,
      "inputs": [
        {
          "indexed": true,
          "internalType": "uint256",
          "name": "proposalId",
          "type": "uint256"
        },
        {
          "indexed": true,
          "internalType": "address",
          "name": "voter",
          "type": "address"
        },
        {
          "indexed": true,
          "internalType": "bool",
          "name": "support",
          "type": "bool"
        },
        {
          "indexed": false,
          "internalType": "uint256",
          "name": "votingPower",
          "type": "uint256"
        }
      ],
      "name": "VoteEmitted",
      "type": "event"
    },
    {
      "inputs": [],
      "name": "CROSS_CHAIN_CONTROLLER",
      "outputs": [
        {
          "internalType": "address",
          "name": "",
          "type": "address"
        }
      ],
      "stateMutability": "view",
      "type": "function"
    },
    {
      "inputs": [],
      "name": "DATA_WAREHOUSE",
      "outputs": [
        {
          "internalType": "contract IDataWarehouse",
          "name": "",
          "type": "address"
        }
      ],
      "stateMutability": "view",
      "type": "function"
    },
    {
      "inputs": [],
      "name": "DOMAIN_SEPARATOR",
      "outputs": [
        {
          "internalType": "bytes32",
          "name": "",
          "type": "bytes32"
        }
      ],
      "stateMutability": "view",
      "type": "function"
    },
    {
      "inputs": [],
      "name": "GOVERNANCE",
      "outputs": [
        {
          "internalType": "address",
          "name": "",
          "type": "address"
        }
      ],
      "stateMutability": "view",
      "type": "function"
    },
    {
      "inputs": [],
      "name": "L1_VOTING_PORTAL",
      "outputs": [
        {
          "internalType": "address",
          "name": "",
          "type": "address"
        }
      ],
      "stateMutability": "view",
      "type": "function"
    },
    {
      "inputs": [],
      "name": "L1_VOTING_PORTAL_CHAIN_ID",
      "outputs": [
        {
          "internalType": "uint256",
          "name": "",
          "type": "uint256"
        }
      ],
      "stateMutability": "view",
      "type": "function"
    },
    {
      "inputs": [],
      "name": "NAME",
      "outputs": [
        {
          "internalType": "string",
          "name": "",
          "type": "string"
        }
      ],
      "stateMutability": "view",
      "type": "function"
    },
    {
      "inputs": [],
      "name": "REPRESENTATIVES_SLOT",
      "outputs": [
        {
          "internalType": "uint256",
          "name": "",
          "type": "uint256"
        }
      ],
      "stateMutability": "view",
      "type": "function"
    },
    {
      "inputs": [],
      "name": "VOTE_SUBMITTED_BY_REPRESENTATIVE_TYPEHASH",
      "outputs": [
        {
          "internalType": "bytes32",
          "name": "",
          "type": "bytes32"
        }
      ],
      "stateMutability": "view",
      "type": "function"
    },
    {
      "inputs": [],
      "name": "VOTE_SUBMITTED_TYPEHASH",
      "outputs": [
        {
          "internalType": "bytes32",
          "name": "",
          "type": "bytes32"
        }
      ],
      "stateMutability": "view",
      "type": "function"
    },
    {
      "inputs": [],
      "name": "VOTING_ASSET_WITH_SLOT_RAW",
      "outputs": [
        {
          "internalType": "string",
          "name": "",
          "type": "string"
        }
      ],
      "stateMutability": "view",
      "type": "function"
    },
    {
      "inputs": [],
      "name": "VOTING_ASSET_WITH_SLOT_TYPEHASH",
      "outputs": [
        {
          "internalType": "bytes32",
          "name": "",
          "type": "bytes32"
        }
      ],
      "stateMutability": "view",
      "type": "function"
    },
    {
      "inputs": [],
      "name": "VOTING_STRATEGY",
      "outputs": [
        {
          "internalType": "contract IVotingStrategy",
          "name": "",
          "type": "address"
        }
      ],
      "stateMutability": "view",
      "type": "function"
    },
    {
      "inputs": [
        {
          "internalType": "uint256",
          "name": "proposalId",
          "type": "uint256"
        }
      ],
      "name": "closeAndSendVote",
      "outputs": [],
      "stateMutability": "nonpayable",
      "type": "function"
    },
    {
      "inputs": [
        {
          "internalType": "bytes",
          "name": "message",
          "type": "bytes"
        }
      ],
      "name": "decodeMessage",
      "outputs": [
        {
          "internalType": "enum IVotingPortal.MessageType",
          "name": "",
          "type": "uint8"
        },
        {
          "internalType": "bytes",
          "name": "",
          "type": "bytes"
        }
      ],
      "stateMutability": "pure",
      "type": "function"
    },
    {
      "inputs": [
        {
          "internalType": "bytes",
          "name": "message",
          "type": "bytes"
        }
      ],
      "name": "decodeProposalMessage",
      "outputs": [
        {
          "internalType": "uint256",
          "name": "",
          "type": "uint256"
        },
        {
          "internalType": "bytes32",
          "name": "",
          "type": "bytes32"
        },
        {
          "internalType": "uint24",
          "name": "",
          "type": "uint24"
        }
      ],
      "stateMutability": "pure",
      "type": "function"
    },
    {
      "inputs": [
        {
          "internalType": "bytes",
          "name": "message",
          "type": "bytes"
        }
      ],
      "name": "decodeVoteMessage",
      "outputs": [
        {
          "internalType": "uint256",
          "name": "",
          "type": "uint256"
        },
        {
          "internalType": "address",
          "name": "",
          "type": "address"
        },
        {
          "internalType": "bool",
          "name": "",
          "type": "bool"
        },
        {
          "components": [
            {
              "internalType": "address",
              "name": "underlyingAsset",
              "type": "address"
            },
            {
              "internalType": "uint128",
              "name": "slot",
              "type": "uint128"
            }
          ],
          "internalType": "struct IVotingMachineWithProofs.VotingAssetWithSlot[]",
          "name": "",
          "type": "tuple[]"
        }
      ],
      "stateMutability": "pure",
      "type": "function"
    },
    {
      "inputs": [],
      "name": "eip712Domain",
      "outputs": [
        {
          "internalType": "bytes1",
          "name": "fields",
          "type": "bytes1"
        },
        {
          "internalType": "string",
          "name": "name",
          "type": "string"
        },
        {
          "internalType": "string",
          "name": "version",
          "type": "string"
        },
        {
          "internalType": "uint256",
          "name": "chainId",
          "type": "uint256"
        },
        {
          "internalType": "address",
          "name": "verifyingContract",
          "type": "address"
        },
        {
          "internalType": "bytes32",
          "name": "salt",
          "type": "bytes32"
        },
        {
          "internalType": "uint256[]",
          "name": "extensions",
          "type": "uint256[]"
        }
      ],
      "stateMutability": "view",
      "type": "function"
    },
    {
      "inputs": [],
      "name": "getGasLimit",
      "outputs": [
        {
          "internalType": "uint256",
          "name": "",
          "type": "uint256"
        }
      ],
      "stateMutability": "view",
      "type": "function"
    },
    {
      "inputs": [
        {
          "internalType": "uint256",
          "name": "proposalId",
          "type": "uint256"
        }
      ],
      "name": "getProposalById",
      "outputs": [
        {
          "components": [
            {
              "internalType": "uint256",
              "name": "id",
              "type": "uint256"
            },
            {
              "internalType": "bool",
              "name": "sentToGovernance",
              "type": "bool"
            },
            {
              "internalType": "uint40",
              "name": "startTime",
              "type": "uint40"
            },
            {
              "internalType": "uint40",
              "name": "endTime",
              "type": "uint40"
            },
            {
              "internalType": "uint40",
              "name": "votingClosedAndSentTimestamp",
              "type": "uint40"
            },
            {
              "internalType": "uint128",
              "name": "forVotes",
              "type": "uint128"
            },
            {
              "internalType": "uint128",
              "name": "againstVotes",
              "type": "uint128"
            },
            {
              "internalType": "uint256",
              "name": "creationBlockNumber",
              "type": "uint256"
            },
            {
              "internalType": "uint256",
              "name": "votingClosedAndSentBlockNumber",
              "type": "uint256"
            }
          ],
          "internalType": "struct IVotingMachineWithProofs.ProposalWithoutVotes",
          "name": "",
          "type": "tuple"
        }
      ],
      "stateMutability": "view",
      "type": "function"
    },
    {
      "inputs": [
        {
          "internalType": "uint256",
          "name": "proposalId",
          "type": "uint256"
        }
      ],
      "name": "getProposalState",
      "outputs": [
        {
          "internalType": "enum IVotingMachineWithProofs.ProposalState",
          "name": "",
          "type": "uint8"
        }
      ],
      "stateMutability": "view",
      "type": "function"
    },
    {
      "inputs": [
        {
          "internalType": "uint256",
          "name": "proposalId",
          "type": "uint256"
        }
      ],
      "name": "getProposalVoteConfiguration",
      "outputs": [
        {
          "components": [
            {
              "internalType": "uint24",
              "name": "votingDuration",
              "type": "uint24"
            },
            {
              "internalType": "bytes32",
              "name": "l1ProposalBlockHash",
              "type": "bytes32"
            }
          ],
          "internalType": "struct IVotingMachineWithProofs.ProposalVoteConfiguration",
          "name": "",
          "type": "tuple"
        }
      ],
      "stateMutability": "view",
      "type": "function"
    },
    {
      "inputs": [
        {
          "internalType": "uint256",
          "name": "skip",
          "type": "uint256"
        },
        {
          "internalType": "uint256",
          "name": "size",
          "type": "uint256"
        }
      ],
      "name": "getProposalsVoteConfigurationIds",
      "outputs": [
        {
          "internalType": "uint256[]",
          "name": "",
          "type": "uint256[]"
        }
      ],
      "stateMutability": "view",
      "type": "function"
    },
    {
      "inputs": [
        {
          "internalType": "address",
          "name": "user",
          "type": "address"
        },
        {
          "internalType": "uint256",
          "name": "proposalId",
          "type": "uint256"
        }
      ],
      "name": "getUserProposalVote",
      "outputs": [
        {
          "components": [
            {
              "internalType": "bool",
              "name": "support",
              "type": "bool"
            },
            {
              "internalType": "uint248",
              "name": "votingPower",
              "type": "uint248"
            }
          ],
          "internalType": "struct IVotingMachineWithProofs.Vote",
          "name": "",
          "type": "tuple"
        }
      ],
      "stateMutability": "view",
      "type": "function"
    },
    {
      "inputs": [],
      "name": "owner",
      "outputs": [
        {
          "internalType": "address",
          "name": "",
          "type": "address"
        }
      ],
      "stateMutability": "view",
      "type": "function"
    },
    {
      "inputs": [
        {
          "internalType": "address",
          "name": "originSender",
          "type": "address"
        },
        {
          "internalType": "uint256",
          "name": "originChainId",
          "type": "uint256"
        },
        {
          "internalType": "bytes",
          "name": "messageWithType",
          "type": "bytes"
        }
      ],
      "name": "receiveCrossChainMessage",
      "outputs": [],
      "stateMutability": "nonpayable",
      "type": "function"
    },
    {
      "inputs": [],
      "name": "renounceOwnership",
      "outputs": [],
      "stateMutability": "nonpayable",
      "type": "function"
    },
    {
      "inputs": [
        {
          "internalType": "uint256",
          "name": "proposalId",
          "type": "uint256"
        }
      ],
      "name": "startProposalVote",
      "outputs": [
        {
          "internalType": "uint256",
          "name": "",
          "type": "uint256"
        }
      ],
      "stateMutability": "nonpayable",
      "type": "function"
    },
    {
      "inputs": [
        {
          "internalType": "uint256",
          "name": "proposalId",
          "type": "uint256"
        },
        {
          "internalType": "bool",
          "name": "support",
          "type": "bool"
        },
        {
          "components": [
            {
              "internalType": "address",
              "name": "underlyingAsset",
              "type": "address"
            },
            {
              "internalType": "uint128",
              "name": "slot",
              "type": "uint128"
            },
            {
              "internalType": "bytes",
              "name": "proof",
              "type": "bytes"
            }
          ],
          "internalType": "struct IVotingMachineWithProofs.VotingBalanceProof[]",
          "name": "votingBalanceProofs",
          "type": "tuple[]"
        }
      ],
      "name": "submitVote",
      "outputs": [],
      "stateMutability": "nonpayable",
      "type": "function"
    },
    {
      "inputs": [
        {
          "internalType": "uint256",
          "name": "proposalId",
          "type": "uint256"
        },
        {
          "internalType": "bool",
          "name": "support",
          "type": "bool"
        },
        {
          "internalType": "address",
          "name": "voter",
          "type": "address"
        },
        {
          "internalType": "bytes",
          "name": "proofOfRepresentation",
          "type": "bytes"
        },
        {
          "components": [
            {
              "internalType": "address",
              "name": "underlyingAsset",
              "type": "address"
            },
            {
              "internalType": "uint128",
              "name": "slot",
              "type": "uint128"
            },
            {
              "internalType": "bytes",
              "name": "proof",
              "type": "bytes"
            }
          ],
          "internalType": "struct IVotingMachineWithProofs.VotingBalanceProof[]",
          "name": "votingBalanceProofs",
          "type": "tuple[]"
        }
      ],
      "name": "submitVoteAsRepresentative",
      "outputs": [],
      "stateMutability": "nonpayable",
      "type": "function"
    },
    {
      "inputs": [
        {
          "internalType": "uint256",
          "name": "proposalId",
          "type": "uint256"
        },
        {
          "internalType": "address",
          "name": "voter",
          "type": "address"
        },
        {
          "internalType": "address",
          "name": "representative",
          "type": "address"
        },
        {
          "internalType": "bool",
          "name": "support",
          "type": "bool"
        },
        {
          "internalType": "bytes",
          "name": "proofOfRepresentation",
          "type": "bytes"
        },
        {
          "components": [
            {
              "internalType": "address",
              "name": "underlyingAsset",
              "type": "address"
            },
            {
              "internalType": "uint128",
              "name": "slot",
              "type": "uint128"
            },
            {
              "internalType": "bytes",
              "name": "proof",
              "type": "bytes"
            }
          ],
          "internalType": "struct IVotingMachineWithProofs.VotingBalanceProof[]",
          "name": "votingBalanceProofs",
          "type": "tuple[]"
        },
        {
          "components": [
            {
              "internalType": "uint8",
              "name": "v",
              "type": "uint8"
            },
            {
              "internalType": "bytes32",
              "name": "r",
              "type": "bytes32"
            },
            {
              "internalType": "bytes32",
              "name": "s",
              "type": "bytes32"
            }
          ],
          "internalType": "struct IVotingMachineWithProofs.SignatureParams",
          "name": "signatureParams",
          "type": "tuple"
        }
      ],
      "name": "submitVoteAsRepresentativeBySignature",
      "outputs": [],
      "stateMutability": "nonpayable",
      "type": "function"
    },
    {
      "inputs": [
        {
          "internalType": "uint256",
          "name": "proposalId",
          "type": "uint256"
        },
        {
          "internalType": "address",
          "name": "voter",
          "type": "address"
        },
        {
          "internalType": "bool",
          "name": "support",
          "type": "bool"
        },
        {
          "components": [
            {
              "internalType": "address",
              "name": "underlyingAsset",
              "type": "address"
            },
            {
              "internalType": "uint128",
              "name": "slot",
              "type": "uint128"
            },
            {
              "internalType": "bytes",
              "name": "proof",
              "type": "bytes"
            }
          ],
          "internalType": "struct IVotingMachineWithProofs.VotingBalanceProof[]",
          "name": "votingBalanceProofs",
          "type": "tuple[]"
        },
        {
          "internalType": "uint8",
          "name": "v",
          "type": "uint8"
        },
        {
          "internalType": "bytes32",
          "name": "r",
          "type": "bytes32"
        },
        {
          "internalType": "bytes32",
          "name": "s",
          "type": "bytes32"
        }
      ],
      "name": "submitVoteBySignature",
      "outputs": [],
      "stateMutability": "nonpayable",
      "type": "function"
    },
    {
      "inputs": [
        {
          "internalType": "address",
          "name": "newOwner",
          "type": "address"
        }
      ],
      "name": "transferOwnership",
      "outputs": [],
      "stateMutability": "nonpayable",
      "type": "function"
    },
    {
      "inputs": [
        {
          "internalType": "uint256",
          "name": "gasLimit",
          "type": "uint256"
        }
      ],
      "name": "updateGasLimit",
      "outputs": [],
      "stateMutability": "nonpayable",
      "type": "function"
    }
  ],
  "bytecode": {
    "object": "0x6102206040523480156200001257600080fd5b50604051620040f7380380620040f7833981016040819052620000359162000473565b82816040518060400160405280601381526020017f4161766520566f74696e67204d616368696e650000000000000000000000000081525060405180604001604052806002815260200161563160f01b8152506200009e6000836200035960201b90919060201c565b61012052620000af81600162000359565b61014052815160208084019190912060e052815190820120610100524660a0526200013d60e05161010051604080517f8b73c3c69bb8fe3d512ecc4cf759cc79239f7b179b0ffacaa9a75d522b39400f60208201529081019290925260608201524660808201523060a082015260009060c00160405160208183030381529060405280519060200120905090565b60805250503060c052620001513362000392565b6040805180820190915260028152611b9960f11b60208201526001600160a01b0383166200019d5760405162461bcd60e51b8152600401620001949190620004f0565b60405180910390fd5b50604080518082019091526002815261393760f01b60208201526001600160a01b038216620001e15760405162461bcd60e51b8152600401620001949190620004f0565b506001600160a01b03821661016081905260408051636f35e84160e11b8152905163de6bd082916004808201926020929091908290030181865afa1580156200022e573d6000803e3d6000fd5b505050506040513d601f19601f8201168201806040525081019062000254919062000540565b6001600160a01b03908116610180529081166101a052604080518082019091526002815261363960f01b602082015291508716620002a75760405162461bcd60e51b8152600401620001949190620004f0565b50604080518082019091526002815261373160f01b602082015284620002e25760405162461bcd60e51b8152600401620001949190620004f0565b50604080518082019091526002815261070760f31b60208201526001600160a01b038316620003265760405162461bcd60e51b8152600401620001949190620004f0565b506001600160a01b038087166101c0526101e08590528216610200526200034d85620003e4565b505050505050620006fd565b60006020835110156200037957620003718362000417565b90506200038c565b816200038684826200060c565b5060ff90505b92915050565b600280546001600160a01b038381166001600160a01b0319831681179093556040519116919082907f8be0079c531659141344cd1fd0a4f28419497f9722a3daafe3b4186f6b6457e090600090a35050565b600681905560405181907f3d1394ba0f6fca9c1e344f10a3efe1bfca63bc591232bb0d76755690f409450c90600090a250565b600080829050601f8151111562000445578260405163305a27a960e01b8152600401620001949190620004f0565b80516200045282620006d8565b179392505050565b6001600160a01b03811681146200047057600080fd5b50565b60008060008060008060c087890312156200048d57600080fd5b86516200049a816200045a565b8096505060208701519450604087015193506060870151620004bc816200045a565b6080880151909350620004cf816200045a565b60a0880151909250620004e2816200045a565b809150509295509295509295565b600060208083528351808285015260005b818110156200051f5785810183015185820160400152820162000501565b506000604082860101526040601f19601f8301168501019250505092915050565b6000602082840312156200055357600080fd5b815162000560816200045a565b9392505050565b634e487b7160e01b600052604160045260246000fd5b600181811c908216806200059257607f821691505b602082108103620005b357634e487b7160e01b600052602260045260246000fd5b50919050565b601f8211156200060757600081815260208120601f850160051c81016020861015620005e25750805b601f850160051c820191505b818110156200060357828155600101620005ee565b5050505b505050565b81516001600160401b0381111562000628576200062862000567565b62000640816200063984546200057d565b84620005b9565b602080601f8311600181146200067857600084156200065f5750858301515b600019600386901b1c1916600185901b17855562000603565b600085815260208120601f198616915b82811015620006a95788860151825594840194600190910190840162000688565b5085821015620006c85787850151600019600388901b60f8161c191681555b5050505050600190811b01905550565b80516020808301519190811015620005b35760001960209190910360031b1b16919050565b60805160a05160c05160e05161010051610120516101405161016051610180516101a0516101c0516101e05161020051613902620007f5600039600081816104c2015281816107d1015261230a0152600081816105560152818161080e01526122e80152600081816105b3015281816107a701526122b301526000818161028101528181612394015261255b0152600081816105f501528181611ca9015281816123c6015261252e01526000818161040b015281816110970152611e66015260006121e4015260006121b7015260006119820152600061195a015260006118b5015260006118df0152600061190901526139026000f3fe608060405234801561001057600080fd5b50600436106102065760003560e01c80639a39ada31161011a578063c4956366116100ad578063f2709a5c1161007c578063f2709a5c14610617578063f2fde38b14610688578063f4b7223b1461069b578063f687d12a146106bb578063fd1bd2e9146106ce57600080fd5b8063c4956366146105ae578063d53d9b10146105d5578063dbb8f60a146105dd578063de6bd082146105f057600080fd5b8063aa1da0d2116100e9578063aa1da0d214610549578063b34a5e6b14610551578063b6b0f0e014610578578063bc5ee6a81461058b57600080fd5b80639a39ada3146104bd578063a3f4df7e146104e4578063a69d4b2814610523578063a7f8451c1461053657600080fd5b80633be191df1161019d57806384b0196e1161016c57806384b0196e14610456578063867b96c21461047157806389aa5905146104845780638da5cb5b1461048c5780639080936f1461049d57600080fd5b80633be191df146103f35780634916963e14610406578063634d45b21461042d578063715018a61461044e57600080fd5b806315034cba116101d957806315034cba146102d15780631a93d1c3146102e65780633644e515146102ee5780633656de21146102f657600080fd5b80630def04021461020b578063129c5b9614610249578063146278341461027c578063147c11ea146102bb575b600080fd5b61021e6102193660046129f3565b6106d6565b604080518251151581526020928301516001600160f81b031692810192909252015b60405180910390f35b61025c610257366004612b2c565b610734565b60408051938452602084019290925262ffffff1690820152606001610240565b6102a37f000000000000000000000000000000000000000000000000000000000000000081565b6040516001600160a01b039091168152602001610240565b6102c361075a565b604051908152602001610240565b6102e46102df366004612b68565b61079c565b005b6006546102c3565b6102c3610b14565b6103e6610304366004612bc0565b6040805161012081018252600080825260208201819052918101829052606081018290526080810182905260a0810182905260c0810182905260e0810182905261010081019190915250600081815260036020818152604092839020835161012081018552948552600181015460ff811615159286019290925264ffffffffff610100808404821695870195909552600160301b830481166060870152600160581b83041660808601526001600160801b03600160801b909204821660a0860152600281015490911660c08501529081015460e0840152600401549082015290565b6040516102409190612bd9565b6102e4610401366004612cf1565b610b23565b6102a37f000000000000000000000000000000000000000000000000000000000000000081565b61044061043b366004612b2c565b610ddf565b604051610240929190612e00565b6102e4610e00565b61045e610e14565b6040516102409796959493929190612e5b565b6102e461047f366004612bc0565b610e5a565b6102c3610f72565b6002546001600160a01b03166102a3565b6104b06104ab366004612bc0565b610f9b565b6040516102409190612ecb565b6102a37f000000000000000000000000000000000000000000000000000000000000000081565b610516604051806040016040528060138152602001724161766520566f74696e67204d616368696e6560681b81525081565b6040516102409190612ee5565b6102c3610531366004612bc0565b610fb2565b6102e4610544366004612eff565b6111b8565b6102c36111cb565b6102c37f000000000000000000000000000000000000000000000000000000000000000081565b6102e4610586366004612f5a565b6111f4565b61059e610599366004612b2c565b611203565b6040516102409493929190612ff2565b6102a37f000000000000000000000000000000000000000000000000000000000000000081565b61051661122d565b6102e46105eb366004613070565b611249565b6102a37f000000000000000000000000000000000000000000000000000000000000000081565b610668610625366004612bc0565b6040805180820190915260008082526020820152506000908152600460209081526040918290208251808401909352805462ffffff168352600101549082015290565b60408051825162ffffff1681526020928301519281019290925201610240565b6102e4610696366004613160565b6114f7565b6106ae6106a936600461317d565b611570565b604051610240919061319f565b6102e46106c9366004612bc0565b611683565b6102c3600981565b60408051808201825260008082526020918201819052838152600382528281206001600160a01b0386168252600501825282902082518084019093525460ff81161515835261010090046001600160f81b0316908201525b92915050565b60008060008380602001905181019061074d91906131b2565b9250925092509193909250565b6040518060600160405280603981526020016138946039913960405160200161078391906131f3565b6040516020818303038152906040528051906020012081565b336001600160a01b037f00000000000000000000000000000000000000000000000000000000000000001614801561080557507f00000000000000000000000000000000000000000000000000000000000000006001600160a01b0316836001600160a01b0316145b801561083057507f000000000000000000000000000000000000000000000000000000000000000082145b604051806040016040528060028152602001610c4d60f21b815250906108725760405162461bcd60e51b81526004016108699190612ee5565b60405180910390fd5b506040516331a6a2d960e11b8152309063634d45b290610896908490600401612ee5565b600060405180830381865afa9250505080156108d457506040513d6000823e601f3d908101601f191682016040526108d19190810190613291565b60015b610952573d808015610902576040519150601f19603f3d011682016040523d82523d6000602084013e610907565b606091505b5082846001600160a01b03167f8b1e20717f068e39458a6f9c1626ff855155e9b16c044581dc9648e8fbd51e8e8484604051610944929190613321565b60405180910390a350505050565b6060600183600181111561096857610968612d86565b03610aaa5760405163094e2dcb60e11b8152309063129c5b9690610990908590600401612ee5565b606060405180830381865afa9250505080156109c9575060408051601f3d908101601f191682019092526109c6918101906131b2565b60015b610a4d573d8080156109f7576040519150601f19603f3d011682016040523d82523d6000602084013e6109fc565b606091505b506000151586886001600160a01b03167f91ff2d4d8e24ff9dab08471142a75c2f2ad08f79dc01c8b273d6e42700a4e2dd878786604051610a3f9392919061334f565b60405180910390a450610b0c565b610a58838383611694565b60011515888a6001600160a01b03167f91ff2d4d8e24ff9dab08471142a75c2f2ad08f79dc01c8b273d6e42700a4e2dd898989604051610a9a9392919061334f565b60405180910390a4505050610b0c565b84866001600160a01b03167f8b1e20717f068e39458a6f9c1626ff855155e9b16c044581dc9648e8fbd51e8e8686604051602001610ae8919061338b565b60408051601f1981840301815290829052610b039291613321565b60405180910390a35b505050505050565b6000610b1e6118a8565b905090565b6000846001600160401b03811115610b3d57610b3d612a1f565b604051908082528060200260200182016040528015610b66578160200160208202803683370190505b50905060005b85811015610c945760405180606001604052806039815260200161389460399139604051602001610b9d91906133d2565b60405160208183030381529060405280519060200120878783818110610bc557610bc56133ee565b9050602002810190610bd79190613404565b610be5906020810190613160565b888884818110610bf757610bf76133ee565b9050602002810190610c099190613404565b610c1a90604081019060200161342f565b604051602001610c4f939291909283526001600160a01b039190911660208301526001600160801b0316604082015260600190565b60405160208183030381529060405280519060200120828281518110610c7757610c776133ee565b602090810291909101015280610c8c81613462565b915050610b6c565b506000610d5060405180606001604052806039815260200161389460399139604051602001610cc391906131f3565b604051602081830303815290604052805190602001208b8b8b86604051602001610ced919061347b565b60408051601f198184030181528282528051602091820120908301969096528101939093526001600160a01b0390911660608301521515608082015260a081019190915260c0015b604051602081830303815290604052805190602001206119d3565b90506000610d6082878787611a00565b9050896001600160a01b0316816001600160a01b0316148015610d8b57506001600160a01b03811615155b60405180604001604052806002815260200161313760f01b81525090610dc45760405162461bcd60e51b81526004016108699190612ee5565b50610dd2818c8b8b8b611a2e565b5050505050505050505050565b6000606082806020019051810190610df79190613291565b91509150915091565b610e08612104565b610e12600061215e565b565b600060608060008060006060610e286121b0565b610e306121dd565b60408051600080825260208201909252600f60f81b9b939a50919850469750309650945092509050565b60008181526003602052604090206002610e738261220a565b6003811115610e8457610e84612d86565b1460405180604001604052806002815260200161062760f31b81525090610ebe5760405162461bcd60e51b81526004016108699190612ee5565b504360048201554260018083018054600285015460ff1964ffffffffff95909516600160581b029485166fffffffffff00000000000000000000ff198316179093179091556001600160801b03600160801b64ffffffffff60581b19909216939093170482169116610f31848383612278565b604080518381526020810183905285917f57595374ff15e29915354c26ba858db8ad6934a534ba31596cd613581aa3b99c910160405180910390a250505050565b6040518060600160405280603981526020016138946039913960405160200161078391906133d2565b600081815260036020526040812061072e9061220a565b600081815260046020908152604080832081518083018352815462ffffff16815260019091015481840181905282518084019093526002835261066760f31b93830193909352916110165760405162461bcd60e51b81526004016108699190612ee5565b5060008381526003602052604081209061102f8261220a565b600381111561104057611040612d86565b1460405180604001604052806002815260200161189b60f11b8152509061107a5760405162461bcd60e51b81526004016108699190612ee5565b5060208201516040516317c1aadb60e31b815260048101919091527f00000000000000000000000000000000000000000000000000000000000000006001600160a01b03169063be0d56d89060240160006040518083038186803b1580156110e157600080fd5b505afa1580156110f5573d6000803e3d6000fd5b50505050611106826020015161237d565b8151429060009061111c9062ffffff16836134b1565b8684554360038501556001840180546affffffffffffffffffff00191661010064ffffffffff8681169182026affffffffff000000000000191692909217600160301b9285169283021790925560208781015160408051948552918401929092529293509188917f4a35ebd1b3d3106a86d022fa35dfeaefd17695e3c7cd99d39841db619106ade2910160405180910390a35093949350505050565b6111c53385858585611a2e565b50505050565b6040518060600160405280603981526020016138946039913960405160200161078391906134d6565b610b0c86868633878787612472565b600080600060608480602001905181019061121e91906135a1565b93509350935093509193509193565b6040518060600160405280603981526020016138946039913981565b6000826001600160401b0381111561126357611263612a1f565b60405190808252806020026020018201604052801561128c578160200160208202803683370190505b50905060005b838110156113ba57604051806060016040528060398152602001613894603991396040516020016112c391906133d2565b604051602081830303815290604052805190602001208585838181106112eb576112eb6133ee565b90506020028101906112fd9190613404565b61130b906020810190613160565b86868481811061131d5761131d6133ee565b905060200281019061132f9190613404565b61134090604081019060200161342f565b604051602001611375939291909283526001600160a01b039190911660208301526001600160801b0316604082015260600190565b6040516020818303038152906040528051906020012082828151811061139d5761139d6133ee565b6020908102919091010152806113b281613462565b915050611292565b506000611467604051806060016040528060398152602001613894603991396040516020016113e991906134d6565b604051602081830303815290604052805190602001208b8b8b8b87604051602001611414919061347b565b60408051601f198184030181528282528051602091820120908301979097528101949094526001600160a01b03928316606085015291166080830152151560a082015260c081019190915260e001610d35565b9050600061148382856000015186602001518760400151611a00565b9050886001600160a01b0316816001600160a01b03161480156114ae57506001600160a01b03811615155b60405180604001604052806002815260200161313760f01b815250906114e75760405162461bcd60e51b81526004016108699190612ee5565b50610dd28b898c8c8b8b8b612472565b6114ff612104565b6001600160a01b0381166115645760405162461bcd60e51b815260206004820152602660248201527f4f776e61626c653a206e6577206f776e657220697320746865207a65726f206160448201526564647265737360d01b6064820152608401610869565b61156d8161215e565b50565b6005546060908015806115835750838111155b1561159e57505060408051600081526020810190915261072e565b6115a884846136b0565b8110156115bc576115b984826136c3565b92505b6000836001600160401b038111156115d6576115d6612a1f565b6040519080825280602002602001820160405280156115ff578160200160208202803683370190505b50905060005b8481101561167a57600560018261161c89876136c3565b61162691906136c3565b61163091906136c3565b81548110611640576116406133ee565b906000526020600020015482828151811061165d5761165d6133ee565b60209081029190910101528061167281613462565b915050611605565b50949350505050565b61168b612104565b61156d8161263b565b604080518082019091526002815261373360f01b6020820152826116cb5760405162461bcd60e51b81526004016108699190612ee5565b506040805180820190915260028152610dcd60f21b602082015262ffffff82166117085760405162461bcd60e51b81526004016108699190612ee5565b506000838152600460209081526040918290206001015482518084019093526002835261333960f01b91830191909152156117565760405162461bcd60e51b81526004016108699190612ee5565b5060408051808201825262ffffff8381168252602080830186815260008881526004928390528581209451855462ffffff191694169390931784555160019384015560058054938401815582527f036b6384b5eca791c62761152d0c79bb0604c104a5fb6f4eb0703f3154bb3db090920186905591516314d3a96560e31b8152908101859052309063a69d4b28906024016020604051808303816000875af1925050508015611822575060408051601f3d908101601f1916820190925261181f918101906136d6565b60015b61185c573d808015611850576040519150601f19603f3d011682016040523d82523d6000602084013e611855565b606091505b5050611862565b50600190505b60405162ffffff8316815281151590849086907fb97f85602e54244368524a04b5db9a67dbbbfa909eace9334c79b7c0c1d255e59060200160405180910390a450505050565b6000306001600160a01b037f00000000000000000000000000000000000000000000000000000000000000001614801561190157507f000000000000000000000000000000000000000000000000000000000000000046145b1561192b57507f000000000000000000000000000000000000000000000000000000000000000090565b610b1e604080517f8b73c3c69bb8fe3d512ecc4cf759cc79239f7b179b0ffacaa9a75d522b39400f60208201527f0000000000000000000000000000000000000000000000000000000000000000918101919091527f000000000000000000000000000000000000000000000000000000000000000060608201524660808201523060a082015260009060c00160405160208183030381529060405280519060200120905090565b600061072e6119e06118a8565b8360405161190160f01b8152600281019290925260228201526042902090565b600080600080611a128888888861266e565b925092509250611a22828261273d565b50909695505050505050565b60008481526003602052604090206001611a478261220a565b6003811115611a5857611a58612d86565b1460405180604001604052806002815260200161313960f01b81525090611a925760405162461bcd60e51b81526004016108699190612ee5565b506001600160a01b0386166000908152600582016020908152604091829020805483518085019094526002845261032360f41b92840192909252919061010090046001600160f81b031615611afa5760405162461bcd60e51b81526004016108699190612ee5565b50600086815260046020908152604080832081518083018352815462ffffff16815260019091015481840152815180830190925283825291810183905290919060005b86811015611fa5576000611b528260016136b0565b90505b87811015611ca657888882818110611b6f57611b6f6133ee565b9050602002810190611b819190613404565b611b9290604081019060200161342f565b6001600160801b0316898984818110611bad57611bad6133ee565b9050602002810190611bbf9190613404565b611bd090604081019060200161342f565b6001600160801b0316141580611c5a5750888882818110611bf357611bf36133ee565b9050602002810190611c059190613404565b611c13906020810190613160565b6001600160a01b0316898984818110611c2e57611c2e6133ee565b9050602002810190611c409190613404565b611c4e906020810190613160565b6001600160a01b031614155b60405180604001604052806002815260200161323160f01b81525090611c935760405162461bcd60e51b81526004016108699190612ee5565b5080611c9e81613462565b915050611b55565b507f00000000000000000000000000000000000000000000000000000000000000006001600160a01b031663e50d420c898984818110611ce857611ce86133ee565b9050602002810190611cfa9190613404565b611d08906020810190613160565b8660200151611d8c8f8d8d88818110611d2357611d236133ee565b9050602002810190611d359190613404565b611d4690604081019060200161342f565b6001600160801b0316604080516001600160a01b038416602082015290810182905260009060600160405160208183030381529060405280519060200120905092915050565b8c8c87818110611d9e57611d9e6133ee565b9050602002810190611db09190613404565b611dbe9060408101906136ef565b6040518663ffffffff1660e01b8152600401611dde959493929190613735565b6040805180830381865afa158015611dfa573d6000803e3d6000fd5b505050506040513d601f19601f82011682018060405250810190611e1e9190613781565b8051604080518082019091526002815261191960f11b6020820152919350611e595760405162461bcd60e51b81526004016108699190612ee5565b50602082015115611f93577f00000000000000000000000000000000000000000000000000000000000000006001600160a01b0316632a71f953898984818110611ea557611ea56133ee565b9050602002810190611eb79190613404565b611ec5906020810190613160565b8a8a85818110611ed757611ed76133ee565b9050602002810190611ee99190613404565b611efa90604081019060200161342f565b602080870151908901516040516001600160e01b031960e087901b1681526001600160a01b0390941660048501526001600160801b03909216602484015260448301526064820152608401602060405180830381865afa158015611f62573d6000803e3d6000fd5b505050506040513d601f19601f82011682018060405250810190611f8691906136d6565b611f9090846136b0565b92505b80611f9d81613462565b915050611b3d565b50604080518082019091526002815261323360f01b602082015282611fdd5760405162461bcd60e51b81526004016108699190612ee5565b50871561203a57611fed826127f6565b600186018054601090612011908490600160801b90046001600160801b03166137bb565b92506101000a8154816001600160801b0302191690836001600160801b03160217905550612085565b612043826127f6565b6002860180546000906120609084906001600160801b03166137bb565b92506101000a8154816001600160801b0302191690836001600160801b031602179055505b835460ff191688151517845561209a82612863565b84546001600160f81b03919091166101000260ff909116178455604051828152881515906001600160a01b038c16908b907f0c611e7b6ae0de26f4772260e1bbdb5f58cbb7c275fe2de14671968d29add8d69060200160405180910390a450505050505050505050565b6002546001600160a01b03163314610e125760405162461bcd60e51b815260206004820181905260248201527f4f776e61626c653a2063616c6c6572206973206e6f7420746865206f776e65726044820152606401610869565b600280546001600160a01b038381166001600160a01b0319831681179093556040519116919082907f8be0079c531659141344cd1fd0a4f28419497f9722a3daafe3b4186f6b6457e090600090a35050565b6060610b1e7f000000000000000000000000000000000000000000000000000000000000000060006128cc565b6060610b1e7f000000000000000000000000000000000000000000000000000000000000000060016128cc565b6001810154600090600160301b900464ffffffffff16810361222e57506000919050565b6001820154600160301b900464ffffffffff164264ffffffffff161161225657506001919050565b600182015460ff161561226b57506003919050565b506002919050565b919050565b600654604080516020810186905280820185905260608082018590528251808303909101815260808201928390526315713fb560e21b9092527f00000000000000000000000000000000000000000000000000000000000000006001600160a01b0316926355c4fed492612334927f0000000000000000000000000000000000000000000000000000000000000000927f00000000000000000000000000000000000000000000000000000000000000009290916084016137db565b60408051808303816000875af1158015612352573d6000803e3d6000fd5b505050506040513d601f19601f820116820180604052508101906123769190613808565b5050505050565b6040516381ac42b560e01b81526001600160a01b037f000000000000000000000000000000000000000000000000000000000000000081166004830152602482018390526000917f0000000000000000000000000000000000000000000000000000000000000000909116906381ac42b590604401602060405180830381865afa15801561240f573d6000803e3d6000fd5b505050506040513d601f19601f8201168201806040525081019061243391906136d6565b141560405180604001604052806002815260200161393560f01b8152509061246e5760405162461bcd60e51b81526004016108699190612ee5565b5050565b604080518082019091526002815261363760f01b60208201526001600160a01b0386166124b25760405162461bcd60e51b81526004016108699190612ee5565b5060008781526004602090815260408083206001015481516001600160a01b038a81168286015260098285015283518083038501815260608301855280519086012046608084015260a0808401919091528451808403909101815260c08301948590528051950194909420633943508360e21b909352909391927f0000000000000000000000000000000000000000000000000000000000000000169063e50d420c90612589907f000000000000000000000000000000000000000000000000000000000000000090879087908c9060c40161382c565b6040805180830381865afa1580156125a5573d6000803e3d6000fd5b505050506040513d601f19601f820116820180604052508101906125c99190613781565b60208101519091506001600160a01b038881169082161480156125f457506001600160a01b03881615155b604051806040016040528060028152602001611c9b60f11b8152509061262d5760405162461bcd60e51b81526004016108699190612ee5565b50610dd2898c8c8989611a2e565b600681905560405181907f3d1394ba0f6fca9c1e344f10a3efe1bfca63bc591232bb0d76755690f409450c90600090a250565b600080807f7fffffffffffffffffffffffffffffff5d576e7357a4501ddfe92f46681b20a08411156126a95750600091506003905082612733565b604080516000808252602082018084528a905260ff891692820192909252606081018790526080810186905260019060a0016020604051602081039080840390855afa1580156126fd573d6000803e3d6000fd5b5050604051601f1901519150506001600160a01b03811661272957506000925060019150829050612733565b9250600091508190505b9450945094915050565b600082600381111561275157612751612d86565b0361275a575050565b600182600381111561276e5761276e612d86565b0361278c5760405163f645eedf60e01b815260040160405180910390fd5b60028260038111156127a0576127a0612d86565b036127c15760405163fce698f760e01b815260048101829052602401610869565b60038260038111156127d5576127d5612d86565b0361246e576040516335e2f38360e21b815260048101829052602401610869565b60006001600160801b0382111561285f5760405162461bcd60e51b815260206004820152602760248201527f53616665436173743a2076616c756520646f65736e27742066697420696e20316044820152663238206269747360c81b6064820152608401610869565b5090565b60006001600160f81b0382111561285f5760405162461bcd60e51b815260206004820152602760248201527f53616665436173743a2076616c756520646f65736e27742066697420696e20326044820152663438206269747360c81b6064820152608401610869565b606060ff83146128e6576128df83612977565b905061072e565b8180546128f290613859565b80601f016020809104026020016040519081016040528092919081815260200182805461291e90613859565b801561296b5780601f106129405761010080835404028352916020019161296b565b820191906000526020600020905b81548152906001019060200180831161294e57829003601f168201915b5050505050905061072e565b60606000612984836129b6565b604080516020808252818301909252919250600091906020820181803683375050509182525060208101929092525090565b600060ff8216601f81111561072e57604051632cd44ac360e21b815260040160405180910390fd5b6001600160a01b038116811461156d57600080fd5b60008060408385031215612a0657600080fd5b8235612a11816129de565b946020939093013593505050565b634e487b7160e01b600052604160045260246000fd5b604051606081016001600160401b0381118282101715612a5757612a57612a1f565b60405290565b604080519081016001600160401b0381118282101715612a5757612a57612a1f565b604051601f8201601f191681016001600160401b0381118282101715612aa757612aa7612a1f565b604052919050565b60006001600160401b03821115612ac857612ac8612a1f565b50601f01601f191660200190565b600082601f830112612ae757600080fd5b8135612afa612af582612aaf565b612a7f565b818152846020838601011115612b0f57600080fd5b816020850160208301376000918101602001919091529392505050565b600060208284031215612b3e57600080fd5b81356001600160401b03811115612b5457600080fd5b612b6084828501612ad6565b949350505050565b600080600060608486031215612b7d57600080fd5b8335612b88816129de565b92506020840135915060408401356001600160401b03811115612baa57600080fd5b612bb686828701612ad6565b9150509250925092565b600060208284031215612bd257600080fd5b5035919050565b6000610120820190508251825260208301511515602083015264ffffffffff60408401511660408301526060830151612c1b606084018264ffffffffff169052565b506080830151612c34608084018264ffffffffff169052565b5060a0830151612c4f60a08401826001600160801b03169052565b5060c0830151612c6a60c08401826001600160801b03169052565b5060e083015160e083015261010080840151818401525092915050565b801515811461156d57600080fd5b60008083601f840112612ca757600080fd5b5081356001600160401b03811115612cbe57600080fd5b6020830191508360208260051b8501011115612cd957600080fd5b9250929050565b803560ff8116811461227357600080fd5b60008060008060008060008060e0898b031215612d0d57600080fd5b883597506020890135612d1f816129de565b96506040890135612d2f81612c87565b955060608901356001600160401b03811115612d4a57600080fd5b612d568b828c01612c95565b9096509450612d69905060808a01612ce0565b925060a0890135915060c089013590509295985092959890939650565b634e487b7160e01b600052602160045260246000fd5b60028110612dac57612dac612d86565b9052565b60005b83811015612dcb578181015183820152602001612db3565b50506000910152565b60008151808452612dec816020860160208601612db0565b601f01601f19169290920160200192915050565b612e0a8184612d9c565b604060208201526000612b606040830184612dd4565b600081518084526020808501945080840160005b83811015612e5057815187529582019590820190600101612e34565b509495945050505050565b60ff60f81b8816815260e060208201526000612e7a60e0830189612dd4565b8281036040840152612e8c8189612dd4565b606084018890526001600160a01b038716608085015260a0840186905283810360c08501529050612ebd8185612e20565b9a9950505050505050505050565b6020810160048310612edf57612edf612d86565b91905290565b602081526000612ef86020830184612dd4565b9392505050565b60008060008060608587031215612f1557600080fd5b843593506020850135612f2781612c87565b925060408501356001600160401b03811115612f4257600080fd5b612f4e87828801612c95565b95989497509550505050565b60008060008060008060a08789031215612f7357600080fd5b863595506020870135612f8581612c87565b94506040870135612f95816129de565b935060608701356001600160401b0380821115612fb157600080fd5b612fbd8a838b01612ad6565b94506080890135915080821115612fd357600080fd5b50612fe089828a01612c95565b979a9699509497509295939492505050565b600060808201868352602060018060a01b03808816828601526040871515818701526080606087015283875180865260a088019150848901955060005b8181101561305f5786518051861684528601516001600160801b031686840152958501959183019160010161302f565b50909b9a5050505050505050505050565b600080600080600080600080888a0361012081121561308e57600080fd5b8935985060208a01356130a0816129de565b975060408a01356130b0816129de565b965060608a01356130c081612c87565b955060808a01356001600160401b03808211156130dc57600080fd5b6130e88d838e01612ad6565b965060a08c01359150808211156130fe57600080fd5b5061310b8c828d01612c95565b909550935050606060bf198201121561312357600080fd5b5061312c612a35565b61313860c08b01612ce0565b815260e08a013560208201526101008a01356040820152809150509295985092959890939650565b60006020828403121561317257600080fd5b8135612ef8816129de565b6000806040838503121561319057600080fd5b50508035926020909101359150565b602081526000612ef86020830184612e20565b6000806000606084860312156131c757600080fd5b8351925060208401519150604084015162ffffff811681146131e857600080fd5b809150509250925092565b7f5375626d6974566f74652875696e743235362070726f706f73616c49642c616481527f647265737320766f7465722c626f6f6c20737570706f72742c566f74696e674160208201527f7373657457697468536c6f745b5d20766f74696e6741737365747357697468536040820152636c6f742960e01b606082015260008251613284816064850160208701612db0565b9190910160640192915050565b600080604083850312156132a457600080fd5b8251600281106132b357600080fd5b60208401519092506001600160401b038111156132cf57600080fd5b8301601f810185136132e057600080fd5b80516132ee612af582612aaf565b81815286602083850101111561330357600080fd5b613314826020830160208601612db0565b8093505050509250929050565b6040815260006133346040830185612dd4565b82810360208401526133468185612dd4565b95945050505050565b6133598185612d9c565b60606020820152600061336f6060830185612dd4565b82810360408401526133818185612dd4565b9695505050505050565b7f756e737570706f72746564206d65737361676520747970653a2000000000000081526000600283106133c0576133c0612d86565b5060f89190911b601a820152601b0190565b600082516133e4818460208701612db0565b9190910192915050565b634e487b7160e01b600052603260045260246000fd5b60008235605e198336030181126133e457600080fd5b6001600160801b038116811461156d57600080fd5b60006020828403121561344157600080fd5b8135612ef88161341a565b634e487b7160e01b600052601160045260246000fd5b6000600182016134745761347461344c565b5060010190565b815160009082906020808601845b838110156134a557815185529382019390820190600101613489565b50929695505050505050565b64ffffffffff8181168382160190808211156134cf576134cf61344c565b5092915050565b7f5375626d6974566f74654173526570726573656e7461746976652875696e743281527f35362070726f706f73616c49642c6164647265737320766f7465722c6164647260208201527f65737320726570726573656e7461746976652c626f6f6c20737570706f72742c60408201527f566f74696e67417373657457697468536c6f745b5d20766f74696e674173736560608201526a747357697468536c6f742960a81b60808201526000825161359481608b850160208701612db0565b91909101608b0192915050565b600080600080608085870312156135b757600080fd5b845193506020808601516135ca816129de565b809450506040808701516135dd81612c87565b60608801519094506001600160401b03808211156135fa57600080fd5b818901915089601f83011261360e57600080fd5b81518181111561362057613620612a1f565b61362e858260051b01612a7f565b818152858101925060069190911b83018501908b82111561364e57600080fd5b928501925b818410156136a05784848d03121561366b5760008081fd5b613673612a5d565b845161367e816129de565b81528487015161368d8161341a565b8188015283529284019291850191613653565b989b979a50959850505050505050565b8082018082111561072e5761072e61344c565b8181038181111561072e5761072e61344c565b6000602082840312156136e857600080fd5b5051919050565b6000808335601e1984360301811261370657600080fd5b8301803591506001600160401b0382111561372057600080fd5b602001915036819003821315612cd957600080fd5b60018060a01b038616815284602082015283604082015260806060820152816080820152818360a0830137600081830160a090810191909152601f909201601f19160101949350505050565b60006040828403121561379357600080fd5b61379b612a5d565b82516137a681612c87565b81526020928301519281019290925250919050565b6001600160801b038181168382160190808211156134cf576134cf61344c565b84815260018060a01b03841660208201528260408201526080606082015260006133816080830184612dd4565b6000806040838503121561381b57600080fd5b505080516020909101519092909150565b60018060a01b03851681528360208201528260408201526080606082015260006133816080830184612dd4565b600181811c9082168061386d57607f821691505b60208210810361388d57634e487b7160e01b600052602260045260246000fd5b5091905056fe566f74696e67417373657457697468536c6f74286164647265737320756e6465726c79696e6741737365742c75696e7431323820736c6f7429a2646970667358221220456227a2f10eae80a4eff3d927c60da69d64c572f09af64d954f460b3c43b63f64736f6c63430008130033",
    "linkReferences": {}
  },
  "methodIdentifiers": {
    "CROSS_CHAIN_CONTROLLER()": "c4956366",
    "DATA_WAREHOUSE()": "de6bd082",
    "DOMAIN_SEPARATOR()": "3644e515",
    "GOVERNANCE()": "14627834",
    "L1_VOTING_PORTAL()": "9a39ada3",
    "L1_VOTING_PORTAL_CHAIN_ID()": "b34a5e6b",
    "NAME()": "a3f4df7e",
    "REPRESENTATIVES_SLOT()": "fd1bd2e9",
    "VOTE_SUBMITTED_BY_REPRESENTATIVE_TYPEHASH()": "aa1da0d2",
    "VOTE_SUBMITTED_TYPEHASH()": "147c11ea",
    "VOTING_ASSET_WITH_SLOT_RAW()": "d53d9b10",
    "VOTING_ASSET_WITH_SLOT_TYPEHASH()": "89aa5905",
    "VOTING_STRATEGY()": "4916963e",
    "closeAndSendVote(uint256)": "867b96c2",
    "decodeMessage(bytes)": "634d45b2",
    "decodeProposalMessage(bytes)": "129c5b96",
    "decodeVoteMessage(bytes)": "bc5ee6a8",
    "eip712Domain()": "84b0196e",
    "getGasLimit()": "1a93d1c3",
    "getProposalById(uint256)": "3656de21",
    "getProposalState(uint256)": "9080936f",
    "getProposalVoteConfiguration(uint256)": "f2709a5c",
    "getProposalsVoteConfigurationIds(uint256,uint256)": "f4b7223b",
    "getUserProposalVote(address,uint256)": "0def0402",
    "owner()": "8da5cb5b",
    "receiveCrossChainMessage(address,uint256,bytes)": "15034cba",
    "renounceOwnership()": "715018a6",
    "startProposalVote(uint256)": "a69d4b28",
    "submitVote(uint256,bool,(address,uint128,bytes)[])": "a7f8451c",
    "submitVoteAsRepresentative(uint256,bool,address,bytes,(address,uint128,bytes)[])": "b6b0f0e0",
    "submitVoteAsRepresentativeBySignature(uint256,address,address,bool,bytes,(address,uint128,bytes)[],(uint8,bytes32,bytes32))": "dbb8f60a",
    "submitVoteBySignature(uint256,address,bool,(address,uint128,bytes)[],uint8,bytes32,bytes32)": "3be191df",
    "transferOwnership(address)": "f2fde38b",
    "updateGasLimit(uint256)": "f687d12a"
  },
  "id": 175
}