{
  "abi": [
    {
      "inputs": [
        {
          "internalType": "address",
          "name": "aaveImpl",
          "type": "address"
        }
      ],
      "stateMutability": "nonpayable",
      "type": "constructor"
    },
    {
      "inputs": [],
      "name": "AAVE_IMPL",
      "outputs": [
        {
          "internalType": "address",
          "name": "",
          "type": "address"
        }
      ],
      "stateMutability": "view",
      "type": "function"
    },
    {
      "inputs": [],
      "name": "execute",
      "outputs": [],
      "stateMutability": "nonpayable",
      "type": "function"
    }
  ],
  "bytecode": {
    "object": "0x60a060405234801561001057600080fd5b506040516102d53803806102d583398101604081905261002f91610040565b6001600160a01b0316608052610070565b60006020828403121561005257600080fd5b81516001600160a01b038116811461006957600080fd5b9392505050565b60805161024561009060003960008181604a015260df01526102456000f3fe608060405234801561001057600080fd5b50600436106100365760003560e01c8063614619541461003b578063c98d845314610045575b600080fd5b610043610088565b005b61006c7f000000000000000000000000000000000000000000000000000000000000000081565b6040516001600160a01b03909116815260200160405180910390f35b6040805160048082526024820183526020820180516001600160e01b031663204a7f0760e21b179052915163278f794360e11b8152737fc66500c84a76ad7e9c93437bfc5ac33e2ddae992634f1ef28692610105927f000000000000000000000000000000000000000000000000000000000000000092016101b1565b600060405180830381600087803b15801561011f57600080fd5b505af1158015610133573d6000803e3d6000fd5b50506040516308f2839760e41b81527386c3ffee349a7cff7ca88c449717b1b133bfb5176004820152737fc66500c84a76ad7e9c93437bfc5ac33e2ddae99250638f2839709150602401600060405180830381600087803b15801561019757600080fd5b505af11580156101ab573d6000803e3d6000fd5b50505050565b60018060a01b038316815260006020604081840152835180604085015260005b818110156101ed578581018301518582016060015282016101d1565b506000606082860101526060601f19601f83011685010192505050939250505056fea26469706673582212200fbed3744124a8f37306ce3a4de42cf5adf7511157cdcd88e1a8ba8bb91670ef64736f6c63430008130033",
    "linkReferences": {}
  },
  "methodIdentifiers": {
    "AAVE_IMPL()": "c98d8453",
    "execute()": "61461954"
  },
  "id": 88
}